:020000040800F2
:10300000F0190020B9150108E5030108E7030108DC
:10301000E9030108EB030108ED03010800000000CB
:10302000000000000000000000000000EF030108A5
:10303000F103010800000000F3030108CBE00008E1
:103040008D160108911601089516010899160108B8
:103050009D160108A1160108F50301080F040108D7
:10306000AD160108B1160108B5160108B916010818
:10307000BD160108C1160108C5160108C9160108C8
:10308000CD160108D1160108D5160108D916010878
:1030900079040108E1160108E51601082904010870
:1030A000ED160108F1160108F5160108F9160108D8
:1030B000FD160108B1920008F792000809170108EF
:1030C0000D17010811170108151701081917010834
:1030D0001D17010881040108251701082917010897
:1030E0005D04010831170108351701083917010877
:1030F0003D1701082DE9F04F80460FF21C60A5B086
:1031000017461D46D0E90023CDE912230020049183
:103110000D900DF1500A6FF0004900E0E719002012
:10312000ADF8020012AB4FF0FF3239460DF102004C
:1031300001F08BF80446012C04DA3878441EA441CF
:10314000E443E40FBDF8020025280CBFA4F1010BF5
:10315000A346BBF1010F0EDB3E4616F8011B049897
:10316000C0470028049000F0D2820D98401CBBF1AB
:10317000010B0D90F1D1BDF80200252807D10020E8
:103180000790089009900A900B900C9005E0002899
:10319000C4D10D98BDE240F0010017F8011F2029AD
:1031A000F9D023290DD02B2904D02D2906D0302980
:1031B0000AD00CE040F0020080B2EEE740F00400DC
:1031C000FAE740F00800F7E740F01000F4E72A299A
:1031D0000ED12968296051F8042B2960002A0F922A
:1031E00004D5514240F004000F9180B27F1C11E0E1
:1031F00000210F9109E00F99494505D001EB8103AA
:1032000002EB430130390F917F1C3A78A2F1300173
:103210000A29F0D339782E2903D04FF0FF310E91CF
:103220001DE017F8011F2A2907D1296829607F1C92
:1032300051F8042B29600E9211E000210E9109E053
:103240000E99494505D001EB810302EB430130396A
:103250000E917F1C3A78A2F130010A29F0D3ADF823
:1032600040000FF2BC40397801F010F808B117F8AF
:10327000010B8DF842009DF84200682802BF3978A2
:103280006829622005D06C2804BF38786C2803D1E7
:1032900071208DF842007F1C14A8069017F8014B8E
:1032A000B4F125002AD01C3800F0CB80001F022882
:1032B00040F2C780133800F0EC80093800F0C1807C
:1032C000801E00F05381401E00F02C81401E022819
:1032D00040F2B780001F00F02581401F00F082807F
:1032E000401E00F0D680401E2CD0C01E0BD0801E89
:1032F00000F0CF80C01E00F0CC805AE125208DF870
:10330000500001205EE19DF842006C28286828608A
:1033100014D050F8046B286005960E9C002C04D540
:10332000304600F0BFFF044606E02246002130464A
:1033300000F0D4FF00B1841B089444E150F8042B42
:1033400028602FE1296829603C2451F8040B29608A
:103350000021CDE9020114A80590DDE90201069ED5
:1033600011B908B90E9AB2B10206120FA0EB0212FF
:103370003032D2B2631E3A2AA8BF2732000940EA8F
:10338000017009099A5508BF00281C4603D0059A08
:10339000A3199A42E8D3A0190590C4F13C010E98F4
:1033A0000891814209DA401A0A904FF6EF71BDF890
:1033B00040000840ADF8400005E1002840F10381DD
:1033C0009DF8400000F01400102840F0FC800F9899
:1033D000079A801A0A9A801A441A012CC0F2F380C4
:1033E0000A94F0E09DF8420062281AD0682806D0BE
:1033F0006A280CD06C281CD0712808D019E02868E5
:10340000286050F8041B28600D980880DBE02868CD
:10341000286050F8042B28600D98C117C2E90001FC
:10342000D1E02868286050F8041B28600D980870C7
:10343000C9E02868286050F8041B28600D980860CF
:10344000C1E02868C01D20F007022A60D2E900010F
:1034500008322A60CDE90201002902D507982D2102
:103460000AE0BDF84000810702D507982B2103E050
:10347000C00705D50798202100F80A10401C0790C6
:1034800014A8079908180590214602A800F090FB9F
:1034900099E09DF842006C280DD0712818BF6A2869
:1034A00009D12868C01D20F007022A60D2E9000176
:1034B00008322A6005E02968296051F8040B296068
:1034C0000021CDE902019DF84200682803D1DDE921
:1034D000020180B20BE0622803D1DDE90201C0B233
:1034E00005E0742818BF7A2804D1DDE90201002123
:1034F000CDE902019DF8400000072ED5DDE902016B
:10350000002908BF002828D044F02000782824D1C2
:103510000798302100F80A10401C411C079100F860
:103520000A401AE09DF84200294600F0FDF8CDE976
:103530000201002902DA07982D210AE0BDF84000B7
:10354000810702D507982B2103E0C00705D507980E
:10355000202100F80A10401C079014A807990818A9
:103560000590214602A800F09FFA2CE09DF8420049
:103570006C2809D0012007902868286050F8041BA7
:1035800028608DF850101EE02868286001AA50F8C5
:10359000041B2860ADF804100020ADF806004FF0C1
:1035A000FF300E9002A9404600F0F5F800280AD539
:1035B000ADE025208DF85000012007901CB18AF85D
:1035C0000140022007900F980799401A0A99401A63
:1035D0000899401A0B99401A0999401A0C99441AF3
:1035E0009DF84000400710D420208DF800000026F0
:1035F00009E0012300AA02A9404600F001FE0028CC
:1036000040F08580761CA642F3DB079E0DF1500B3F
:103610000AE01BF8011B0498C0470028049076D0EC
:103620000D98401C0D90761E002EF2D130208DF8A2
:1036300000004FF0000B0A9E09E0012300AA02A936
:10364000404600F0DDFD002861D10BF1010BB345D0
:10365000F3DB089EDDF814B00AE01BF8011B0498A8
:10366000C0470028049052D00D98401C0D90761E43
:10367000002EF2D130208DF800004FF0000B0B9E91
:1036800009E0012300AA02A9404600F0B9FD002884
:103690003DD10BF1010BB345F3DB05980899099E69
:1036A00001EB000B09E01BF8011B0498C0470490D4
:1036B00068B30D98401C0D90761E002EF3D130207B
:1036C0008DF800004FF0000B0C9E08E0012300AACB
:1036D00002A9404600F094FDC8B90BF1010BB345B7
:1036E000F4DB9DF8400040077FF519AD20208DF8F0
:1036F0000000002600E0761CA642BFF610AD0123B4
:1037000000AA02A9404600F07BFD0028F3D04FF04C
:10371000FF3025B0BDE8F08F000000000000000081
:10372000686A6C747A4C0000622826D068281DD024
:103730006A2808D06C2827D0712804D0742823D098
:103740007A280CD020E00868C01D20F0070008602F
:10375000D0E90023083008601946104670470A680F
:103760000A6052F8040B0A60002170470A680A6078
:1037700052F8040B0A6000B20BE00A680A6052F8C3
:10378000040B0A6040B204E00A680A6052F8040BB5
:103790000A60C11770472DE9F44F0D4694B0D5F873
:1037A00030B0BBF1000F804648BF6FF0004B00F017
:1037B000C1FD696B401801900FF67420D0E9002319
:1037C000CDE9022395F83800400702D4019841283A
:1037D00006D240200DF1100A01904FF0000909E0D7
:1037E00000F0AEFD5FEA000AF7D14FF0FF3058E17C
:1037F000ABEB040BBBF1010FC0F2CD801498018834
:1038000002AA0DF1010000F0F3FD0028044600F1CA
:10381000D5801498008810B9641E00F1CF80A345AC
:10382000C0F2B980686901992218914280F0A180A4
:10383000296AC5F834904042401AA969401A696A59
:10384000401AE969401AA96AA0EB010995F8380005
:10385000400710D420208DF80000002609E0012345
:1038600000AA2946404600F0CBFC002840F0A68084
:10387000761C4E45F3DB6E6957460BE017F8011BCB
:10388000A868C0470028A86000F09880E86A401C3B
:10389000E862761E002EF1D130208DF8000000275E
:1038A0002E6A09E0012300AA2946404600F0A8FC40
:1038B000002840F083807F1CB742F3DBAE69EF68DD
:1038C0000AE017F8011BA868C0470028A86075D057
:1038D000E86A401CE862761E002EF2D130208DF896
:1038E000000000276E6A08E0012300AA294640462E
:1038F00000F086FC002861D17F1CB742F4DBE86849
:10390000A969EE690F180AE017F8011BA868C047FB
:103910000028A86052D0E86A401CE862761E002E9B
:10392000F2D130208DF800000027AE6A08E00123B4
:1039300000AA2946404600F063FC00283ED17F1CC7
:10394000B742F4DB95F8380040070ED520208DF8FB
:103950000000002607E0012300AA2946404600F0A7
:103960004FFC58BB761C4E45F5DB4FF00009C5F8FF
:103970001490224668690DF10101504400F046FDA3
:103980006869201868611498801C1490801E008853
:1039900000287FF42DAF686B6969401A296A401AC4
:1039A000A969401A696A401AE969401AA96A471A5E
:1039B00095F83800400710D400240CE04FF0FF3990
:1039C00068E0A8682021C0470028A860F6D0E86A0F
:1039D000401CE862641CBC42F3DB6B69524629461A
:1039E000404600F00DFC0028E8D12C6A002609E0D2
:1039F000A8683021C0470028A860DFD0E86A401CD2
:103A0000E862761CA642F3DBAB69EA6829464046C9
:103A100000F0F6FB0028D1D16C6A002609E0A86806
:103A20003021C0470028A860C8D0E86A401CE8627E
:103A3000761CA642F3DBE868A969EB690A182946F7
:103A4000404600F0DDFB0028B8D1AC6A002609E052
:103A5000A8683021C0470028A860AFD0E86A401CA1
:103A6000E862761CA642F3DB95F8380040070DD5D6
:103A7000002409E0A8682021C0470028A8609DD044
:103A8000E86A401CE862641CBC42F3DBC5F8149091
:103A9000C5F8349004A882451CBF504600F0F2FCE3
:103AA000484615B0BDE8F08F2DE9FA4E05460A46A6
:103AB0002F696F2A08BF082405D041F0200078281C
:103AC00014BF0A2410243C26D5E90001642A18BF3B
:103AD000692A81468A4605D1002903DAD9F100090D
:103AE0006AEB4A0ABAF1000F08BFB9F1000F0CD116
:103AF000286B50B9082C36D195F83800000732D51C
:103B000030203B2687F83B002DE0E317484651461E
:103B1000224600F0F7FCA4FB0023A9EB020230329E
:103B2000D2B2A6F1010B3A2A5E4603DB9DF80030C3
:103B3000513B9A1881465FEA010A0BF8072008BF3B
:103B4000B9F1000F03D0E868F1198842DDD3082CE1
:103B500009D195F83800000705D5F05D302802D06E
:103B6000761E3020F055C6F13C00A861F119E960DD
:103B7000296B884208DA081A28624FF6EF71288FFD
:103B800008402887BDE8F38E00290ED595F8381037
:103B900001F01401102908D1696B6A69891A2A6A2F
:103BA000891A0E1A012EA8BF2E62BDE8F38E0000FE
:103BB0002DE9F24F04468EB0D4E90001CDE90201AF
:103BC00004AF9DF8380040F0200BBBF1610F0AD024
:103BD000206B002848BF062004D408BFBBF1670F44
:103BE00001D1012020636168C1F30A5040F2FF72E5
:103BF00090421CD1080304BF2068002809D103208B
:103C0000A0619DF8380061381A2836D30FF234616C
:103C100008E00320A0619DF8380061381A2829D3F4
:103C20000FF21861E068032200F0F0FBBEE101280A
:103C300016DA204600F0DDFC012811DB002500200B
:103C4000BBF1610F20D1E168302201F8012B4A1C41
:103C5000E2609DF83820612A0CBF782258220FE0DC
:103C6000626840F2FE3161F31E52451A62604FF005
:103C7000FF30E5E70FF2C051D4E70FF2C451D1E7AE
:103C80000A706169891C616110B90026002584E110
:103C9000BBF1610F40F09780206BD4E900AB0028A6
:103CA0004CBF2126461CDDE902010022002300F062
:103CB000C1FC36B23ABF8BF00040CDE902A0CDE99D
:103CC00002AB06F101082D1F8DF810200DF1110730
:103CD00000E0C71DB8F1010F33DBDDE9020100226E
:103CE000002300F0BFFC2CD21C2102A800F0D2FC63
:103CF000DDE9020100F056FDA8F10708B8F1010F57
:103D0000814609DB00F07AFD02460B46DDE902013F
:103D100000F08CFDCDE90201F81D072105E009F056
:103D20000F0200F8012D4FEA2919B9F1010F01DB4B
:103D3000491EF4D5491E5CBF002200F8012DF9D5BB
:103D4000C7E70DF11100391AB142B8BF0E4636B2BD
:103D500030000DF111072FD4884206DA04A941186A
:103D600049780829A8BF0F2100DA002104AA821887
:103D700000E0761E12F80139401E8B42F9D00F295F
:103D800004D104A941184A78521C4A70002802D56F
:103D900004AF761C2D1D36B2701E0DD4C1190A78E1
:103DA0003032D2B23A2A03DB9DF838303A3B9A18C7
:103DB000401E01F80129F2D5206B002840F1ED806A
:103DC000701E2063E9E0DDE902010022002300F01B
:103DD00031FC3CBF81F00041CDE902012DB247F238
:103DE000975068434B49DFF8309190FBF1F52DB2C5
:103DF000C5F1070ABAF1010F90461CDBDDE9026745
:103E00005FEACA7007D542464B463046394600F055
:103E1000CDFD06460F464046494642464B464FEAD0
:103E20006A0A00F0C3FDBAF1000F80468946E7D167
:103E3000CDE9026724E0CAF1000A0026374F14E0FA
:103E40005FEACA7007D542464B463046394600F015
:103E5000ADFD06460F464046494642464B4600F0F9
:103E6000A5FD4FEA6A0A80468946BAF1000FE7D1FC
:103E7000DDE9020132463B4600F06AFECDE902016F
:103E8000BBF1660F216BDFF898900CBF05F10A00BB
:103E900006204618142EA8BF132630208DF81000D7
:103EA0000DF11107012E3DDBDDE9020100F090FC70
:103EB00007F1080104220A23B0FBF3F303EB8307A5
:103EC000A0EB4700303001F8010C0A20B3FBF0F002
:103ED00000EB8007A3EB47033033521E01F8023D8D
:103EE000E9D1083E012E01F10807DBDBDDE9020123
:103EF00000F06EFC00F08CFC02460B46DDE902018E
:103F000000F094FC00224B4600F050FDCDE9020188
:103F1000CAE700BFA0860100000024400000F03F77
:103F200084D797410DF11100381A0DF1110702E005
:103F3000401E6D1E7F1C39783029F9D0BBF1660F09
:103F400002D12DB2691C04E0BBF1650F0CBF012149
:103F50000021226B8E1836B2B042B8BF064636B288
:103F600031001AD4814204DAC85D3528A8BF39204F
:103F700000DA3020CA19521E00E0761E12F801390C
:103F8000491E8342F9D0392802D1C85D401CC8556A
:103F9000002902D57F1E761C6D1C2DB29DF83810AD
:103FA000009533B23A46204600F003F80FB0BDE862
:103FB000F08F2DE9F04786B006468A4690461D46AA
:103FC00000F00FFF012D406A376B90F8009002DA85
:103FD00001250FF274284AF02000BDF93840662808
:103FE00008BF641C12D0672876D114F1040F79DB66
:103FF000BC4277DA96F83800641C000702D4BD4250
:10400000B8BF2F4624B23F1B48BF002724B2F06838
:10401000B169012C21DA4A1C30230B54012F03DA39
:1040200096F83810090702D502F80090521CE742B2
:10403000B8BF7C4224B2E7196142AF42B2617162FB
:10404000B8BF3D46B3692DB2F5612A4641461818FE
:1040500000F0DCF9781BB062BBE00818A54216DA64
:104060002A46414600F0D2F9B1696918601B012F58
:10407000B161706203DA96F83800000705D5F06880
:1040800001F80090F069401CF061B762A1E022469F
:10409000414600F0BBF9B06920182D1B012F03DA4F
:1040A00096F83810090703D5F16800F80190401C14
:1040B000B0612DB2AF42B8BF3D46F068B3692DB2D2
:1040C0002A4604EB0801181800F0A0F9B069281876
:1040D000B061781B70627CE0BAF1610F14D14FF0CF
:1040E000700A16E0BD4204DA96F83810090758BF86
:1040F0002F467F1E48BF0027BAF1670F14BF4FF04D
:10410000450A4FF0650A04E0BAF1410F08BF4FF0CD
:10411000500AB169F06818F8013B0B544A1C012F92
:1041200005DA96F83810090758BFB26115D502F8BC
:104130000090531C012FB3610FDB6D1E2DB2AF42F7
:10414000B8BF3D462DB22A464146181800F05EF928
:10415000B0692818B061781B7062F068B1690918FD
:10416000200081F800A004D42B20487001F102083F
:1041700004E02D224A7001F102086442002502AFDA
:1041800008E00A2200A800F045FE019807F8010B9C
:104190006D1C009C21B20129F3DA022D06DA4AF0E7
:1041A0002000652804BF302008F8010B4DB93020ED
:1041B00008F8010B07E06D1E02A8285C303008F8F3
:1041C000010B012DF7DAF068B1690818A8EB0000BF
:1041D000F06196F8380000F0140010280DD17069D5
:1041E000B1690818716A0818F1690818B16A0818E5
:1041F000716B8842BCBF081A306206B0BDE8F08718
:10420000F8B504460D4616461F46002004E0E86A4D
:10421000401CE8627F1E002047B116F8011BA86809
:10422000A0470028A860F2D14FF0FF30F2BD000097
:1042300000000000000000006E616E004E414E0064
:10424000696E6600494E46003000F8B504460D46DA
:1042500016461F4600F0E6FD3B46324629462046FC
:1042600001B0BDE8F04000F0F4BD50F8041B61B1AE
:1042700050F8042BD30744BFA9F101039A18002377
:10428000091F42F8043BFAD1EFE770470278C9B240
:104290008A421AB11CBF10F8012FF9E718BF00209D
:1042A0007047040000F10103810704D010F8011BDE
:1042B00089B18107FAD10268B2F10131914311F05D
:1042C000803F04BF50F8042FF6E710F8011B11B12E
:1042D00010F8011BFBE7C01A70470800C9B283073A
:1042E00006D0521E22D310F8013B9942F7D11FE0AD
:1042F000083A13D302F1040241EA012141EA0141E3
:1043000050F8043B121F21BF4B40A3F1013C2CEAA3
:10431000030C1CF0803FF3D0C9B2001F083210F824
:10432000013B521E28BF91EA030FF8D818BF0120A5
:10433000401E704780B500F075FD012002BD0200EF
:1043400070B5054605F10F00C408C046C046E4003C
:10435000A54232D2082C04D2082402E0083000F032
:1043600091F82248026811000CD1011D0A6802B3BD
:104370001368A34238BF111DF8D310E01D68A54291
:104380000DD2191D0B68002BF8D11268011D00E039
:10439000191D0B6893420CD01D68A542F8D361B17A
:1043A0000D682A68A2F10803A3420AD26A680A606B
:1043B0000FE000F071FD0028D0D1C046C0460020BB
:1043C00070BD63190B60121B6E685E600B681A602B
:1043D0002C60096800291DBF4A68002A091D0021B8
:1043E0000160C046C04605F1080070BD18130020EA
:1043F00070B504460D46164600F014FD32462946B7
:104400002046BDE8704000F017BD030062B38B0783
:1044100008D0521E11F8013B00F8013B00F0248047
:104420008B07F6D1830740F0208000BF103A07D3F6
:1044300030B4B1E83810103AA0E83810F9D230BCE6
:10444000530724BFB1E80810A0E8081044BF51F892
:10445000043B40F8043BD20724BF31F8022B20F87C
:10446000022B44BF0B7803707047083A07D3B1E8BA
:104470000810083A40F8043B40F804CBF7D2530741
:10448000E4E7070000B9704738B5A0F108042068D8
:10449000082833D310F0070F30D1C046C046184863
:1044A000416809B18C4203D26160446017E019464B
:1044B0004B680BB1A342FAD30B685D18AC421BD317
:1044C000A54204D12268D2180A600C4607E04A6867
:1044D0001AB123681B199A420ED362604C6061685E
:1044E00051B1226813198B4206D10023036008687A
:1044F0008018206048686060C046C04631BD00003A
:10450000181300201B4213D1094236D12AB1844628
:10451000B0FBF2F002FB10C2704700F0D3BCFCD33A
:104520000022002370470B0002000021002070478A
:10453000904271EB030CF6D370B5B1FA81F4B3FA83
:1045400083F52C1BA340C4F1200532FA05F6334352
:10455000A2405FF00046E64002E05B085FEA3202FC
:10456000841A71EB030524BF204629467641F4D313
:1045700002000B003000002170BD012ACFD970B5B8
:10458000140C20D0B1FA81F4B2FA82F5C4F12004FF
:104590006419B4F12006D6D3B2405FF00044F44071
:1045A000002502E052085FEA3303C61A71EB020EDF
:1045B00024BF3046714664416D41F3D302000B00C5
:1045C0002000290070BD0C46B1FBF2F102FB114541
:1045D0002D0445EA1045B5FBF2F402FB145580B2F8
:1045E00040EA0545B5FBF2F002FB105240EA0440F8
:1045F00070BD30B4436803F0004201211B031B0B64
:10460000436004BF0368002B08D10DE00368DD0F91
:1046100045EA440444605B000360491E4468E302C9
:10462000F4D523031B0B436043681A4342600846DA
:1046300030BC70474FF4001C1CEB410F94BF1CEBC7
:10464000430F09E041EA030C50EA4C0C52EA0C0C0F
:1046500003D2994208BF9042704714BF8B428242F6
:10466000704707004FF4001C1CEB410F94BF1CEB7C
:10467000430F09E041EA030C50EA4C0C52EA0C0CDF
:1046800003D28B4208BF8242704714BF99429042C6
:1046900070475A5870B504460D466068C0F30A501A
:1046A00040F2FF71884207D16068000304BF2068B0
:1046B000002817D0022070BD20B92046FFF799FFCF
:1046C000012868DA012D0FDB40F2FF71091A8D42D3
:1046D0000AD36068002847BF0020304900203049D5
:1046E000C4E90001012070BD4142A942616806DAB7
:1046F0006FF31E51401941EA0050606042E0401ED5
:1047000063684519012205F1350062F31F5335280E
:1047100001F00041636003D361600020206070BD40
:10472000002215F11F0F04DA2268236000202035D3
:104730006060684214D0521E25689241C0F1200387
:10474000D2439D4045EAD272256825FA00F6656895
:1047500005FA03F333432360636823FA00F56560C9
:1047600060680843B2F1004F606003D80DD1207833
:10477000C0070AD52068401C2060206828B96068FE
:10478000401C60604FF0FF3070BD6068884204BF1D
:1047900020680028F6D1002070BD00BF0000F0FFA7
:1047A0000000F07FF446400D40EAC120490006D2E7
:1047B00000F014F8004248BF6FF00040604700F07E
:1047C0000DF84FF0004188428CBF084640426047D8
:1047D000400D40EAC120490080F00D8040F00040CB
:1047E000490DA1F58061491C05D4D1F11F0154BFC9
:1047F000C840C01770474FF000007047010040F1FB
:104800000980F446404200F005F851F0004160474D
:10481000010000BF09D0B0FA80F18840C91CC1F581
:104820008461090501EBD02140057047F0B44FF0D9
:10483000004591EA030F44BF6B4000F04FBB00BF3F
:10484000841A71EB030604D26E40001BB1411219A9
:1048500073414FF4001C1CEB410F34BF7CEB43064B
:1048600084E00C0DA4EB1356362E7DDC012E43DCC8
:1048700045EAC32343EA525312BFD20292025B08B5
:10488000240545EAC12141EA5051D2EBC0209941AB
:1048900025D407D1B0FA80F610FA06F164D00020D2
:1048A000203608E0B1FA81F6B140C6F1200220FAC4
:1048B00002F21143B0404FEAF474B4EB465434F0C2
:1048C00001064FEA74040AD8D6F50016760D04F0F6
:1048D0000044F04061FA06F25040F1404840C00AFE
:1048E00040EA415021F0004128BF5FEA500550F1F5
:1048F000000044EBD12137E045EAC323DB0A45EA57
:10490000C121C90AB6F120050EDD42EA0242120CAD
:10491000C5F1200603FA06F6EB4042EA06056D42B1
:10492000984161F100010DE062FA06F5F240554050
:1049300063FA06FC82EA0C02F3405A406D42904151
:1049400061EB030111F4801F05D1641E620502D0E2
:104950006D004041494121F48011430875F1004345
:1049600050F1000041EB0451F0BC70471CEB410FCB
:1049700015D223F0004352EA43060BD04FEA4C0C09
:10498000BCEB410F04D80C0D661E342EB7DDEBE7EF
:10499000801A994150EA410608BF0021E4E708BFA8
:1049A0001CEB430F28BF6FF00001DDE7B0B581EAD3
:1049B000030C0CF0004C40F2FF7515EA11541DBFBA
:1049C00015EA1357AC42AF4239E0E41923EA4553E4
:1049D00043F48013C90241F0004141EA505EC7022E
:1049E0001100A7FB020200284FF00000EEFB01209F
:1049F0004FF00001E3FB072118BF42F0010240180D
:104A000000214941E3FB0E01A4F580640F0302D2AB
:104A100052004041494154F101046CDD470872F1F4
:104A2000004250F1000051EB0451A1F580115CBF30
:104A300041EA0C01B0BD4CEA05510020B0BD05EAC9
:104A40001357AC4214BFAF4241E050EA410E1CBFC5
:104A500052EA430E02E061460020B0BD24423C44CD
:104A60001BD15FEA070EF6D0090302BF0146002002
:104A7000AEF1140EB1FA81F7AEEB070401FA07FEAE
:104A80000C37C7F1200100FA07F7C8404EEA000EC4
:104A900023EA455343F48013A2E733F00043B3FA0B
:104AA00083F704BFB2FA82FE77440B3FE41BB7F1F1
:104AB000200E2FBF02FA0EF3BB40C7F1200E22FAE0
:104AC0000EFE38BF43EA0E03BA40641C82E750EA88
:104AD000410E14BF52EA430E6FF000014FF400176D
:104AE00017EB430F8ABF194617EB410FB5E74CEAA6
:104AF00005510020B0BDD4F10104B4F120070FDA54
:104B0000C4F12007520828BF42F0010210FA07F54D
:104B100001FA07F7E1BF2A43E0403843E1400FE0E4
:104B2000352C98DCC7F1200452EA400220FA07F243
:104B300018BF42F0010231FA07F0A1400A430021F8
:104B400072F1004250F1000051EB0C01B0BD05FFC5
:104B50002DE9F04140F2FF7581EA030C0CF0004CA6
:104B600015EA11541DBF15EA1357AC42AF42E9E0F4
:104B7000BC41C1F31301C3F31303801A994143F4F9
:104B8000801304D2641E4000494180185941C90273
:104B900041EA5051B1FBF3F603FB1611A2FB067577
:104BA000D7EBC020A94102D2761E80185941C90214
:104BB00041EA5051B1FBF3FE03FB1E11A2FB0E753F
:104BC000D7EBC020A94103D2AEF1010E80185941A4
:104BD000890241EA9051760546EA8E2EB1FBF3F642
:104BE00003FB1611A2FB0675D7EB8020A94102D268
:104BF000761E80185941C90241EA50514EEA060E0C
:104C0000B1FBF3F603FB1611A2FB0675D7EBC02030
:104C1000A94102D2761E80185941C90241EA505179
:104C2000B1FBF3F703FB1711A2FB0735D3EBC02051
:104C3000A94167F100070CBF004247F0010766F386
:104C4000D5274FEA1E31B80814F5806414DDBD077E
:104C500075F1004250EB0E5051EB045111F5801FDD
:104C60005CBF41EA0C01BDE8F0814CF07F6141F08E
:104C7000E0410020BDE8F081BD076D0840EA0E501C
:104C800041F48011D4F10104B4F120060ADAC4F130
:104C900020060200E04001FA06F3E1401843B2406A
:104CA00015430EE0342C14DCC6F1200445EA40051F
:104CB0006D0820FA06F2154321FA06F0A1400D43D3
:104CC000002175F1004250F1000051EB0C01BDE8EC
:104CD000F08100205FEA0C01BDE8F081CFB99218A5
:104CE0005B41B3FA83F704BFB2FA82F6BF190B3FF8
:104CF000B7F120062FBF02FA06F3BB40C7F120062A
:104D000022FA06F638BF3343BA401CB1E419641ED8
:104D10002FE77F4231F00041B1FA81F404BFB0FACD
:104D200080F6A4190B3CB4F120062FBF00FA06F15F
:104D3000A140C4F1200620FA06F638BF3143A04056
:104D40003C1B16E7AC421ABF05EA1357AF4214E00A
:104D500050EA41061CBF52EA4306BFE750EA41074A
:104D6000304661461CBF41EA0551BDE8F08152EA78
:104D7000430C08BFC143BDE8F08100204FF400168A
:104D800016EB410F98BF16EB430F08BF16EB410F10
:104D900024BFC14305E016EB430F0CBF61464CEA4C
:104DA0000551BDE8F081018080B5134800F000F99D
:104DB0000FF24C020FF244010160426241600FF2B7
:104DC0004402826381600FF24402C160016141616B
:104DD00081618162C16201634163C26301644164B4
:104DE00001BD10B5044800F0E3F80446206808B996
:104DF000FFF7DAFF204610BD000000200000000091
:104E00002E00000066616C736500000074727565A9
:104E10000000000091FBF2F303FB1211C0E9003126
:104E20007047018080B5DFF80C0000F0C1F88069A0
:104E300002BD00009000002030B430B90FF24800ED
:104E4000D0E90045C2E900451BE00170012030BCFB
:104E5000704730B431B90FF23800D0E90045C3E9EA
:104E600000450EE01AB930BC6FF00100704708B180
:104E70000A7802800978481E804130BCC043C00FC8
:104E80007047002030BC70470000000000000000A8
:104E900000000000000000000749086808B1002079
:104EA00070470648C008C00008600549C908C90025
:104EB000091A0160704700BFB0130020F7190020E5
:104EC000F01B002070470000F0B44FF0004591EA5D
:104ED000030C44BF6B40FFF7B3BC00BF841A71EBF7
:104EE000030603D2001BB141121973414FF4001C99
:104EF0001CEB410F34BF7CEB430443E00C0DA4EBEF
:104F00001356352E50DC45EAC323DB0A45EAC1219E
:104F1000C912B6F120050DDD63FA05F6EB4086EA0D
:104F20000305124218BF45F00105C01851F10001F8
:104F30000CD213E062FA06F5F2405540F3415A40B4
:104F4000B340F3405A408018594107D349085FEAFB
:104F500030005FEA350528BF45F0010501F58011F5
:104F6000420875F1004250F1000041EB0451F0BCE1
:104F70004FF4001C1CEB410F38BF70470020090D97
:104F8000090570471CEB410F10D252EA43060BD0C3
:104F9000BCEB410F05D80C0DAB43661E342EB5DDBE
:104FA00002E0AB4380185941F0BC7047F0BC704739
:104FB00070470000F0B587B0040001F056F8070014
:104FC000A0208DF803000DF1030201219F2001F0C4
:104FD00057F9B4F9000061684843FFF719FC002253
:104FE000DFF80838FFF7B4FDFFF7DCFB0500FFB280
:104FF000002F41D0632001F069FA00208DF80000F5
:105000009DF80000FF2805D09DF80000401C8DF899
:105010000000F5E701F056FBDFF80C090078C0B29C
:105020004008C0B24028E8D1DFF800090068DFF886
:10503000C017884203D2002000F0BDFF02E001202B
:1050400000F0B9FF622001F041FA00208DF8000065
:105050009DF80000FF2805D09DF80000401C8DF849
:105060000000F5E701F02EFBDFF8BC080078C0B2C5
:105070004008C0B20328E8D15FF4802000FB05F0AF
:10508000DFF8A8180968B0FBF1F00600300080B224
:10509000001210F00F008DF80A0030008DF80B00A0
:1050A000A0684002DFF8841809688909B0FBF1F0B4
:1050B000401C8DF80800606801F033FD0DF102021C
:1050C0000121A32001F071F99DF8020010F0FD000C
:1050D0008DF802000DF102020121A32001F0D0F8A9
:1050E00004AA0DF11101206900F084FB9DF8110064
:1050F0008DF81400607B9DF8101008438DF81500A2
:105100000DF106020DF10701606900F005FD9DF843
:1051100006009DF8071051EA00108DF8160001AA4C
:105120000DF10501A06900F00FFC9DF805009DF848
:10513000041051EA00108DF81700FFB2022F02D0C0
:10514000FFB2032F5AD1DFF8E4070068DFF8E01759
:10515000884205D1B6208DF80100B6208DF80900EF
:10516000DFF8C8070068DFF8CC17884205D1AC200B
:105170008DF80100AC208DF80900DFF8B007006859
:10518000DFF8B417884205D1A3208DF80100A320D1
:105190008DF80900DFF894070068DFF8541688429C
:1051A00005D13B208DF80100B6208DF80900DFF80D
:1051B0007C070068DFF88417884205D136208DF817
:1051C0000100AC208DF80900DFF860070068DFF807
:1051D0007017884205D131208DF80100A3208DF889
:1051E00009000DF101020121072001F049F80690A4
:1051F000DFF83407BDF81810018032E0DFF82C0723
:105200000068DFF82C17884206D0DFF82007006816
:10521000DFF8DC15884202D1B6208DF80900DFF8EE
:105220000C070068DFF80C17884206D0DFF8FC0690
:105230000068DFF80817884202D1AC208DF8090019
:10524000DFF8E8060068DFF8F016884206D0DFF8DD
:10525000DC060068DFF8E816884202D1A3208DF84A
:105260000900DFF8C8060068DFF8D81688420ED3B8
:10527000DFF8B80600684008DFF8B816884201D3A6
:10528000012000E00020C0B200F02CF80CE0DFF8B4
:105290009C060068DFF89C16884201D3012000E0DC
:1052A0000020C0B200F01EF814F10C0201216C20A5
:1052B00000F0E6FF02AA04210C2000F0E1FF05AA9D
:1052C00004211A2000F0DCFF0690DFF85C06BDF830
:1052D00018100180012000F0CCFD606800F07DF91D
:1052E00007B0F0BD1CB5040000208DF8000000AA36
:1052F0000121012001F059F80190DFF82C06BDF8DA
:1053000004100180E4B2012C06D19DF8000050F099
:1053100040008DF8000005E09DF8000010F0BF008F
:105320008DF8000000AA0121012000F0A9FF0190E2
:10533000DFF8F405BDF80410018013BDF8B40100D6
:1053400000208DF8000000208DF8010008260022C2
:105350000F23DFF80809814206D3DFF804098142F0
:1053600002D2062005001FE0DFF8F808814206D3CC
:10537000DFF8F408814202D20C20050014E0DFF8C7
:10538000EC08814206D3DFF8E808814202D21020FF
:10539000050009E0DFF8DC08814205D3DFF8D80812
:1053A000814201D220200500DFF8D008B1FBF0F0E7
:1053B000EDB268430400DFF8C808C08B844204D310
:1053C0000F20060001208DF800009DF80000002845
:1053D0003AD176B2DFF8A80830F81600844217D325
:1053E00076B2DFF89C0810EB46004088A04206D356
:1053F00001208DF8000001208DF80100E5E7320062
:105400005BB252B2981A022790FBF7F08619DCE7DC
:1054100076B2DFF86C0810EB460030F8020C8442DC
:1054200003D301208DF80000CFE733005BB252B206
:10543000981A022790FBF7F0361A5BB276B2B342A5
:10544000C3D100200600C0E79DF80100002813D05A
:1054500076B20F2E10DA76B2DFF8240830F8160094
:10546000201A76B2DFF8187817EB46077F883F1BC3
:10547000B84219D3761C17E09DF80100002813D11B
:1054800076B20F2E10DA76B2DFF8F40730F8160095
:10549000001B76B2DFF8E87717EB460737F8027C97
:1054A000E71BB84200D3761E76B2082796FBF7F0CA
:1054B00000FB1760C0B2F2BC704700B583B000AA11
:1054C0000421082000F071FF0190DFF85C04BDF8B2
:1054D000041001809DF8000010F01F009DF80110DD
:1054E000490311EB40509DF8021010EB41109DF85C
:1054F000031010EBD1000EBD00B583B000AA01214E
:105500000B2000F052FF0190DFF81C04BDF80410DE
:1055100001809DF8000010F00700012801D1002053
:1055200010E09DF8000010F00700032801D10120D1
:1055300008E09DF8000010F00700042801D10220C7
:1055400000E003200EBD00B583B000AA01216C204D
:1055500000F02BFF0190DFF8D003BDF804100180AC
:105560009DF800000EBD00B583B000AA01210C20FB
:1055700000F01BFF0190DFF8B003BDF804100180BC
:105580009DF80000DFF8A41309684843C00B0EBD66
:105590001CB500AA02210E2000F007FF0190DFF8E1
:1055A0008803BDF8041001809DF800009DF80110EB
:1055B00011EB0021080502D551F4704101E0090505
:1055C000090D0C0024B2DFF86403006800FB04F04E
:1055D0005FF4802290FBF2F016BD2DE9F04F87B00A
:1055E0000400DFF87806844206D3DFF874068442AC
:1055F00002D2002081461FE0DFF86806844206D30D
:10560000DFF86406844202D20120814614E0DFF80C
:105610005C06844206D3DFF85806844202D2022098
:10562000814609E0DFF84C06844205D3DFF84806DE
:10563000844201D203208146FFF7AAFF8046FFF78C
:1056400092FF0500FFF77FFF060018EB0400F6B29B
:1056500006FB0500824600F097FC471C00F005FDA4
:1056600000283AD05FFA89F9B9F1000F2AD0B9F1D0
:10567000020F0FD01AD3B9F1030F2ED1DFF80C06A9
:10568000824503D2002001F0F9FA02E0012001F086
:10569000F5FA22E0DFF8F805824503D2002001F098
:1056A000EDFA02E0012001F0E9FA16E0DFF8E40586
:1056B000824503D2002001F0E1FA02E0012001F06E
:1056C000DDFA0AE0DFF8D005824503D2002001F0C0
:1056D000D5FA02E0012001F0D1FA5046FFF72EFE84
:1056E0008DF810005FFA89F9DFF8240419F800003A
:1056F00000FB04F0FFF78CF8CDE90201FFB25FF484
:10570000802000FB07F0FFF779F8CDE9000187481A
:105710000068FFF77DF802000B00DDE90001FFF7EC
:1057200017FADDE90223FFF741F9FFF751F8834645
:105730005FEA5B5010F01F009DF81010490108430C
:105740008DF814005FEA5B308DF815005FEA5B109E
:105750008DF816005FFA89F9DFF8280519F80000BE
:1057600050EACB008DF8170005AA0421082000F0AC
:1057700087FD0090DFF81005BDF80010018001F0F2
:1057800085F807B0BDE8F08F2DE9F047FFF795FEEB
:105790008246FFF7B1FE070000F0F6FB461C5046BC
:1057A000FFF736F88046894660480068FFF730F812
:1057B00004000D00F6B2FFB2D548385C00FB06F0DD
:1057C0005FF480214843FFF719F802000B00200026
:1057D0002900FFF7BDF942464B46FFF7E7F801F015
:1057E00071FAFEF7F5FFBDE8F087000080842E41D6
:1057F000006CDC022DE9FE4305000E0017000020BE
:105800008DF808000F245FF0000900F02EFC00283E
:1058100002D000F0F2FB81469DF80800002811D16B
:1058200064B2002C0ED4BB480068D4F1140119EB0B
:105830000101C840854203D301208DF80800EBE741
:10584000641EE9E764B2002C03D50020040040B2D6
:1058500001E064B220003C700120D4F117018840BF
:1058600000FB05F0AB49096819F10502D140B0FB16
:10587000F1F080460020C0B2032824DA5FFA88F8ED
:10588000C0B210EB0801491E002914D05FFA88F855
:10589000C0B210EB0801FF319E4A126819F10503EE
:1058A000DA405143D4F11702D140691AC0B200AABC
:1058B00022F8101005E047F6FF71C0B200AA22F8E6
:1058C0001010401CD7E74FF6FF700021C9B2032922
:1058D00028DAC9B200AA32F91120012A04DBC9B2C0
:1058E00000AA32F9112004E0C9B200AA32F911204D
:1058F000524280B2824213DAC9B200AA32F91120B0
:10590000012A04DBC9B200A830F8110004E0C9B2D2
:1059100000A830F91100404211EB0802521E32700B
:10592000491CD3E7BDE8F7838413002074130020DB
:1059300000366E0140787D0180BA8C0180F0FA0259
:105940000075190381BA8C012DE9FE4F04000D008A
:10595000160000208DF8000000208DF801005FF097
:105960002C0B5FF000085FF059095FF0010A00F0AE
:105970007CFB002808D000F040FB002802D0022069
:10598000824601E001208246624800685FFA8AFA96
:10599000B0FBFAF06421B0FBF1F09DF80010002993
:1059A0004BD14FFA8BFBAC4931F81B10414340F609
:1059B0002822B1FBF2F1A14221D24FFA8BFBA6497A
:1059C00011EB4B0131F8021C414340F62822B1FB98
:1059D000F2F1A14206D301218DF8001001218DF8CA
:1059E0000110DAE7D9464FFA89F94FFA88F8B9EB8E
:1059F0000801022291FBF2F1BBEB010BCDE74FFA5C
:105A00008BFB954911EB4B014988414340F6282215
:105A1000B1FBF2F18C4203D301218DF80010BCE7F9
:105A2000D8464FFA89F94FFA88F8B9EB08010222F3
:105A300091FBF2F111EB0B0BAFE75F460021C9B20E
:105A4000032926DA7FB2C9B2CA19521E002A05D527
:105A50007FB2C9B2CA19521E5A2A12DA7FB2C9B22B
:105A6000CA197D4B13EB420232F8022C424340F636
:105A70002823B2FBF3F2A21AC9B201AB23F811201A
:105A800005E047F6FF72C9B201AB23F81120491CAB
:105A9000D5E74FF6FF710022D2B2032A27DAD2B23D
:105AA00001AB33F91230012B04DBD2B201AB33F975
:105AB000123004E0D2B201AB33F912305B4289B24A
:105AC0008B4212DAD2B201AB33F91230012B04DB74
:105AD000D2B201A931F8121004E0D2B201A931F911
:105AE00012104942D3195B1E9B46521CD4E74FFA51
:105AF0008BFB09229BFBF2F232704FFA8BFB0922DF
:105B00009BFBF2F302FB13B22A70BDE8F78F000093
:105B10004C160108741300202DE9FE4305000E0009
:105B2000170000208DF8080009245FF0000800F03D
:105B30009CFA002801D018F101089DF808000028FF
:105B400011D164B2002C0ED4DFF87403006818F190
:105B50000F01091BC840854203D301208DF80800BE
:105B6000EBE7641EE9E764B2002C03D500200400D3
:105B700040B201E064B220003C70D4F10C0018EB9C
:105B8000000015FA00F0DFF8381309688909B0FB46
:105B9000F1F081465FFA89F9B9F1080F01DBB9F13B
:105BA00008090020C0B2032825DA5FFA89F9C0B2DB
:105BB00010EB0901491E082915DADFF804130968FA
:105BC00089095FFA89F9C0B210EB0902D21D51436D
:105BD000D4F10C0218EB0202D140691AC0B200AA3B
:105BE00022F8101005E047F6FF71C0B200AA22F8B3
:105BF0001010401CD6E74FF6FF700021C9B20329F0
:105C000028DAC9B200AA32F91120012A04DBC9B28C
:105C100000AA32F9112004E0C9B200AA32F9112019
:105C2000524280B2824213DAC9B200AA32F911207C
:105C3000012A04DBC9B200A830F8110004E0C9B29F
:105C400000A830F91100404211EB0902521E3270D7
:105C5000491CD3E7BDE8F783C80E010880565F2EC4
:105C6000E12F0C3980E40117616A141CC060D21165
:105C7000E1D7CE14408FE10861D06F0A40420F0097
:105C8000001501085016010884130020E2F49C0955
:105C9000C4E93913068DA2190B1A45332DE9F04FCB
:105CA00083B004000D00280001F02EF8DFF8142264
:105CB000DFF81432FFF708F9DFF81022DFF81032AE
:105CC000FEF746FF01F048F80600300001F01CF82E
:105CD000DFF80022DFF80032FEF768FE80468946D2
:105CE000300001F011F842464B46FEF75FFE804659
:105CF0008946300001F008F842464B46FEF756FE52
:105D000080468946300000F0FFFF42464B46FEF7D2
:105D10004DFE82468B46300000F0F6FFDFF8BC21D6
:105D2000DFF8BC31FEF742FE80468946300000F0C5
:105D3000EBFF42464B46FEF739FE8046894630006F
:105D400000F0E2FF42464B46FEF730FE52465B460D
:105D5000FFF7BAF882468B46300000F0D5FFDFF837
:105D60008421DFF88431FEF721FE80468946300029
:105D700000F0CAFF42464B46FEF718FE02000B0039
:105D800050465946FEF752FD80468946300000F0E5
:105D9000BBFFDFF85821DFF85831FEF707FE02009D
:105DA0000B0040464946FEF741FDDFF84821DFF889
:105DB0004831FFF789F800F085FFFEF7F3FC8DF816
:105DC00000009DF800005B2804DB5A208DF80000DD
:105DD000C0B201E09DF80000D4F11700070000AA4E
:105DE00001213800C0B200F04BFA0190DFF80C013D
:105DF000BDF804100180BDE8F78F1CB5040000AAAF
:105E00000121182000F0D1FA9DF8000010F03F00A9
:105E10008DF800009DF8000020438DF8000000AAD6
:105E20000121182000F02CFA0190DFF80802BDF8DB
:105E30000410018013BD1CB5040000AA0121182024
:105E400000F0B3FA9DF8000010F0F8008DF80000A3
:105E50009DF8000020438DF8000000AA01211820C1
:105E600000F00EFA0190DFF8CC01BDF804100180BB
:105E700013BD1CB5040000208DF8000000AA01210C
:105E80001E2000F092FAE4B2012C06D19DF8000029
:105E900050F080008DF8000005E09DF8000010F043
:105EA0007F008DF8000000AA01211E2000F0E8F913
:105EB0000190DFF88001BDF80410018013BD0000DF
:105EC0007413002036AB3E575BD12240295C8FC251
:105ED000F5282840D862B7CF2A33B53F5DDC4603AA
:105EE000780BF13F0ABFD4CF9B8AEA3F4C378941F8
:105EF00060253C40E5D022DBF91E4740841300209A
:105F00001CB5040000AA0121272000F04EFAE4B2DB
:105F1000012C06D19DF8000050F010008DF8000013
:105F200005E09DF8000010F0EF008DF8000000AAD9
:105F30000121272000F0A4F901903E48BDF804108B
:105F4000018013BD1CB5040000AA01219E2000F0B1
:105F50002CFAE4B2012C06D19DF8000050F080002C
:105F60008DF8000005E09DF8000010F07F008DF82E
:105F7000000000AA01219E2000F082F901902D4826
:105F8000BDF80410018013BD00B583B000AA012143
:105F90009E2000F00AFA01902648BDF80410018006
:105FA0009DF80000C0B2C009C0B2002801D0012095
:105FB00000E000200EBD1CB5040000AA0121B420A1
:105FC00000F0F3F9E4B2012C06D19DF8000010F0C6
:105FD000F7008DF8000005E09DF8000050F0080083
:105FE0008DF8000000AA0121B42000F049F90190C9
:105FF0001048BDF80410018013BD00B583B000AA9D
:106000000121B42000F0D1F901900A48BDF8041034
:1060100001809DF80000C0F3C000C0B2002801D08C
:10602000002000E001200EBD0348006870470249CF
:1060300008607047841300207413002000B583B0FB
:1060400000AA0221F02000F0B0F901900948BDF843
:10605000041001809DF800009DF8011051EA002015
:1060600080B20EBD0449087070470348007870473D
:1060700000000000841300202604002000B587B033
:1060800000F02BFFC0B2DFF81C1651F82000DFF83B
:106090001816086000F021FFDFF8101611EB400021
:1060A000DFF80C16086000F018FFDFF8081611EB97
:1060B0008000DFF80416086000F00FFF002853D1BD
:1060C00001214FF4805001F057F80121102001F018
:1060D00025F805220F21DFF8E40501F00FFB05226A
:1060E0000E21DFF8D80501F009FB05220D21DFF8AC
:1060F000CC0501F003FB02208DF8040000208DF890
:10610000060002208DF8070003208DF805004FF4EB
:106110000050009000A9DFF8A40501F059F94FF4F0
:106120008040009000A9DFF8940501F051F94FF488
:106130000040009000A9DFF8840501F049F94FF410
:106140008050009001208DF8040000208DF806009A
:1061500001208DF8070003208DF8050000A9DFF865
:106160005C0501F035F952E00121022000F0D6FF74
:1061700005220E21DFF8480501F0C0FA05220F21A3
:10618000DFF83C0501F0BAFA05220D21DFF83005F1
:1061900001F0B4FA02208DF8040000208DF806000A
:1061A00002208DF8070003208DF805004FF4005001
:1061B000009000A9DFF8080501F00AF94FF400404B
:1061C000009000A9DFF8F80401F002F94FF48040D4
:1061D000009000A9DFF8E80401F0FAF84FF48050CD
:1061E000009001208DF8040000208DF806000120A9
:1061F0008DF8070003208DF8050000A9DFF8C00422
:1062000001F0E6F801214FF4804000F0E3FFDFF8F1
:106210009804006801F046FB4FF48270ADF80A0064
:106220000020ADF808000020ADF80C000020ADF80B
:106230000E000020ADF810004FF40070ADF8120011
:106240000820ADF814000020ADF816000720ADF8C6
:10625000180002A9DFF85004006801F050FB01218A
:10626000DFF84404006801F0F1FBDFF84404006843
:106270000088DFF8441409680968088307B000BD86
:106280002DE9F04184B004000D0016000020ADF8A7
:1062900002000DF1020700208DF804008DF8054082
:1062A00072B6DFF80C0400680088DFF80C14096887
:1062B000096848830020ADF80000BDF80000002800
:1062C00005D1BDF80000401CADF80000F5E75FF017
:1062D0000008B8F1020F2BDA0221DFF8CC030068C6
:1062E00001F002FC0028F7D001A818F8001089B2CC
:1062F000DFF8B403006801F0E4FB0121DFF8A80334
:10630000006801F0F1FB0028F7D0DFF89C0300687B
:1063100001F0C5FBBDF8021080B2D8F10102D2B283
:10632000D20090404018ADF8020018F10108D0E703
:106330005FF00008EDB2A8451FDA0221DFF868031C
:10634000006801F0D1FB0028F7D018F8061089B2D8
:10635000DFF85403006801F0B4FB0121DFF84803C3
:10636000006801F0C1FB0028F7D0DFF83C030068AB
:1063700001F095FB18F10108DCE70221DFF82803A2
:10638000006801F0B1FB0028F7D0DFF824030068B3
:106390000088DFF8241309680968088362B6388822
:1063A0000290029804B0BDE8F0812DE9FE4304009C
:1063B0000D0016000020ADF802000DF102074FF0AD
:1063C000FF0801208DF804008DF8054072B6DFF853
:1063D000E00200680088DFF8E01209680968488375
:1063E0000020ADF80000BDF80000002805D1BDF880
:1063F0000000401CADF80000F5E75FF00009B9F1BE
:10640000020F2BDA0221DFF8A002006801F06CFB1A
:106410000028F7D001A819F8001089B2DFF8880227
:10642000006801F04EFB0121DFF87C02006801F0FA
:106430005BFB0028F7D0DFF87002006801F02FFB4B
:10644000BDF8021080B2D9F10102D2B2D200904060
:106450004018ADF8020019F10109D0E75FF000091A
:10646000EDB2A9451EDA02218F48006801F03CFB1D
:106470000028F8D05FFA88F8414689B28A48006857
:1064800001F01FFB01218848006801F02DFB002866
:10649000F8D08548006801F002FB3070761C19F1D5
:1064A0000109DDE702218048006801F01DFB00289A
:1064B000F8D07F48006800887F4909680968088328
:1064C00062B6388802900298BDE8FE8370B584B049
:1064D00004000020ADF802000DF1020580208DF8C7
:1064E00004008DF8054072B6714800680088724952
:1064F0000968096848830020ADF80000BDF8000075
:10650000002805D1BDF80000401CADF80000F5E7FB
:106510000026022E25DA02216348006801F0E4FA21
:106520000028F8D001A8315C89B25F48006801F00A
:10653000C8FA01215C48006801F0D6FA0028F8D0BA
:106540005948006801F0ABFABDF8021080B2D6F1EC
:106550000102D2B2D20090404018ADF80200761C81
:10656000D7E702215048006801F0BEFA0028F8D0B1
:106570004F4800680088504909680968088362B676
:1065800028880290029804B070BD2DE9F04184B0D3
:1065900004000D000020ADF802000DF10206FF27F7
:1065A00001208DF80400FF208DF8050072B64048E8
:1065B0000068008840490968096848830020ADF8F0
:1065C0000000BDF80000002805D1BDF80000401C07
:1065D000ADF80000F5E75FF00008B8F1020F27DA28
:1065E00002213148006801F07FFA0028F8D001A8A4
:1065F00018F8001089B22C48006801F062FA0121F5
:106600002948006801F070FA0028F8D02648006890
:1066100001F045FABDF8021080B2D8F10102D2B201
:10662000D20090404018ADF8020018F10108D4E7FC
:106630005FF00008E4B2A0451DDA02211A480068A4
:1066400001F052FA0028F8D0FFB2390089B216489A
:10665000006801F036FA01211348006801F044FA9D
:106660000028F8D01048006801F019FA28706D1C55
:1066700018F10108DEE702210B48006801F034FA46
:106680000028F8D00A48006800880B4909680968A2
:10669000088362B630880290029804B0BDE8F081A9
:1066A00000000000A0030020601300200C16010869
:1066B00068130020AC030020641300200010024087
:1066C0000004024080B500AA0121C020FFF76DFE42
:1066D0000149086001BD00BF841300202DE9F04F7F
:1066E00087B00400DFF84804844206D3DFF844048E
:1066F000844202D2002081461FE0DFF83C0484423D
:1067000006D3DFF83804844202D20120814614E027
:10671000DFF82C04844206D3DFF82804844202D236
:106720000220814609E0DFF82004844205D3DFF827
:106730001C04844201D203208146FEF729FF8046D3
:10674000FEF711FF0500FEF7FEFE060018EB040041
:10675000F6B206FB05008346FFF716FC471CFFF761
:1067600084FC00283AD05FFA89F9B9F1000F2AD0E9
:10677000B9F1020F0FD01AD3B9F1030F2ED1DFF800
:10678000D003834503D2002000F078FA02E0012014
:1067900000F074FA22E0DFF8BC03834503D2002046
:1067A00000F06CFA02E0012000F068FA16E0DFF871
:1067B000A803834503D2002000F060FA02E0012024
:1067C00000F05CFA0AE0DFF89403834503D200206E
:1067D00000F054FA02E0012000F050FA5846FEF7AB
:1067E000ADFD8DF81000FFF71FFC82462000FEF77C
:1067F0000FF8CDE90201FFB25FFA89F9DFF8600313
:1068000019F8000000FB07F05FF480214843FDF712
:10681000F5FFCDE900015046FDF7FAFF02000B003D
:10682000DDE90001FEF794F9DDE90223FEF7BEF889
:10683000FDF7CEFF06900698400D10F01F009DF862
:106840001010490108438DF814000698400B8DF88C
:106850001500069840098DF8160006985FFA89F928
:10686000DFF8001319F8011051EAC0008DF8170085
:1068700005AA04210820FFF703FD0090DFF8E802D5
:10688000BDF80010018007B0BDE8F08F2DE9F0479A
:1068900082B000275FF00008FFF7C6FB8146FFF7D4
:1068A000E4FB8246DFF8C40281450ED3FFF76CFBA0
:1068B00000280AD101200700FEF766FF060001202C
:1068C000FFF740FB3000FFF709FFFEF75DFF060012
:1068D00019208DF8000000AA0121A120FFF7D0FCAB
:1068E000012000F04DF9FFF7EDFEDFF87C020078A3
:1068F000C0B24008C0B240280DD1012080466220BD
:1069000001F02AF9FFF7DEFE97480078C0B2400890
:10691000C0B20328F6D1662001F01EF9FFF7D2FEBF
:1069200091480078C0B24008C0B20F28F6D100F0FC
:106930004EF90500622001F00FF9FFF7C3FE8A4807
:106940000078C0B24008C0B20328F6D1874881451C
:1069500008D35FFA8AFABAF1010F03D1844880198B
:10696000FFF7BCFE652001F0F7F8FFF7ABFE7E48AD
:106970000078C0B24008C0B20F28F6D100F027F965
:106980000400622001F0E8F8FFF79CFE76480078EA
:10699000C0B24008C0B20328F6D15FFA88F8B8F157
:1069A000010F02D1632001F0D7F8002000F0E8F8D1
:1069B000FFB2002F07D16D4881450AD35FFA8AFAEA
:1069C000BAF1010F05D10020FFF7BCFA3000FFF744
:1069D00085FE11208DF8000000AA0121A120FFF7FB
:1069E0004FFC2800C0B200F003F92000C0B200F054
:1069F00021F9BDE8F38738B5FFF716FB0400FFF770
:106A000034FB0500EDB2012D20D15A4884421DD23D
:106A100002208DF8000000AA01215020FFF730FC71
:106A2000632001F099F829208DF8000000AA0121C7
:106A3000B420FFF725FC06208DF8000000AA0121F4
:106A40005020FFF71DFC622001F086F831BD1CB517
:106A5000FFF70BFB0400E4B2012C18D100200190D9
:106A60000198FF2803D20198401C0190F8E71020FC
:106A70008DF8000000AA0121A820FFF701FC0020EA
:106A80008DF8000000AA0121A820FFF7F9FB13BD33
:106A900010B582B0FFF7E9FA0400E4B2012C17D177
:106AA000A8208DF8000000AA0121A920FFF7E8FB2B
:106AB0004B208DF8000000AA0121AA20FFF7E0FB7F
:106AC000FC208DF8000000AA0121AB20FFF7D8FBC5
:106AD00013BD38B528480078012821D0FFF7A4FA63
:106AE0000400FFF7C2FA0500EDB2012D0AD11F48DC
:106AF000844207D3214800681D490818FFF7EEFDBE
:106B0000FFF7C6FF90208DF8000000AA0121A52004
:106B1000FFF7B6FB0020FFF770F901201649087057
:106B200031BD0221144A11701449086070470000F9
:106B300080565F2EE12F0C3980E40117616A141C26
:106B4000C060D211E1D7CE14408FE10861D06F0A46
:106B5000E2F49C09C4E93913068DA2190B1A4533D6
:106B600048160108441601088413002081BA8C01DC
:106B70002C540700006CDC02270400207013002056
:106B80001CB5040000AA01215020FFF70EFC019063
:106B90003948BDF804100180E4B2012C06D19DF8FB
:106BA000000050F002008DF8000005E09DF80000A4
:106BB00010F0FD008DF8000000AA01215020FFF721
:106BC0005FFB01902C48BDF80410018013BD00B597
:106BD00083B000AA0121E520FFF7E7FB01902648DA
:106BE000BDF8041001809DF8000010F07F000EBD7C
:106BF0001CB5040000AA01216E20FFF7D6FB01900E
:106C00001D48BDF8041001809DF8000010F08000C0
:106C10008DF800009DF8000020438DF8000000AAC8
:106C200001216E20FFF72CFB01901348BDF80410E2
:106C3000018013BD1CB5040000AA01216F20FFF7DD
:106C4000B4FB01900C48BDF8041001809DF80000D1
:106C500010F080008DF800009DF8000020438DF8B2
:106C6000000000AA01216F20FFF70AFB01900248F3
:106C7000BDF80410018013BD8413002010B582B04C
:106C8000040000AA01219E20FFF78FFB9DF8000061
:106C900010F0F9008DF80000E4B2012C06D19DF847
:106CA000000050F002008DF8000005E09DF80000A3
:106CB00050F004008DF8000000AA01219E20FFF78B
:106CC000DFFA13BD83B5012100A800F055FF401E77
:106CD000012811D9002100A800F04EFF60B10198F1
:106CE000DDE90023002847BF0020054900200549B1
:106CF000FEF7EAF8CDE90001DDE9000103B000BDCF
:106D00000000F0BF0000F03F5FF0FF0C1CEAD05124
:106D100014BF614506E0C110400721F0E04101F1D8
:106D20006051704779B900F0004100020AD0B0FA12
:106D300080FC00FA0CF001F16051A1EB0C5101EB69
:106D4000D0214005704741020CBF40F4E0016FF0D4
:106D500000010020704700004FEAF17CBCF1E04CDC
:106D60002CBFBCF5001F11E05FEA4C0C34BFBCF136
:106D70007F5F2EE05FEA9C0C4FEA0C1C4FEA3C0C54
:106D8000C10071F100414CEB50707047C90241EAFB
:106D90005051C00218BF41F0010141F000414FEADB
:106DA0006C50C0F10900212810D240EACC7CCCF113
:106DB000200C11FA0CF070F10040CCF1200C21FAFB
:106DC0000CF00CF0004C40EB0C0070474FEACC701C
:106DD0007047490011F5001F04D84FEACC10FF306E
:106DE000C0057047C8177047E0B50121102000F0BA
:106DF00095F901208DF8080000208DF80B00032084
:106E00008DF8090000208DF80A000220019001A9E8
:106E1000334800F0DDFA3348008850F00200314971
:106E2000088000208DF800009DF80000002805D1A2
:106E30009DF80000401C8DF80000F5E72A48008806
:106E4000800703D500202949087035E0012108207A
:106E500000F064F90420019001A9254800F0B8FA77
:106E60002448008850F004002249088000208DF852
:106E700000009DF80000002805D19DF80000401C8E
:106E80008DF80000F5E71C480088400703D5012075
:106E90001649087002E002201449087000208DF89D
:106EA000080001A9124800F093FA124800884FF632
:106EB000FB7108400F4908800220019000208DF8E6
:106EC000080001A9064800F083FA064800884FF63A
:106ED000FD7108400349088007BD044800787047E9
:106EE0000010024014100240101002402404002040
:106EF000000C0240140C0240100C024010B50400BB
:106F0000E4B2002C08D0E4B2012C05D04FF4D271C9
:106F1000DFF8680400F01FFFE4B2DFF868040460E3
:106F200010BD10B50400E4B2002C08D0E4B2012C6E
:106F300005D040F2D511DFF8440400F00CFFE4B2B4
:106F4000DFF84404046010BDF0B4002100220023E7
:106F5000002400250026DFF820743F6817F00C0796
:106F600039000F00002F06D0042F15D0082F17D09E
:106F70000C2F19D042E0DFF808743F68C7F342379E
:106F80003E00012716F1010C17FA0CF74FF4004CE4
:106F90000CFB07F7076041E0DFF8F07307603DE0A6
:106FA000DFF8EC73076039E0DFF8CC733F6817F463
:106FB00070173A00DFF8C0733F6817F440073B00D2
:106FC000920CDFF8D073D25D9B0D5B1CDFF8A873C9
:106FD0003F6817F480373C00002C07D1DFF8AC7312
:106FE00007FB02F7B7FBF3F7076006E0DFF8A073D3
:106FF00007FB02F7B7FBF3F707600FE0DFF88073DA
:107000003F68C7F342373E00012716F1010C17FA1B
:107010000CF74FF4004C0CFB07F70760DFF85873D0
:107020003F6817F0F00739000909DFF86C73CF5D8E
:107030003D000768EF404760DFF83C733F6817F496
:10704000E0673900090ADFF85073CF5D3D004768FB
:10705000EF408760DFF820733F6817F4605739000E
:10706000C90ADFF83473CF5D3D004768EF40C76061
:10707000F0BC704738B504000025B4F5803F17D048
:10708000B4F5003F14D0B4F5403F11D0DFF80C0345
:1070900084420DD0DFF80803844209D0DFF80403EE
:1070A000844205D040F2E131DFF8D00200F053FE17
:1070B00014F44030B0F5403F0BD1DFF8B80200685F
:1070C000050035F0C04514F0C0400543DFF8A402C8
:1070D0000560DFF8D402006830F44030DFF8C812F1
:1070E0000860DFF8C402006814F440310843DFF898
:1070F000B812086031BD10B50400E4B2002C08D00D
:10710000E4B2012C05D040F20341DFF8700200F038
:1071100022FEE4B2DFF89402046010BD38B504002A
:107120000D00DFF88C02044201D1002C05D140F2A1
:107130002F41DFF8480200F00EFEEDB2002D08D01E
:10714000EDB2012D05D04FF48661DFF8300200F07A
:1071500002FEEDB2002D07D0DFF858020068204390
:10716000DFF85012086006E0DFF848020068A0432C
:10717000DFF84012086031BD38B504000D00DFF8BB
:107180003802044201D1002C05D140F25141DFF810
:10719000EC0100F0E0FDEDB2002D08D0EDB2012DC4
:1071A00005D040F25241DFF8D40100F0D4FDEDB239
:1071B000002D07D0DFF8040200682043DFF8FC113F
:1071C000086006E0DFF8F4010068A043DFF8EC1186
:1071D000086031BD38B504000D00DFF8E401044259
:1071E00001D1002C05D140F27C41DFF8900100F084
:1071F000B2FDEDB2002D08D0EDB2012D05D040F268
:107200007D41DFF8780100F0A6FDEDB2002D07D03A
:10721000DFF8B00100682043DFF8A811086006E03D
:10722000DFF8A0010068A043DFF89811086031BDC5
:1072300038B504000D00DFF88001044201D1002CB4
:1072400004D140F2BC414D4800F085FDEDB2002D67
:1072500007D0EDB2012D04D040F2BD41474800F007
:107260007AFDEDB2002D07D0DFF85C010068204305
:10727000DFF85411086006E0DFF84C010068A04315
:10728000DFF84411086031BD38B504000D004C48EA
:10729000044201D1002C04D140F2E441374800F00F
:1072A0005AFDEDB2002D07D0EDB2012D04D040F211
:1072B000E541324800F04FFDEDB2002D05D04348C6
:1072C000006820434149086004E040480068A0434A
:1072D0003E49086031BDF8B50400002500260027AE
:1072E000E4B2212C28D0E4B2312C25D0E4B2292CF0
:1072F00022D0E4B2392C1FD0E4B2492C1CD0E4B225
:10730000412C19D0E4B25A2C16D0E4B25B2C13D025
:10731000E4B25C2C10D0E4B25D2C0DD0E4B25E2C53
:107320000AD0E4B25F2C07D0E4B25E2C04D040F265
:10733000B651124800F00FFDE4B26009C0B205007A
:10734000012D03D10B480068060002E016480068D2
:107350000600E4B214F01F00050036FA05F0C0077D
:1073600002D50120070001E0002007003800C0B26C
:10737000F2BD0000003802400838024090090108C0
:107380000438024000004742800647420024F400CF
:1073900000127A00D0030020900300200000032098
:1073A000000003400000036034380240D806474222
:1073B000C06FFFFE1C380240E2ADFFFF20380240E4
:1073C000C8B5194F2438024014380240183802401A
:1073D0002DE9F04104000D00002600275FF00008B1
:1073E000DFF8A404844218D0DFF8A004844214D04B
:1073F000DFF89C04844210D0DFF8980484420CD05B
:10740000DFF89404844208D0DFF89004844204D06A
:10741000C121DFF88C0400F09EFC2868002804D10C
:10742000C221DFF87C0400F096FC287900280DD0FA
:10743000287901280AD02879022807D0287903283A
:1074400004D0C321DFF8580400F085FCE879002857
:107450000AD0E879012807D0E879022804D0C421AD
:10746000DFF83C0400F077FC00200600102E65D207
:107470000120B0400700286838408046B8455BD1FD
:10748000206803213200D2B252009140884320602C
:10749000206829793200D2B252009140084320601E
:1074A0002879012802D02879022835D16879002866
:1074B0000DD0687901280AD06879022807D0687948
:1074C000032804D0D821DFF8D80300F044FCA068DA
:1074D00003213200D2B2520091408843A060A068DC
:1074E00069793200D2B2520091400843A060A87975
:1074F000002807D0A879012804D0DF21DFF8A003F5
:1075000000F029FCA0880121B1408843A080A08818
:10751000A979B1400843A080E06803213200D2B2CB
:10752000520091408843E060E068E9793200D2B2CD
:10753000520091400843E060761C97E7BDE8F08177
:1075400070B504000D000026DFF83C03844219D01A
:10755000DFF83803844215D0DFF83403844211D0B9
:10756000DFF8300384420DD0DFF82C03844209D0C9
:10757000DFF82803844205D040F23911DFF82003F8
:1075800000F0E9FBADB2012D3AD0ADB2022D37D0FB
:10759000ADB2042D34D0ADB2082D31D0ADB2102D26
:1075A0002ED0ADB2202D2BD0ADB2402D28D0ADB213
:1075B000802D25D0ADB2B5F5807F21D0ADB2B5F527
:1075C000007F1DD0ADB2B5F5806F19D0ADB2B5F565
:1075D000006F15D0ADB2B5F5805F11D0ADB2B5F585
:1075E000005F0DD0ADB2B5F5804F09D0ADB2B5F5A5
:1075F000004F05D04FF49D71DFF8A40200F0ABFB03
:10760000208AADB2284202D00120060001E000200D
:1076100006003000C0B270BD10B50400DFF868028B
:10762000844219D0DFF86402844215D0DFF860028A
:10763000844211D0DFF85C0284420DD0DFF858029A
:10764000844209D0DFF85402844205D040F24F1141
:10765000DFF84C0200F07FFB208A10BD38B5040033
:107660000D00DFF82402844219D0DFF820028442A2
:1076700015D0DFF81C02844211D0DFF818028442D2
:107680000DD0DFF81402844209D0DFF810028442E2
:1076900005D04FF4C471DFF8080200F05CFBADB216
:1076A000002D05D140F28911DFF8F40100F053FB01
:1076B000258331BD38B504000D007348844213D0D2
:1076C0007248844210D0724884420DD0714884427E
:1076D0000AD07148844207D07048844204D040F2F6
:1076E0009B116F4800F037FBADB2002D04D14FF471
:1076F000CE716B4800F02FFB658331BD2DE9F04161
:1077000004000D00160000275FF000085E48844268
:1077100013D05E48844210D05D4884420DD05D484D
:1077200084420AD05C48844207D05C48844204D03A
:1077300040F209215A4800F00EFBADB2002D31D0C5
:10774000ADB2012D2ED0ADB2022D2BD0ADB2032D96
:1077500028D0ADB2042D25D0ADB2052D22D0ADB2CA
:10776000062D1FD0ADB2072D1CD0ADB2082D19D0FB
:10777000ADB2092D16D0ADB20A2D13D0ADB20B2D7E
:1077800010D0ADB20C2D0DD0ADB20D2D0AD0ADB2D2
:107790000E2D07D0ADB20F2D04D040F20A21404883
:1077A00000F0D9FAF6B2002E46D0F6B2002E43D041
:1077B000F6B2002E40D0F6B2002E3DD0F6B2002E2A
:1077C0003AD0F6B2002E37D0F6B2012E34D0F6B24F
:1077D000022E31D0F6B2022E2ED0F6B2032E2BD0CE
:1077E000F6B2032E28D0F6B2032E25D0F6B2042E20
:1077F00022D0F6B2042E1FD0F6B2052E1CD0F6B25F
:10780000052E19D0F6B2072E16D0F6B2072E13D0D9
:10781000F6B2072E10D0F6B20A2E0DD0F6B20B2E0D
:107820000AD0F6B20E2E07D0F6B20F2E04D040F2D8
:107830000B211B4800F08FFAF6B215F00700C0B21A
:10784000800016FA00F00700ADB2E81014EB8000DB
:10785000ADB2E91014EB8101096A0F2215F007039C
:10786000DBB29B009A4091430162ADB2E81014EB89
:107870008000006A38438046ADB2E81014EB800007
:10788000C0F82080BDE8F081000002400004024002
:1078900000080240000C02400010024000140240A8
:1078A0005C07010810B50400DFF8A002844208D08C
:1078B000DFF89C02844204D08D21DFF8980200F0AA
:1078C0004AFADFF8880284420AD101214FF480503D
:1078D000FFF7AEFC00214FF48050FFF7A9FC0DE04C
:1078E000DFF86C02844209D101214FF48040FFF798
:1078F000CBFC00214FF48040FFF7C6FC10BD70B5F3
:1079000004000D000026DFF84402844208D0DFF8AE
:107910004002844204D0AF21DFF8380200F01BFAA5
:107920002888002810D02888B0F5806F0CD02888CF
:10793000B0F5004F08D02888B0F5404F04D0B221F0
:10794000DFF8100200F007FA6888B0F5827F07D0F0
:107950006888002804D0B321DFF8F80100F0FBF9B3
:10796000A888B0F5006F07D0A888002804D0B421FB
:10797000DFF8E00100F0EFF9E888002807D0E88898
:10798000022804D0B521DFF8CC0100F0E4F9288901
:10799000002807D02889012804D0B621DFF8B401D7
:1079A00000F0D9F96889B0F5007F07D06889002810
:1079B00004D0B721DFF89C0100F0CDF9A889002898
:1079C00019D0A889082816D0A889102813D0A8890A
:1079D000182810D0A88920280DD0A88928280AD0D6
:1079E000A889302807D0A889382804D0B821DFF822
:1079F000640100F0B0F9E889002807D0E889802800
:107A000004D0B921DFF84C0100F0A5F9288A00283C
:107A100004D1BA21DFF83C0100F09DF9208806006E
:107A200016F44156288869880843A9880843E988DC
:107A300008432989084369890843A9890843E989D2
:107A4000084306432680288A208270BD38B504008A
:107A50000D00DFF8F800844208D0DFF8F40084421B
:107A600004D0FB21DFF8EC0000F075F9EDB2002D39
:107A700007D0EDB2012D04D0FC21DFF8D80000F0D2
:107A80006AF9EDB2002D04D0208850F0400020802B
:107A900004E020884FF6BF710840208031BD10B54A
:107AA0000400DFF8A800844209D0DFF8A400844273
:107AB00005D04FF4C671DFF89C0000F04CF9A089A6
:107AC00010BD38B504000D00DFF88000844209D0F5
:107AD000DFF87C00844205D040F29B11DFF874008F
:107AE00000F039F9A58131BD70B504000D00002604
:107AF0001648844207D01648844204D040F2EB2155
:107B0000144800F028F9ADB2802D13D0ADB2402D4D
:107B100010D0ADB2202D0DD0ADB2102D0AD0ADB227
:107B2000022D07D0ADB2012D04D04FF43B710948AE
:107B300000F011F92089284202D00120060001E05E
:107B4000002006003000C0B270BD000000300140CF
:107B500000380040080B010810B582B00400200076
:107B6000C0B2FEF7B3FC00900248BDF800100180DF
:107B700013BD00BF841300204268C2F30A5240F2D2
:107B8000FF739A4209D14168090304BF00680028C5
:107B900001D1012070470220704743685B0004BF99
:107BA0000368002B25D040F233439A1A521A012A57
:107BB0001FDB352A06DB416801F0004141600021EE
:107BC000016013E0012102F01F039940491E920653
:107BD00007D5426811404A404260026811430022C2
:107BE00002E0026811404A40026011B14FF0FF30DC
:107BF000704700207047000080B54FF440515FF09F
:107C0000006000F02DF901211F20FFF787FA00F036
:107C100053F900F05EF900F055F900F083FB00F035
:107C200001FBFFF7E1F8002000F09CFB002000F0D2
:107C3000F8FB012000F096FB022000F093FB0320EC
:107C400000F090FB042000F08DFB0121012000F0EA
:107C50003FFC0121042000F03BFC0121032000F047
:107C600037FC0121002000F033FC0221042000F049
:107C7000EDFC00F0F0FF00F0E1FD00F0ECFE3B4910
:107C80000D2000F058FF01F003F800F0A2FDFEF710
:107C9000F5F901F039F87020FFF75EFFFEF7ABFE53
:107CA00001F073FE00F08EFD0121032000F0CEFCF8
:107CB00001230F220F21032000F056FD00F02BF8C6
:107CC000022002F075F94FF4807002F0E2FF002309
:107CD0000F220F21012000F047FD002024490870E9
:107CE000002024490880002001F0A8FF22480068F5
:107CF000052803D1032000F094FBF7E7032000F0F0
:107D0000B5FBF3E7704701201C490860704701206C
:107D10001B4908607047E0B501F004FF194800688E
:107D2000029002A802F0D2FF17480068019001A853
:107D300002F0CCFF15480068009000A802F0C6FFD2
:107D40000121012000F082FC00230F220F210120DD
:107D500000F00AFD07BD38B504000D002A0021001F
:107D60000B4803F03DF8FEE70000000033335340BA
:107D7000E9130020C61300209C13002030130020BC
:107D8000341300201C1601082016010824160108CF
:107D90003013010810B50400B4F5E06F0FD0B4F54E
:107DA000C06F0CD0B4F5A06F09D0B4F5806F06D0C9
:107DB000B4F5407F03D078213648FFF7CCFF364832
:107DC00020433649086010BDF8B5040000250026A0
:107DD0000F27E078002806D0E078012803D08C2116
:107DE0002C48FFF7B8FF6078102803DB8D21294865
:107DF000FFF7B1FFA078102803DB8E212548FFF79D
:107E0000AAFFE078002820D02448006810F4E06041
:107E1000D0F5E060000A0500D5F104000600EF404F
:107E20006078B0400500A078384005432D012078E7
:107E30001B4945540120217811F01F018840217809
:107E40004911184A42F8210009E00120217811F077
:107E50001F01884021784911134A42F82100F1BDE1
:107E600038B504000D00B4F1005F06D0B4F1006F26
:107E700003D0B5210748FFF76EFF0C48854203D3B6
:107E8000B6210448FFF767FF094828402043094905
:107E9000086031BD140E01080000FA050CED00E089
:107EA00000E400E000E100E080E100E0FFFF01000D
:107EB00080FFFF1F08ED00E080B501210120FFF7E2
:107EC0005BF901BD80B501215FF40000FFF782F985
:107ED00001BD80B54FF4C060FFF75CFF14208DF842
:107EE000000001208DF8010000208DF80200012023
:107EF0008DF8030000A8FFF767FF26208DF800002B
:107F000000208DF8010000A8FFF75EFF01BD10B54D
:107F10000400E4B2002C03D0012002F073FF02E061
:107F2000002002F06FFF10BD80B54FF41650DFF84F
:107F3000A01308600020DFF8981388800020DFF885
:107F40009013C8804FF4C060DFF8841308810020CC
:107F5000DFF87C1388810C20DFF874134881DFF888
:107F60007013002002F0F0FF012240F22551DFF8EB
:107F7000640303F088F901BD80B5DFF85C03007984
:107F8000002803D002280CD005D310E00020DFF831
:107F90004013C8800FE04FF44050DFF83413C8801E
:107FA00009E04FF40050DFF82813C88003E0FFF722
:107FB000BBFF002049E0DFF820034079002803D010
:107FC00002280CD005D310E00020DFF8041308814C
:107FD0000FE04FF48060DFF8F812088109E04FF4F9
:107FE000C060DFF8EC12088103E0FFF79DFF00207E
:107FF0002BE0DFF8E4028079072802D0082804D0BB
:1080000010E00020B249888010E0B14800890028C3
:1080100003D10020AE49888003E04FF48050AC4982
:10802000888003E0FFF780FF00200EE0AA48006888
:10803000A74908600020A64988810C20A4494881EE
:10804000A349002002F080FF012002BD38B5A348FB
:108050000078012800F08680A1480068402802D1FD
:1080600000209F4908609E4800689E490968884230
:1080700007D09D480078042803D09B480078062844
:1080800003D10020954908706CE096480068944937
:108090000968884206D292480068D0F140009349AE
:1080A000086006E08F4800688D490968401A8F49CA
:1080B00008608E48006841280FD389480068040092
:1080C00040200500864800684030854908608748A0
:1080D00000684038854908600FE081480068040066
:1080E0008248006805007E480068804909680818D1
:1080F0007B49086000207D490860012077490870AD
:108100002A0092B2C021A4B27948201803F006FADE
:10811000290089B2012003F03FFB012003F089FA16
:1081200071480078022808D103206F4908700120A7
:108130007049087004F049F814E06B48007803288F
:1081400006D104206849087000206A49087009E0D7
:1081500065480078072805D106206349087000208B
:108160006449087031BD80B55B488079072809D122
:10817000584803F070F810F07F005A4909685C4ACB
:1081800088540AE054488079082806D1514803F001
:1081900062F854490968564A885452480068401C9D
:1081A000504908604F480068402802D100204D49DE
:1081B000086001BD70B55048006804004F48006871
:1081C00005004F48006806003419002C09D0082229
:1081D0004C49200000F006F804224B49280000F02A
:1081E00001F870BD30B4002300242300DBB2D2B20A
:1081F000934215D2040F0A2C05D2040F3034DBB29F
:1082000001F8134004E0040F3734DBB201F81340E7
:1082100000010024DBB211EB43056C705B1CE5E749
:1082200030BC704710B582B000208DF800000020EF
:108230008DF8010000208DF80200002004F092FA71
:1082400043F2F221884214D000F021F82F48006850
:108250002F4948602F4800682D49886000202C492C
:1082600008602B4804F07CF80400009800F054F8F3
:108270000CE0012004F0E8FA04F002F94FF48070F9
:1082800004F0ABFA5FF4003002F003FD13BD80B5DB
:10829000012004F0D9FA0120FEF743FE4120FFF748
:1082A0001AF80028FAD05FF40030FEF7E3FEFF2052
:1082B000184908607F20154908600120FEF71BFF60
:1082C00004F0DEF800214FF4807004F0EBF901BDFA
:1082D000EC12002000440040DC030020CC130020FE
:1082E0002813002024130020E71300202C13002063
:1082F00010120020E41300205000F81F5400F81F53
:108300006400F81F3E0300204E03002008130020E5
:10831000FC1200202013002001B500A9002004F069
:10832000E4F801BD80B50948094908600220084900
:108330000968087207480849086008480849086041
:10834000054800680068804701BD00BFD0120020CA
:10835000901300208002002094130020D8020020F7
:10836000981300201CB50400FEF7B7FD1421524AF3
:1083700001FB002051490860FEF7AFFD0A21504A79
:1083800001FB00204F490860FEF7A7FD14214E4A6B
:1083900001FB00204D4908600121E4B24B48006810
:1083A00050F82400FEF7BAFEE4B24648006830F800
:1083B0001400009001208DF8040000208DF80600C4
:1083C00000208DF8070003208DF8050000A9E4B215
:1083D0003A48006850F82400FEF7FAFFFEF77DFDEA
:1083E000002803D0FEF779FD01280AD1E4B2354810
:1083F000006830F81400E4B23049096851F82410DC
:108400000883FEF76AFD02280AD1E4B22D4800680D
:1084100030F81400E4B22949096851F8241048835F
:1084200013BD10B50400FEF758FD002803D0FEF779
:1084300054FD01280AD1E4B22248006830F8140043
:10844000E4B21E49096851F824104883FEF745FD3F
:1084500002280AD1E4B21B48006830F81400E4B2E4
:108460001649096851F82410088310BD10B504009E
:10847000FEF733FD002803D0FEF72FFD01280AD1B7
:10848000E4B21048006830F81400E4B20B490968FF
:1084900051F824100883FEF720FD02280AD1E4B227
:1084A0000848006830F81400E4B20449096851F83B
:1084B0002410488310BD0000100200205413002037
:1084C000E014010858130020F41201085C13002086
:1084D00030B585B004000D00FEF7FFFC1C214D4AAD
:1084E00001FB00204C490860FEF7F7FC0E214B4AC7
:1084F00001FB00204A490860FEF7EFFC1C21494AB5
:1085000001FB002048490860FEF7E7FC0E21474ABE
:1085100001FB002046490860FEF7DFFC0E21454ABA
:1085200001FB002044490860FEF7D7FC0E21434AB6
:1085300001FB002042490860FEF7CFFC0E21414AB2
:1085400001FB0020404908600121E4B23648006880
:1085500050F82400FEF7E2FD01210120FEF70CFE99
:1085600000208DF8100000208DF81300E4B22C4894
:10857000006830F81400039003A9E4B226480068AC
:1085800050F82400FEF724FFEDB2012D40D1E4B2F3
:108590002B48006830F81410C9B2E4B226480068CD
:1085A00030F81400C0B202F04FFCE4B2204800687A
:1085B00030F81400019000208DF80800E4B2002C7F
:1085C00003D00C208DF8090002E008208DF8090086
:1085D00001208DF80A0001A802F090FAE4B21A48CE
:1085E000006830F814008DF800000F208DF80100AD
:1085F00000208DF8020001208DF80300E4B20C4841
:10860000006830F8140002F044FB00A8FFF7DCFB20
:1086100005B030BDFC0000203813002060130108B5
:108620003C1300205C120108401300208C13010849
:1086300044130020B813010848130020E413010874
:108640004C13002010140108501300207FB50400C3
:108650000D000026E4B2002C0FD0E4B2012C0CD0A7
:10866000E4B2022C09D0E4B2032C06D0E4B2042C0C
:1086700003D0F4216048FFF76EFBEDB2002D09D066
:10868000EDB2012D06D0EDB2022D03D0F5215A48EE
:10869000FFF761FBFEF721FC0121E4B2C0B24010FC
:1086A0001422564B02FB003050F82400FEF736FD32
:1086B00001210120FEF760FDEDB2022D03D1012062
:1086C0008DF8040002E000208DF80400E4B24C486C
:1086D000205C8DF80700E4B24A48205C8DF8050064
:1086E000E4B24948205C8DF80600E4B2474830F80F
:1086F00014000090FEF7F1FB00A9E4B2C0B24010F4
:108700001422434B02FB003050F82400FEF760FEB9
:10871000E4B2404850F824000290E4B23E48205CA5
:108720008DF80C00E4B23D48205C8DF80D008DF80A
:108730000E60EDB2012D10D1FEF7CFFBE4B2384947
:10874000615CE4B2C0B24010364A12EB8000205C9B
:1087500002F07AFB01208DF80E00E4B2042C02D066
:1087600002A802F0CBF97FBDF8B504000D00160099
:108770001F00E4B22C48205C8DF800008DF80150F9
:108780008DF802608DF8037000A8FFF71DFBF1BDA6
:1087900010B50400FEF7A1FBE4B2C0B240101421F2
:1087A0001B4A01FB002050F82400FEF735FF0100B2
:1087B000E4B2164830F81400014201D0012000E074
:1087C000002010BD80B54FF400511848FEF746FF59
:1087D00001BD80B54FF400511448FEF76BFF002037
:1087E00000900098B0F5F05F03D20098401C009014
:1087F000F7E701BD000000007C0F01083C140108F0
:10880000F4150108EC150108FC150108C81501084C
:10881000B002002088150108381601083C1601082E
:108820003416010804160108401601080008024029
:1088300080B50420FFF7ACFF02BD000000B587B093
:10884000FEF74BFB00284BD101215FF48000FEF7BF
:10885000C1FC01210220FEF761FC04220A21DFF89D
:108860004404FEF74BFF04220B21DFF83804FEF727
:1088700045FF4FF44060009003208DF80500022072
:108880008DF8040001208DF8060000208DF8070007
:1088900000A9DFF81004FEF79BFDDFF80C0403F0DD
:1088A000E7FF0020ADF80C004BF6FF70ADF80E00AE
:1088B000A020ADF810004FF48060ADF812004FF426
:1088C0008040ADF81400DFF8E403029002A9DFF85D
:1088D000D80303F0F6FF0121DFF8CC0304F0BFF862
:1088E00007B000BD38B504000D005FF40031DFF8BB
:1088F000B80304F0F3F9002810D0DFF8B4030088BF
:10890000401EDFF8AC13088080B20028EDD14FF68E
:10891000FF70DFF89C13088000209BE00121DFF846
:10892000880304F0C7F8DFF88C13DFF87C0304F049
:1089300054F9002810D1DFF880030088401EDFF8CA
:108940007813088080B20028EDD14FF6FF70DFF871
:108950006813088000207DE00022E4B2DFF85C03A9
:10896000215CDFF8440304F0FBF8DFF85413DFF870
:10897000380304F032F9002810D1DFF848030088EA
:10898000401EDFF84013088080B20028EDD14FF67A
:10899000FF70DFF83013088000205BE00021DFF873
:1089A000080304F006F9DFF82013DFF8FC0204F0F6
:1089B00095F9002810D1DFF814030088401EDFF875
:1089C0000C13088080B20028EDD14FF6FF70DFF85D
:1089D000FC12088000203DE02900C9B2DFF8C8027F
:1089E00004F0E7F8DFF8E012DFF8BC0204F076F9F3
:1089F000002810D1DFF8D8020088401EDFF8D0121E
:108A0000088080B20028EDD14FF6FF70DFF8C01269
:108A1000088000201EE0DFF8BC12DFF88C0204F0B2
:108A20005DF9002810D1DFF8B0020088401EDFF8A1
:108A3000A812088080B20028EDD14FF6FF70DFF851
:108A400098120880002005E00121DFF85C0204F0A4
:108A50005CF8012032BD00B589B0FEF73EFA00286F
:108A600031D101214FF40070FEF786FB0121042073
:108A7000FEF754FB3B20009003208DF805000020FA
:108A80008DF8040001208DF8060000208DF8070005
:108A900000A9DFF84802FEF79BFC00208DF80C00CF
:108AA00000208DF80D00002005900020049000208B
:108AB000069001208DF81C000020029002A9DFF82A
:108AC000200204F0BFF909B000BD38B5040040F63B
:108AD000E125FEF702FA00282AD104230122210011
