:020000040800F2
:10000000800B0020E91E0008851E0008871E0008DE
:10001000891E00088B1E00088D1E000800000000CD
:100020000000000000000000000000008F1E00081B
:10003000911E000800000000931E0008951E000895
:10004000051F0008091F00080D1F0008111F0008E8
:10005000151F0008191F00081D1F0008211F000898
:10006000251F0008291F00082D1F0008311F000848
:10007000351F0008391F00083D1F0008411F0008F8
:10008000451F0008491F00084D1F0008511F0008A8
:10009000971E0008551F0008591F00085D1F000823
:1000A000611F0008651F0008691F00086D1F000818
:1000B000711F0008751F0008791F00087D1F0008C8
:1000C000811F0008851F0008891F00088D1F000878
:1000D000911F0008951F0008991F00089D1F000828
:1000E000A11F0008A51F00089B1E0008A91F0008EB
:1000F000AD1F0008B11F0008B51F0008B91F000898
:10010000BD1F0008C11F0008C51F0008C91F000847
:10011000CD1F0008D11F0008D51F0008D91F0008F7
:10012000DD1F000810B5DFF8784700B92BE000F0BC
:1001300099F80068804720680A3010BD80B5DFF864
:100140006007DFF8602700685278C1788A420CD3D4
:100150008278002A04BF8288002A06D1817200F0CA
:1001600081F840688047002002BD022002BD10B522
:10017000DFF82C4700B906E000F074F8806880478B
:1001800020680C3010BD216801200882002010BDBD
:1001900010B5DFF80C47DFF8102720681268C17827
:1001A00040799269904721688A7A92B1002804BF09
:1001B000087900280DD1887858B900F053F8C06844
:1001C000804720684179C1722068C178017300209E
:1001D00010BD022010BD10B5DFF8C416096810B9B3
:1001E000022008823CE0DFF8C44600202080002284
:1001F00008787F23184215D1487A81064CBF42F017
:10020000020102F0FD0121704006217854BF01F087
:10021000FE0041F00100207000F024F800698047E2
:10022000204610BD00F07F03012BF9D000F07F00C5
:10023000022815D14879DFF8783600F00F01000662
:1002400053F8210042F0010205D500F030001028DB
:10025000E2D12270E0E700F44050B0F5805FF7E7AC
:10026000002010BDDFF84C0600687047F8B5DFF8D5
:1002700030060068017811F07F0104D1417A01F065
:10028000DF0141724FE0022901BF41880029017955
:1002900000294AD14179DFF81846DFF8083621F005
:1002A00080050A0654F825201B784CBF02F0300266
:1002B00002F440529D4238D2002A1CBF807A0028A6
:1002C00033D0080654F825000BD500F03000102874
:1002D00025D1284600F060FB3021284600F014FBB1
:1002E0001DE000F44050B0F5805F18D148F2800660
:1002F0004BF68F7745B900F0ADFA2068384080F4AE
:100300004050304320600AE0284600F033FB54F8A8
:100310002500384080F44050304344F82500FFF772
:10032000A1FF406980470020F2BD0220F2BD38B530
:10033000DFF86C05DFF878150268DFF86855537947
:1003400023F080001C0651F820402D784CBF04F0AB
:10035000300404F44054A84206D2558825B9002C34
:100360001CBF927A002A01D1022032BD1B0651F82F
:10037000203048F2800205D548F6BF74234083F050
:10038000100304E04BF68F74234083F480531A4328
:1003900041F82020FFF766FF80698047002032BDCA
:1003A00080B5DFF8FC040068417A41F02001417219
:1003B000FFF758FFC0698047002002BDDFF8E02446
:1003C0001268538A20B98888C01A108200207047AA
:1003D0000868181870472DE9F843DFF8C444DFF8BF
:1003E000D854206800F110063188002904BF007A33
:1003F000042810D1DFF8C4040178012907D100F0E6
:1004000096F8042730212980002101702CE010206B
:100410000727288028E0B6F80480884505D30427FC
:10042000414588BF4146884600E00227B168404602
:1004300088478146002000F0C0FA014642464846FF
:1004400000F007FB4146002000F0BFFA3088DFF8DB
:100450007014A0EB08003080708840447080302019
:1004600028804FF44050088020680772BDE8F1836F
:1004700038B5DFF82C442068017845787F22114296
:1004800031D1092D02D1FFF759FE40E0052D14D1DD
:10049000C178802949DA8178002901BF8188002943
:1004A000807A002841D100F042F83021DFF808249A
:1004B000062011802168087231BD032D08D1C17852
:1004C000012904BF8088002823D1FFF769FF1EE0BF
:1004D000012D04BFC17801291BD18188C9B9407A97
:1004E00080060DD415E001F07F00012804D10B2D0A
:1004F0000FD1FFF74DFE0AE002280AD1012D02D1EB
:10050000FFF7B4FE03E0032D03D1FFF710FF00282F
:10051000C9D0DFF894130968496928468847032839
:1005200008BF0920C6D00028BDD00820C2E7DFF8E8
:100530009423DFF894331268002192B243F812102A
:10054000704738B5DFF85853DFF85C4328684178C6
:10055000062913D101787F2211422AD180780128FF
:1005600002D12068C16969E0022802D12068016ACD
:1005700064E003281DD12068416A5FE000293ED174
:100580004188002904BFC188022912D1017981B9AB
:1005900001787F22114204BF8288002A2DD001F009
:1005A0007F02012A0FD100F08BF810B92868807AF9
:1005B00018BB28682168407809698847032846D114
:1005C0002968092051E001F07F010229F1D1407929
:1005D000B74B00F00F0100F07002000653F8210045
:1005E000B04B1B784CBF00F0300000F440509942F3
:1005F000DFD2002ADDD10028DBD0B4491EE0082973
:1006000005D100787F210842D3D1B14916E00A29EB
:1006100002BF017801F07F010129CAD1817A002946
:10062000C7D04188002901BF01790029C18801296B
:10063000BFD100F045F80028BBD1A6490800B8D0CA
:1006400028680022428281610020884700202968B2
:100650000B8A1A464FF6FF75AA4208BF092004D03C
:10066000022818BF002B02D10820087231BD08787B
:1006700000061ED5C88800902468009D9D4202D2C5
:10068000009808820FE083420DD294F82C008B4D25
:10069000834238BF002005D392FBF0F300FB132008
:1006A00008B90120287094F82C008882BDE83140F8
:1006B00091E6032008724FF440508149088031BD13
:1006C0002268407992690021104738B57D48744C02
:1006D0000068814980B231F8100021680A7A400030
:1006E00000F18040092A00F5C04012D002780A705B
:1006F000051D22684178517035F8040B00F0A4F90B
:1007000021684880288800F09FF921688880A8889F
:10071000C8800120216808722068C08810B9FFF7DE
:10072000A7FE01E0FFF70DFFBDE831407CE010B50A
:1007300000F096F818BF042904D1FFF74CFE20689A
:10074000007A14E0062911D14178052902BF017809
:100750007F22114206D1C07800F087F8FFF782FDB2
:10076000006A8047504800688068804708202168F8
:100770000872BDE8104057E0F8B500F071F818BFF6
:1007800004294CD0032918BF052942D100F11005D6
:10079000A9682E88080018BF002E14D0A8888642A9
:1007A00088BF06463046884707462888801B288031
:1007B000688830186880002000F000F90146324651
:1007C000384600F059F928883B4E48B13C494FF46F
:1007D000405008800021002000F0F7F830203080E1
:1007E0002888AA882168904228BF032001D210B12E
:1007F000052008720AE00620087200203149324ABA
:10080000096889B242F81100302030802068007AEF
:1008100006E0072903D124480068C0688047082003
:1008200021680872BDE8F14080B500F013F81C485B
:100830000068017A082906D1214A4FF480511180BD
:1008400010211D4A1180007A092801D1012002BD22
:10085000002002BD214890F82C10002000F0BCB808
:100860000F4C2068017A0229704770B50D49104B72
:100870000978002248F68F760BE0D4B253F8245062
:100880003540254345F4004545F0800543F82450A4
:10089000521C8A42F1D3124940F08000086070BDBA
:1008A00038070020140300203C07002070070020B8
:1008B000005C004040070020760700207A070020F7
:1008C00074070020505C004004600040D70100081D
:1008D000250100086F01000808600040B4010020F5
:1008E0004C5C0040704750F8041B61B150F8042B79
:1008F000D30744BFA9F101039A180023091F42F846
:10090000043BFAD1EFE7704710B500F013F848F652
:10091000BF742340CC0648BF83F01003890648BF4C
:1009200083F02003FFE743F4004141F0800142F8E7
:10093000201010BDDFF8FC2052F820307047DFF89F
:10094000F41051F820204BF68F731A4082F4405275
:1009500042F4004209E0DFF8DC1051F8202048F6AC
:100960008F631A4042F40042FFE742F0800241F8F0
:1009700020207047DFF8BC1051F8202052040AD51F
:1009800051F8202048F68F731A4042F4404242F05A
:10099000800241F820207047264951F82020520655
:1009A0000AD551F8202048F68F731A4042F40042CD
:1009B00042F0C00241F8202070472EE01C4909682F
:1009C00089B201EBC0001C492DE0194A126892B2AD
:1009D00002EBC000194A1DE0154A126892B202EB00
:1009E000C000174A3F2902EB400009DB4A091F23D8
:1009F000194208BF521E1204910941F4004105E05A
:100A00004A08C90748BF521C120491090160704787
:100A10004908490042F8101070470549096889B231
:100A200001EBC000074951F8100080B27047000088
:100A3000505C0040005C00400860004004600040E2
:100A40000C600040006000400106090C41EA1020E3
:100A5000704710B5490001F18041521C01F5C041B9
:100A6000521007E00378447843EA0423801C21F8FD
:100A7000043B521EF6D110BD490001F18041521CC9
:100A800001F5C041521004E051F8043B20F8023B4C
:100A9000521EF9D17047000080B500F08BFADFF8E4
:100AA00048140020887200F0B9FA00F01FFBDFF84C
:100AB0003C140020086001BD38B5DFF82C14DFF8C5
:100AC0003044DFF83024DFF8305400208872DFF83B
:100AD0002C14DFF82C040968C079487248F68F118D
:100AE000002020652068084040F40070206048F62F
:100AF000BF712068084080F0200040F4004040F0C2
:100B0000800020601020216D00F018F8FFF764FFCE
:100B1000216DDFF8F023502000F010F8FFF755FFAB
:100B20000020FFF718FF0020FFF709FF0020FFF764
:100B30009CFEDFF8B8130120086031BD89B242F88D
:100B40001100002095F82C107047DFF89C03807A84
:100B500018B1DFF89813052008607047DFF88C1390
:100B60000420086070477047DFF87C034078032852
:100B700000D0704770B5DFF890432078042835D155
:100B8000DFF8885369682868F0B9DFF884030278D1
:100B9000002A08BF01291FD04378867803EB06237B
:100BA000C678007903EB0643212A03EB006003D1EA
:100BB000052911D1E8600FE0412A08BF05290BD1B2
:100BC000E86000F0A6FA07E0022805D3EA68801E74
:100BD00002EB802000F0A9FA002068602860032161
:100BE00003202070CB4800F0F4F870BD072804BF44
:100BF000BDE8704000F05DB970BD80B5BF490968BF
:100C00000A7802F07F02212A21D1BF4A13780228F4
:100C100008D1022B18BF092B19D10FF22512100091
:100C200017D114E0012808D1022B18BF052B0ED1D3
:100C3000032010700FF2A912F1E7052808BF0FF288
:100C4000D912ECD0032808BF0FF2E112E7D002203E
:100C500002BD00208A6148829047002002BD10B585
:100C6000A6490968097801F07F0121293CD1A64BEA
:100C7000A8491C78A54A012809D1052C18BF022CC7
:100C800032D19060062000F03AF8062004E00228F5
:100C900004D100F034F80220087123E004280FD1B9
:100CA0000A2C02D100F022F806E00A2018700E206B
:100CB000087000F025F80A2008710020487111E042
:100CC000062811D1022C18BF032C04D0052C1CBF00
:100CD000062C092C06D100F009F808710020487193
:100CE00010605060002010BD022010BD022018705E
:100CF0000020087048708870C87002207047187013
:100D0000002048708870C87070478349FFF756BB51
:100D10008249FFF753BB79490968C978092901DB82
:100D2000002070477E4A02EBC101FFF747BB042950
:100D3000B8BF032801DB0220704700207047000085
:100D4000F8B5044668488178C278704D6B4EDFF87C
:100D5000B8C112EB01232B60C179807900EB01212E
:100D6000696032686B48578A13D104292CBF02216D
:100D700009218CF800109CF8001000F02AF8644853
:100D8000017021214170412181700CBB0320108230
:100D900014E0022B16D309228CF8002002710022E5
:100DA00042708270C270981EEA6802EB802000F0E8
:100DB000C8F92CB968683168C01B08820020F2BDF0
:100DC0003818F2BD0F218CF8001000F002F8002056
:100DD000F2BD0171002141708170C1707047000047
:100DE00010B5414A9378D478484904EB03230B604B
:100DF0009479D37904EB03234B60518A424C03224C
:100E00002270444C227118B9581A00F04DF810BDE8
:100E10003F48081810BD000028B93849096801206A
:100E200008820020704738487047000038B50446F3
:100E30003548384D02783549032A02D0062A16D0A3
:100E40002BE04A688AB1042202702A71C8680968D6
:100E5000002902BF2E490978412907BF2A460021EF
:100E60002A46012100F086F917E005210FE08A6883
:100E7000012A06D107210170012068702971002024
:100E800009E052B90969097D490706D502210170B7
:100E9000002029716870A870E8701CB9062000F065
:100EA00003F832BD284632BD144909680882002083
:100EB00070471649144A0020886009691548097D61
:100EC000490707D506211170017100214170817019
:100ED000C17070470821117001710021417081704B
:100EE000C17000F057B800001C0700206807002000
:100EF000005C004008600040B4010020380700207A
:100F000058020020006000404C070020C80200206A
:100F10001C0300204407002008030020D802002002
:100F20000C02002080B50121012000F03AF900F008
:100F300051F901214FF4000000F03CF94FF4C0607A
:100F400000F0FAF914208DF8000001208DF801005E
:100F500000208DF8020001208DF8030000A800F0A9
:100F6000F0F900F0D1F8012000F003F800F020FAC9
:100F700001BD00B1012000F02BBA18490320086020
:100F8000704717491548897A002914BF05210121A6
:100F90000160704780B50020FFF7EBFFBFF34F8F74
:100FA0001048114A016801F4E06111430160BFF388
:100FB0004F8FFEE738B50D48446801684069401816
:100FC0000BD00B4D0822A91C00F014F805F11201FA
:100FD0002046BDE8384004220CE031BD68070020FF
:100FE0001C0700200CED00E00400FA055000F81F7B
:100FF0007402002030B5002307E001F8134001EB34
:101000004305002400016C705B1C934205DA040F59
:101010000A2C34BF30343734EFE730BD80B50120BF
:10102000FFF7A7FF2E482F4A012101600021016030
:1010300041604FF4E05111800160002002BD28485A
:10104000016841F0080189B20160016841F00401C2
:1010500089B20160FFF791BF10B5214C20684FF6AF
:10106000FB7108402060FFF78CFF4FF43F40206089
:1010700010BD000010B51C4C072818BF2070217847
:101080001748052929D8DFE801F00306090D141EC9
:10109000FFF7E2FF21E0FFF7DFFF08E002206070CA
:1010A00003201BE06078401E60706078B8B90420AF
:1010B00014E0016841F0100189B201600520207040
:1010C0000A20607010BD6178491E6170617831B985
:1010D00001684FF6EF72114001600620207010BDCC
:1010E000405C0040780700206C0700200448054A57
:1010F000002141604FF43F411180016000207047A2
:10110000405C00407807002080B500F085F90020A1
:1011100002BD00F07C41B1F1006F04D10F4A1049CB
:10112000116000F07BB90120704700F07C42B2F101
:10113000006F04D10B4B0C4A1A6000F07AB9012001
:10114000704700F07C42B2F1006F04D1074B084AAF
:101150001A6000F0B1B90020704700005C07002061
:101160001D140008600700203314000864070020E5
:10117000B914000801F001000FF2100131F810005D
:101180005070000A90700020D070704764006800B2
:101190000D4A0029116814BF084321EA00001060BD
:1011A00070470A4A0029116814BF084321EA000069
:1011B00010607047064A0029116814BF084321EAED
:1011C00000001060704700001C38024020380240C8
:1011D0002438024010B5DFF82C412068800707D57D
:1011E00000F023F8DFF82001E060DFF82001E06084
:1011F00010BD38B5054600F06AF8042814D1414CFA
:10120000206840F400702060206840F008002060F2
:101210000020286000F05BF8216821F008012160BF
:10122000216821F40071216032BD36480168C90788
:1012300003D537498160374981607047314801687B
:1012400041F001010160704710B5044600F03FF81D
:10125000042804BF0021216010BDC900884026EA8F
:101260000001284670472748016821F48071016019
:10127000704738B500F029F8042802D1FFF7F3FFD2
:1012800000E032BD25604FF40040BDE8324045E04B
:1012900070B500F01AF804280BD105B10FE000F08A
:1012A00009F804F00301FF20FFF7D7FFBDE8704005
:1012B000DFE770BDA508AD0028462E68C4E725709D
:1012C0004FF40040BDE8704028E004460D464FF45E
:1012D000004023E01049086070470F490A68042065
:1012E000D20701D5012070470A68D20501D5022036
:1012F000704709684FF6F062114218BF032070472B
:1013000000000000043C0240BFAE9D8C1615141373
:10131000EFCDAB8905040302183C024010B504462A
:10132000FFF7DBFF03E02CB1FFF7D7FF641E0128B6
:10133000F9D004B9052010BD1849084318490860C0
:101340007047F0B50378C4781A460121ECB1144B0C
:101350001B68447803F4E063C3F5E0631B0AC3F140
:101360000405AC4085780F2626FA03F707EA050343
:1013700023430C4C1B011355007800F01F029140D1
:10138000094A400942F82010F0BD03F01F0001FA9D
:1013900000F00649520941F82200F0BD0000FA05AC
:1013A0000CED00E000E400E000E100E080E100E09E
:1013B00002210448044A0172C06142620349016289
:1013C000086800471C07002034020020B4010020F8
:1013D0000D490028086812BF40F001004008400095
:1013E0000860704730B5094B01F0030221F003019A
:1013F0009200CC580F259540AC43CC509040CC582F
:101400002043C85030BD00000400014008000140E6
:10141000DFF800F0010000200020704710B50446FE
:101420004FF42060FFF756FF2046FFF7E2FE002052
:1014300010BD2DE9F043A1B00C461E4D14F0030F72
:101440000646A94600AF04EB05080AD04FF6FC702B
:101450002040001D844204D2011BFF22404600F0C0
:101460002DF816F07F0008D0F109C90103E051F80A
:10147000042B47F8042BB142F9D3C14505D3002012
:1014800021B0BDE8F08347F8040B20A8874207D2BB
:1014900005EB840081452CBF002059F8040BF2E7CE
:1014A000F709FF0100A93846FFF7B2FF07F18006F0
:1014B00000AFE2E71C0300207047000062F30F2238
:1014C00062F31F42401810F0030308D0C91A1FD35B
:1014D000DB0748BF00F8012D28BF20F8022D1300BC
:1014E00030B414461546103928BF20E93C00FAD81C
:1014F000490728BF20E90C0048BF40F8042D8900A7
:1015000028BF20F8022D48BF00F8012D30BC7047DD
:10151000C91818BF00F8012DCB0728BF00F8012D0E
:10152000704700002DE9F04186B080460E4600F07D
:101530008BF91C27454C07FB00401C3020600E2512
:1015400000F082F90FF2081105FB0010606000F056
:101550007BF90FF2281107FB0010A06000F074F96E
:101560000FF26C1105FB0010E06000F06DF90FF256
:101570008C1105FB0010206100F066F90FF2A81134
:1015800005FB0010606100F05FF90FF2C81105FB68
:101590000010A0610121A06850F82800FFF7F8FDB5
:1015A00001210120FFF7FDFD00208DF810008DF8CE
:1015B000130003A9606830F818000390206850F801
:1015C000280000F04BF9012E2FD1606930F8181077
:1015D000206930F81800C9B2C0B2FFF703FFE06815
:1015E00030F81800019000208DF808000C208DF8CC
:1015F000090001208DF80A0001A800F06DF9A0692A
:1016000030F818008DF800000F208DF80100002040
:101610008DF8020001208DF80300E06830F8180012
:1016200000F08CF900A8FFF78CFE06B0BDE8F08151
:1016300080B5064A5168126831F8101052F820003F
:1016400000F043F900B1012002BD0000A00000201D
:101650000002020040000001010080004000000282
:10166000020000010004010000024000020002002C
:10167000020002000200020004000000100000004E
:101680000200000010000000100000000200000036
:101690001000000004000000100000000200000024
:1016A0000100000001000000020000000100000035
:1016B0000400000001000000010000000100000023
:1016C0000100000001000000010000000200000015
:1016D0000002020040000001010080004000000202
:1016E00002000001000401000002400002000200AC
:1016F00002000200020002000400000004000100D9
:1017000004000400010004000200040001000000C5
:1017100000000100000002000000000000000000C6
:1017200000000000010000000900010006000800A0
:101730000000070006000900010008000A00000080
:101740000900060001000100010001000100010084
:10175000020000001700070017001700060017001E
:1017600017001700070017002800060017001700D1
:101770000700070007000700070007000800000037
:1017800070B584B001211020FFF702FD01208DF813
:10179000080000208DF80B0003208DF809000020C0
:1017A0008DF80A000220019001A9294C204600F082
:1017B00055F8A08A40F00200A08200F039F8208A93
:1017C000244D800702D50020287022E00121082046
:1017D000FFF7DEFC0420019001A91F4E304600F007
:1017E0003DF8B08A40F00400B08200F021F8308A61
:1017F00040074CBF01200220287001A900208DF86D
:101800000800304600F02AF8B08A4FF6FB71084015
:10181000B0820220019001A900208DF80800204626
:1018200000F01CF8A08A4FF6FD710840A0827FBD31
:10183000002002E09DF80000401C8DF800009DF89B
:1018400000000028F6D0704702480078704700007A
:101850000010024018030020000C0240F0B50022E6
:1018600001230C6893401C409C422AD1540003255C
:10187000A5400668ED432E40066006680F79A74034
:101880003E4306600E79012E18BF022E10D18668E5
:101890002E40866086684F79A7403E4386608688E2
:1018A00026EA0303838083888E79964033438380BE
:1018B000C3682B40C360C368CD7905FA04F42343A1
:1018C000C360521C102ACBD3F0BD008A002208420C
:1018D00018BF01221046704730B501688279CB43AA
:1018E00018492AB30A4614682340136053680468F1
:1018F000A34353600379CC18236805682B43236006
:1019000093680468A3439360D3680468A343D360D7
:1019100043790568102B07D1916829439160D168FC
:1019200000680843D06030BDCC182068284303E02D
:1019300000790C1820681840206030BD00BF0249B3
:101940000860704700040140140401402DE9F84F7D
:101950000020ADF8000048F28004464D464EDFF806
:101960001C91DFF81CA148F60F7840F68F7B4BF6F0
:10197000BF7725E056F82010ADF80010BDF8001034
:1019800009040BD556F820100BEA010146F8201087
:101990003C4901EB800050F8040C8047BDF8000082
:1019A00000060DD599F8000056F8201008EA01014C
:1019B00046F82010344901EB800050F8040C8047B1
:1019C000706CAAF80000000452D5BAF8000010F0BC
:1019D0000F0089F80000CDD130682880288800F0F9
:1019E00030006880288800F44050288030683840F3
:1019F00080F4005080F0200020433060BAF80000EE
:101A0000C006306805D408EA00003060FEF78FFE9B
:101A100016E0ADF80000BDF80000000506D53068FE
:101A20000BEA00003060FEF750FE09E0BDF8000050
:101A30000004C5D530680BEA00003060FEF79CFE5C
:101A4000306829883840C904298848BF80F480500C
:101A50008904698848BF80F40050C906698848BF76
:101A600080F01000890648BF80F0200020433060DD
:101A7000BDE8F18F74070020005C00407B07002068
:101A80005A070020AC020020900200207CB50446DA
:101A9000FFF7DAFE14262B4D06FB005008302860B5
:101AA000FFF7D2FE0A210FF2A00201FB00206860BE
:101AB000FFF7CAFE0FF2B00206FB0020012150F82A
:101AC0002400FFF765FB686830F81400009000A957
:101AD00001208DF804000020ADF8060003208DF8E9
:101AE0000500286850F82400FFF7B8FEFFF7ACFEA9
:101AF00018B1FFF7A9FE012801D100F00FF8FFF798
:101B0000A3FE022801D100F001F873BD29686868BE
:101B100051F8241030F81400488370472968686829
:101B200051F8241030F814000883704705490A68FA
:101B300052F82020938A496831F81000584090826A
:101B4000704700007001002001000200040008003E
:101B5000100001000200040010002000010002003B
:101B60000100010002000000080000000800000061
:101B70000800000008000000080000000400000049
:101B80000400000008000000040000000400000041
:101B9000020000000200000002000000020000003D
:101BA0000200000039483A4A82B0016841F480716D
:101BB0000160816811408160364A0168114001600E
:101BC000016821F480210160816821F47D01816038
:101BD0000021C16001910091016841F480310160F0
:101BE000016801F4003100910199491C01910099AB
:101BF00019B90199B1F5A06FF2D10168490C01F052
:101C0000010100910099012939D123490A6842F064
:101C100004020A600A6842F002020A600A6842F09E
:101C200001020A604FF40062416A41F08051416252
:101C30001A490A604A68D206FCD4816881608168CA
:101C4000816081688160816821F47D0181608168A3
:101C500041F411018160016841F080710160016807
:101C60008901FCD58168890889008160816841F01B
:101C700003018160816801F00C010C29FAD14FF059
:101C800000600749086002B0704700000038024059
:101C90000CC0FF88FEFFFEEE003C024000700040DA
:101CA00008ED00E070B5294D294C2868294E608068
:101CB000608831880840000448BFFFF747FE60880D
:101CC00031880840400505D54FF6FF30286022488E
:101CD00040688047308861880140890444BF4DF6E0
:101CE000FF71296061880840C00405D54EF6FF7079
:101CF00028600020FFF7BEF96088318808400005A1
:101D00000BD51648007810B1FFF799F902E00220D0
:101D1000FFF7B0F94FF2FF7028603088618801400A
:101D2000890505D54FF6FF5129602178491C21709E
:101D300061880840C00507D54FF6FF60286007207E
:101D4000BDE87040FFF796B970BD00BF445C00402D
:101D50005807002078070020B40100201903002054
:101D600010B5FFF762FA40F602742046FFF7B2FAA8
:101D700000212148FFF78CFA04281CBF2046FFF7FA
:101D8000A9FABDE81040FFF759BA38B5FFF7F8FCDB
:101D900019481A4C057800210620FFF7C3FB0620DE
:101DA000FFF746FC78B175B91548164A016811402D
:101DB000B1F1005F07D141682161E160006880F303
:101DC000088808468047FFF7CBFF0A202072207062
:101DD0002071FFF7A7F80120FFF758FE0120FFF759
:101DE000A5FE002000900849009888423EBF009858
:101DF000401C0090F8D3F1E70000080844070020D9
:101E0000003000080000FE2FFFFF3F0010B450F824
:101E1000041B79B10268436812180830DC0744BF1C
:101E2000A9F10104E31852F8044B43F8044B091FCD
:101E3000F9D1ECE710BC704710B507497944183167
:101E4000064C7C44163404E00A68081D5118884783
:101E50000146A142F8D110BD080000002800000092
:101E600087EAFFFF600400001C0300200000000060
:101E70009DFFFFFF1C030000680100000000002020
:101E8000000000007047FEE7FEE7FEE7FEE7704750
:101E9000704770477047FFF705BF4FF48020FFF78A
:101EA0004DBD000000F00BF8002801D0FFF7C4FF83
:101EB0000020C046C046FFF768FF00F002F801208E
:101EC000704700F001B800000746384600F002F8FD
:101ED000FBE7000080B5C046C046024A110018204A
:101EE000ABBEFBE7260002000148804701480047DF
:101EF000A51B0008F91E0008C046C046C046C046E3
:101F0000FFF7D0FFFFF7FEBFFFF7FEBFFFF7FEBFF3
:101F1000FFF7FEBFFFF7FEBFFFF7FEBFFFF7FEBFF5
:101F2000FFF7FEBFFFF7FEBFFFF7FEBFFFF7FEBFE5
:101F3000FFF7FEBFFFF7FEBFFFF7FEBFFFF7FEBFD5
:101F4000FFF7FEBFFFF7FEBFFFF7FEBFFFF7FEBFC5
:101F5000FFF7FEBFFFF7FEBFFFF7FEBFFFF7FEBFB5
:101F6000FFF7FEBFFFF7FEBFFFF7FEBFFFF7FEBFA5
:101F7000FFF7FEBFFFF7FEBFFFF7FEBFFFF7FEBF95
:101F8000FFF7FEBFFFF7FEBFFFF7FEBFFFF7FEBF85
:101F9000FFF7FEBFFFF7FEBFFFF7FEBFFFF7FEBF75
:101FA000FFF7FEBFFFF7FEBFFFF7FEBFFFF7FEBF65
:101FB000FFF7FEBFFFF7FEBFFFF7FEBFFFF7FEBF55
:101FC000FFF7FEBFFFF7FEBFFFF7FEBFFFF7FEBF45
:101FD000FFF7FEBFFFF7FEBFFFF7FEBFFFF7FEBF35
:101FE000F8B504460D4600F01AF80026042815D16D
:101FF00000F018F840F00800386055F8040B44F879
:102000002600761C202EF8D300F009F8396821F05C
:1020100008013960396821F480613960F2BD4FF4FC
:1020200000401FE00D4F386840F480603860386829
:1020300070470B490A680420D20701D50120704778
:102040000A68D20501D50220704709684FF6F06290
:10205000114218BF0320704700000000043C0240FA
:10206000183C024010B50446FFF7E3FF03E02CB133
:10207000FFF7DFFF641E0128F9D004B9052010BD69
:102080000000000000000000000000000000000050
:1020900000000000000000000000000000100240EE
:1020A0000004024000100240001002400004024000
:1020B00000100240000802400010024000040240EC
:1020C0000000024000000240000402400000024004
:1020D00000080240000002400000024000000240F0
:1020E00000000240000002400000024000040240E4
:1020F0006003400049006E007400650072006E00CD
:1021000061006C00200046006C00610073006800F4
:10211000200020002F003000780030003800300010
:10212000300030003000300030002F003400380024
:102130002A00320035003600200061002C003400F7
:10214000360034002A0032003500360020006700D7
:102150000000000000000000000C0240000C0240E3
:10216000000C0240000C0240000C0240000802403B
:1021700000080240000C0240000802400008024033
:102180000004024000040240000402400004024037
:1021900000040240990A0008B90A0008670B000809
:1021A000690B0008FB0B00085F0C00082F0D0008EE
:1021B0000B0D0008110D0008170D000800000000AD
:1021C000400000002603530054004D0069006300E6
:1021D00072006F0065006C0065006300740072009F
:1021E0006F006E00690063007300000010030020A0
:1021F00004000000E401002026000000F40200209A
:1022000014000000740200201A00000010010020D9
:1022100060000000E50800084B0B0008E508000816
:10222000E5080008E5080008E5080008E5080008DA
:10223000E50800085D0B000809021B00010100C051
:10224000320904000000FE01020409210BFF000016
:10225000041A01001A03530054004D0033003200E9
:102260004C003100000000000000000000000000F1
:10227000E5080008E5080008E5080008E50800088A
:10228000E5080008E5080008E5080008E50800087A
:10229000E5080008E5080008E5080008E50800086A
:1022A000E5080008E5080008000000000000000044
:1022B0000000000000300008580200201B00000051
:1022C0001201000100000040830411DF000201023E
:1022D000030100001403530054004D00330032008A
:1022E0002000440046005500E002002012000000DB
:0C22F000040309040101000001010000CA
:0400000508001EF9D8
:00000001FF
