:020000040800F2
:10300000581F0020A5540108CD4E0108CF4E0108DD
:10301000D14E0108D34E0108D54E01080000000032
:10302000000000000000000000000000D74E010872
:10303000D94E010800000000DB4E010897970008F8
:1030400085550108895501088D55010891550108DC
:103050009555010899550108DD4E0108F74E010804
:10306000294F0108A9550108AD550108B1550108BE
:10307000B5550108B9550108BD550108C1550108EC
:10308000C5550108C9550108CD550108D15501089C
:103090008D4F0108D9550108DD550108414F010840
:1030A000E5550108E9550108ED550108F1550108FC
:1030B000F5550108C1780008077900080156010894
:1030C00005560108095601080D5601081156010858
:1030D00015560108954F01081D5601082156010893
:1030E000714F0108295601082D5601083156010873
:1030F0003556010800B58BB0DFF8B008007801281C
:1031000014D0DFF8A808007802280FD0DFF89C0858
:10311000007803280AD0DFF894080078042805D046
:10312000DFF888080078FF2840F00082DFF87C088C
:103130004078002841D0DFF87408407801283CD05E
:10314000DFF868084078022837D0DFF86008407858
:10315000032832D0DFF85408407804282DD0DFF857
:103160004C084078052828D0DFF840084078072828
:1031700023D0DFF83808407808281ED0DFF82C0864
:1031800040780B2819D0DFF8240840780C2814D098
:10319000DFF8180840780A280FD0DFF810084078C8
:1031A00009280AD0DFF804084078062805D0DFF89F
:1031B000FC0740780D2840F0B981DFF8F0078078EF
:1031C000002850D0DFF8E407807801284BD0DFF8E2
:1031D000DC078078022846D0DFF8D0078078032803
:1031E00041D0DFF8C807807804283CD0DFF8BC075E
:1031F0008078052837D0DFF8B4078078062832D0E9
:10320000DFF8A807807807282DD0DFF8A00780789E
:10321000082828D0DFF894078078092823D0DFF821
:103220008C07807800281ED0DFF88007807801287E
:1032300019D0DFF878078078022814D0DFF86C07FF
:10324000807803280FD0DFF86407807804280AD03C
:10325000DFF858078078052805D0DFF85007807818
:10326000062840F06381DFF8440700788DF80100FC
:10327000DFF8380740788DF80000DFF830078078F5
:103280008DF80200DFF8240740680490DFF81C077F
:103290008068059000208DF82000DFF8100790F876
:1032A0007F008DF8220001208DF82100DFF8000753
:1032B0000790DFF8F8064078002818D0012835D0AC
:1032C000022852D003286FD0042800F08B800528F4
:1032D00000F0A680072800F0E880082800F0E580CC
:1032E0000B2800F001810C2800F0FE801CE1DFF8C3
:1032F000BC06408DADF80400DFF8B006008DADF8D7
:103300000600DFF8A8068089ADF80A00DFF89C0601
:10331000007F8DF80C00DFF89406806D0690DFF8D2
:103320008C06B0F84000ADF8080030E3DFF87C060A
:10333000408DADF80400DFF87406008DADF806008E
:10334000DFF86806C089ADF80A00DFF86006407F44
:103350008DF80C00DFF85406C06D0690DFF84C06BF
:10336000B0F84000ADF8080011E3DFF84006408DEA
:10337000ADF80400DFF83406008DADF80600DFF884
:103380002C06008AADF80A00DFF82006807F8DF851
:103390000C00DFF81806006E0690DFF81006B0F893
:1033A0004000ADF80800F2E2DFF80006C08CADF88E
:1033B0000400DFF8F805808CADF80600DFF8EC05B6
:1033C000408AADF80A00DFF8E405C07F8DF80C00F4
:1033D000DFF8D805406E0690DFF8D005C08FADF855
:1033E0000800D4E2DFF8C405C08CADF80400DFF8B3
:1033F000BC05808CADF80600DFF8B005408AADF85A
:103400000A00DFF8A805C07F8DF80C00DFF89C05E6
:10341000806E0690DFF89405C08FADF80800B6E224
:10342000DFF88805007801281FD1DFF88005C08DFE
:10343000ADF80400DFF87405808DADF80600DFF804
:103440006C05808AADF80A00DFF8600590F820006E
:103450008DF80C00DFF85405006F0690DFF84C057E
:10346000B0F84200ADF808001EE0DFF84005408EDD
:10347000ADF80400DFF83405008EADF80600DFF883
:103480002C05808AADF80A00DFF8200590F82000AE
:103490008DF80C00DFF81405006F0690DFF80C05BE
:1034A000B0F84400ADF8080071E2DFF80005C08E06
:1034B000ADF80400DFF8F404808EADF80600DFF804
:1034C000EC04C08AADF80A00DFF8E00490F82100AF
:1034D0008DF80C00DFF8D404C06E0690DFF8CC0441
:1034E000808FADF8080052E2DFF8C004408FADF8DD
:1034F0000400DFF8B804008FADF80600DFF8AC0474
:10350000008BADF80A00DFF8A40490F822008DF8D3
:103510000C00DFF89804406F0690DFF89004B0F8D4
:103520004600ADF8080032E241203CE20120DFF81D
:103530007C1408700220DFF8741448700020DFF853
:103540006C1488700520DFF8641448607FF0630015
:10355000DFF8581488604FF4AC70DFF8501488819D
:103560002D20DFF84814C8812D20DFF84014088290
:103570002D20DFF8381448826020DFF8301488826C
:103580000820DFF82814C8820420DFF82014087708
:103590000820DFF8181448770820DFF8101488771F
:1035A0000420DFF80814C8770820DFF8001481F839
:1035B00020000020DFF8F41381F821003220DFF82A
:1035C000EC1388840220DFF8E413C8843220DFF88B
:1035D000DC1308850320DFF8D413488542F210700D
:1035E000DFF8C81388850A20DFF8C013C8853220A9
:1035F000DFF8B81308860320DFF8B01348863220BE
:10360000DFF8A81388860220DFF8A013C8860220FE
:10361000DFF8981388870220DFF89013C88703200B
:10362000DFF88813A1F840000A20DFF88013A1F822
:1036300042000320DFF87413A1F844007220DFF881
:103640006C1381F84800DFF86C03DFF86013C8647E
:1036500044F68D60DFF85413A1F850001020DFF815
:103660004C1381F852003120DFF8401381F85300E9
:103670001020DFF8381381F87C001020DFF82C13BD
:1036800081F87D004FF46160DFF8201388657820B1
:10369000DFF81813C8651E20DFF8101308661E2017
:1036A000DFF8081388660520DFF8001348661E203F
:1036B000DFF8F81288661E20DFF8F01208674FF472
:1036C0007A70DFF8E8128867DFF8E00200788DF89A
:1036D0000100DFF8D80240788DF80000DFF8CC0256
:1036E00080788DF80200DFF8C40240680490DFF8AB
:1036F000BC028068059000208DF82000DFF8AC0245
:1037000090F87F008DF8220001208DF82100DFF86D
:10371000A0020790DFF894024078002818D0012812
:1037200035D0022852D003286FD0042800F08B80B7
:10373000052800F0A680072800F0E880082800F09F
:10374000E5800B2800F001810C2800F0FE801CE1D0
:10375000DFF85802408DADF80400DFF85002008D0C
:10376000ADF80600DFF844028089ADF80A00DFF802
:103770003C02007F8DF80C00DFF83002806D06906F
:10378000DFF82802B0F84000ADF80800FFE0DFF8ED
:103790001C02408DADF80400DFF81002008DADF87A
:1037A0000600DFF80802C089ADF80A00DFF8FC0166
:1037B000407F8DF80C00DFF8F401C06D0690DFF853
:1037C000EC01B0F84000ADF80800E0E0DFF8DC0103
:1037D000408DADF80400DFF8D401008DADF806008F
:1037E000DFF8C801008AADF80A00DFF8C001807F69
:1037F0008DF80C00DFF8B401006E0690DFF8AC0124
:10380000B0F84000ADF80800C1E0DFF8A001C08CBE
:10381000ADF80400DFF89401808CADF80600DFF805
:103820008C01408AADF80A00DFF88001C07F8DF876
:103830000C00DFF87801406E0690DFF87001C08F51
:10384000ADF80800A3E0DFF86401C08CADF8040017
:10385000DFF85801808CADF80600DFF85001408A8F
:10386000ADF80A00DFF84401C07F8DF80C00DFF8E6
:103870003C01806E0690DFF83401C08FADF808007F
:1038800085E0DFF82801007801281FD1DFF81C014E
:10389000C08DADF80400DFF81401808DADF806008E
:1038A000DFF80801808AADF80A00DFF8000190F81F
:1038B00020008DF80C00DFF8F400006F0690DFF8B0
:1038C000EC00B0F84200ADF808001EE0DFF8DC00C4
:1038D000408EADF80400DFF8D400008EADF806008D
:1038E000DFF8C800808AADF80A00DFF8C00090F861
:1038F00020008DF80C00DFF8B400006F0690DFF8B0
:10390000AC00B0F84400ADF8080040E0DFF89C00DF
:10391000C08EADF80400DFF89400808EADF806008C
:10392000DFF88800C08AADF80A00DFF8800090F860
:1039300021008DF80C00DFF87400C06E0690DFF8EF
:103940006C00808FADF8080021E0DFF86000408F48
:10395000ADF80400DFF85400008FADF80600DFF882
:103960004C00008BADF80A00DFF8400090F8220010
:103970008DF80C00DFF83400406F0690DFF82C0063
:10398000B0F84600ADF8080001E041200BE000204F
:10399000DFF85C1208800020DFF81015088000A80E
:1039A00001F0B6FC00200BB000BD000004010020B7
:1039B00000007A44176345112DE9F04F83B00500EC
:1039C000287CF62801DB4020EBE0687C297C8842DB
:1039D00001D24020E5E0DFF8EC05824668698046C8
:1039E000287C81460020824908805646287C0E307B
:1039F0000700DFF8CC0590F87F00012864D1FFB202
:103A00007F2F01DB042000E00220C7198AF8007034
:103A10001AF1010A09200090009A2900504602F08C
:103A2000DBFF1AF1090A687A8AF800001AF1010A24
:103A30005FF0040B15F10C0001905A4601995046B5
:103A400002F0CAFF1AF1040A5FFA89F9B9F1740F9A
:103A500001DB732400E04C46E4B2C3462200594621
:103A6000504602F0B9FFE4B214EB0A0AE4B214EBD8
:103A70000808B9EB04095146300002F0E8FF1AF1DA
:103A8000020A5FFA89F9B9F1000F15D056465FFABC
:103A900089F9B9F17E0F01DB7D2400E04C46E4B2E8
:103AA00022004146504602F097FFE4B214EB0A0AA6
:103AB0005146300002F0CBFF1AF10200DFF8041586
:103AC000401A4B4908806BE08AF800701AF1010A2D
:103AD00009200190019A2900504602F07DFF1AF159
:103AE000090A5146300002F0B2FF1AF1020A5646A6
:103AF000687A8AF800001AF1010A5FF0040B15F1E8
:103B00000C0000905A460099504602F065FF1AF1E9
:103B1000040A5FFA89F9B9F10C0F01DB0B2400E00C
:103B20004C46E4B2C34622005946504602F054FFC8
:103B3000E4B214EB0A0AE4B214EB0808B9EB040986
:103B40005146300002F083FF1AF1020A5FFA89F948
:103B5000B9F1000F1ED056465FFA89F9B9F1110F7D
:103B600001DB102400E04C46E4B2C3462200594673
:103B7000504602F031FFE4B214EB0A0AE4B214EB4F
:103B80000808B9EB04095146300002F060FF1AF151
:103B9000020ADBE7DFF82C04BAEB000014490880C6
:103BA0000020BDE8FE8F70B504000D00FF26DFF891
:103BB000180405602000FFF7FFFE0600C0B20028D1
:103BC00008D10FF219020A480188DFF8F80302F061
:103BD0004DFC06003000C0B270BD000010B50400FE
:103BE0002000C0B2DFF8E0130968884710BD00006C
:103BF0000C1700202DE9FE4F0500DFF8D00304006C
:103C000068698246DFF8B80390F88000012840F028
:103C1000918000270A200600DFF8500D008831004F
:103C2000C9B289B2884201D245202AE120788DF8B4
:103C30000000641C9DF80000802801DB042700E0E0
:103C400002279DF800000E38C01B28745FF0090B96
:103C50005A462100280002F0BFFE9DF800000A2805
:103C600001DA0E200DE1DFF8040D00889DF8001048
:103C700089B2884201D20E2003E1287C80465FFA97
:103C800088F8B8F1740F02DB5FF0730900E0C146F9
:103C900019F10E000600F6B23119601E02F0ECFEBA
:103CA000002801D14420ECE0093420786872641CBB
:103CB00004200290019415F10C0B029A01995846C8
:103CC00002F08AFE241D5FFA89F9A3464A46594646
:103CD000504602F081FE5FFA89F919EB0A0A5FFA91
:103CE00089F919EB0404B8EB0908A41C5FFA88F8F9
:103CF000B8F1000F00F0C4805FFA88F8B8F17E0FC9
:103D000002DB5FF07D0900E0C14619F10200060008
:103D1000F6B23019811E200002F0AEFE002801D15B
:103D20004420AEE05FFA89F94A462100504602F08D
:103D300053FEA5E00C200600DFF8300C00883100AF
:103D4000C9B289B2884201D245209AE0F6B2301950
:103D5000811E200002F090FE002801D1442090E056
:103D600020788DF80000641C9DF800000E3828743F
:103D70000927A3463A005946280002F02DFE0934CF
:103D8000A41C9DF800000A2801DA0E2079E09DF8B5
:103D900000009DF800101631102291FBF2F110EB9B
:103DA0004100401CDFF8C41B0988814201DA45202C
:103DB00067E0287C80465FFA88F8B8F10C0F02DBD8
:103DC0005FF00B0900E0C14619F107000600F6B2EA
:103DD0003019811E200002F04FFE002801D144203E
:103DE0004FE020786872641C0427019415F10C0BD5
:103DF0003A000199584602F0EFFD241D5FFA89F957
:103E0000A3464A465946504602F0E6FD5FFA89F954
:103E100019EB0A0A5FFA89F919EB0404B8EB0908EF
:103E2000A41C5FFA88F8B8F1000F29D05FFA88F86F
:103E3000B8F1110F02DB5FF0100900E0C14619F183
:103E400002000600F6B23019811E200002F014FEB6
:103E5000002801D1442014E05FFA89F927004A467E
:103E60003900504602F0B8FD5FFA89F919EB0A0AE9
:103E70005FFA89F919EB0404B8EB0908A41CD0E730
:103E80000020BDE8FE8F38B504000D00DFF8E00A21
:103E900005600FF21D02DFF8DC1A200002F09FFB24
:103EA000002801D1002000E0FF2032BD0E170020C5
:103EB00030B589B004000D00FF208DF81500DFF843
:103EC000BC0A0690002C74D0002080B2ADB2A8428B
:103ED00006D280B2015D3D4A80B28154401CF4E7B5
:103EE000DFF8880A058036480078042835D137483D
:103EF0000078DFF8781A0880ADB2B5F1090010211A
:103F000090FBF1F202FB1102002A08D0ADB2B5F12C
:103F10000900102190FBF1F04000401D07E0ADB218
:103F2000B5F10900102190FBF1F04000C01CDFF852
:103F30003C1A09884018DFF8341A088001A8FFF7F6
:103F400059FE00283AD1DFF8240A0188C9B21F4877
:103F5000DFF8242A1268904730E001A8FFF74AFEF4
:103F6000009002F010FE143802F032FE5FF0804143
:103F700002F058FE02F0D4FE0022DFF8043A02F00C
:103F8000F7FE02F069FF07900098002808D1FF2093
:103F90008DF8150001A8DFF8D819096888470DE0E9
:103FA000FF208DF8150001A8DFF8C41909688847BB
:103FB00004E00020DFF8B8190968884709B030BD6F
:103FC0000401002058080020C81600207C090020A9
:103FD00038B504000D00E4B2652CC0F2C584E4B22B
:103FE0009F2C80F2C184E4B22000652800F09B8001
:103FF000662800F0C380672800F00F81682800F071
:104000006781692800F072816A2800F07D816B2841
:1040100000F090816C2800F0A3816D2800F0B6813B
:104020006E2800F0CE816F2800F0F181712800F039
:10403000F781722800F0F881732800F0F981742864
:1040400000F00C82752800F01F82762800F0328282
:10405000772800F04A82782800F0DD81792800F086
:104060005D827A2800F075827B2800F08D827C28A2
:1040700000F0AA827D2800F0C7827E2800F0DF824F
:104080007F2800F0F782802800F00F83812800F05D
:10409000AE81822800F0AF81872800F0B0818828A7
:1040A00000F01E83892800F036838A2800F05683AA
:1040B0008B2800F071838D2800F08C838E2800F00F
:1040C0008E838F2800F08F83902800F091839128B1
:1040D00000F09383922800F0A383932800F0B48328
:1040E000942800F0C583952800F0D683962800F028
:1040F000E783972800F08781982800F0F5839928B6
:1041000000F006849A2800F007849B2800F00984B8
:104110009C2800F00B849D2800F074839E2800F0FA
:10412000168400F01DBC2800C0B201280FD0280062
:10413000C0B202280BD02800C0B2032807D0280044
:10414000C0B2042803D02800C0B2FF2814D1DFF881
:10415000F40B00782900C9B288420CD0DFF8E40BD8
:104160000570DFF8E00B0178012002F011FB002858
:1041700001D04220F9E3F5E34220F6E32800C0B283
:10418000002833D02800C0B201282FD02800C0B2A8
:1041900002282BD02800C0B2032827D02800C0B2A4
:1041A000042823D02800C0B205281FD02800C0B2A0
:1041B00007281BD02800C0B2082817D02800C0B29A
:1041C0000B2813D02800C0B20C280FD02800C0B292
:1041D0000A280BD02800C0B2092807D02800C0B296
:1041E000062803D02800C0B20D2814D1DFF8540BE4
:1041F00040782900C9B288420CD0DFF8480B4570DE
:10420000DFF8400B4178002002F0C2FA002801D00C
:104210004220AAE3A6E34220A7E32800C0B2002878
:104220003FD02800C0B201283BD02800C0B20228ED
:1042300037D02800C0B2032833D02800C0B20428E9
:104240002FD02800C0B205282BD02800C0B20628E5
:1042500027D02800C0B2072823D02800C0B20828E1
:104260001FD02800C0B209281BD02800C0B20028E7
:1042700017D02800C0B2012813D02800C0B20228ED
:104280000FD02800C0B203280BD02800C0B20428E9
:1042900007D02800C0B2052803D02800C0B20628E5
:1042A00014D1DFF8A00A80782900C9B288420CD066
:1042B000DFF8900A8570DFF88C0A8178022002F01E
:1042C00067FA002801D042204FE34BE342204CE341
:1042D000DFF8700A4560DFF86C0A4168082002F0D8
:1042E00057FA002801D042203FE33BE3DFF8540AAD
:1042F0008560DFF8500A8168092002F049FA002839
:1043000001D0422031E32DE3DFF8380A407800285D
:104310000FD1DFF8300A8089290089B2884208D09D
:10432000DFF8200A8581DFF81C0A8189062002F067
:104330002FFA17E3DFF80C0A407801280FD1DFF8D5
:10434000040AC089290089B2884208D0DFF8F4093C
:10435000C581DFF8F009C189062002F019FA01E3EE
:10436000DFF8E009407802280FD1DFF8D809008A89
:10437000290089B2884208D0DFF8C8090582DFF831
:10438000C409018A062002F003FAEBE2DFF8B4095F
:104390004078032804D0DFF8AC09407804280FD116
:1043A000DFF8A009408A290089B2884208D0DFF8E6
:1043B00094094582DFF88C09418A062002F0E8F969
:1043C000D0E2DFF88009407805280FD1DFF87409C2
:1043D000808A290089B2884208D0DFF8680985827E
:1043E000DFF86009818A062002F0D2F9BAE2DFF82C
:1043F0005409C586B6E2DFF84C098586B2E2DFF8DB
:1044000044098587AEE2DFF83C09C566AAE2DFF819
:104410003409C582A6E2DFF82C0980F82150A1E218
:10442000DFF8200985769DE2DFF81809C57699E264
:10443000DFF81009407800280FD1DFF80809007F65
:104440002900C9B2884208D0DFF8F8080577DFF8FC
:10445000F408017F072002F09BF983E2DFF8E4080B
:10446000407801280FD1DFF8DC08407F2900C9B26D
:10447000884208D0DFF8CC084577DFF8C808417FCC
:10448000072002F085F96DE2DFF8B80840780228CD
:104490000FD1DFF8B008807F2900C9B2884208D068
:1044A000DFF8A0088577DFF89C08817F072002F0FD
:1044B0006FF957E2DFF88C084078032804D0DFF862
:1044C0008408407804280FD1DFF87808C07F2900DD
:1044D000C9B2884208D0DFF86C08C577DFF86408F5
:1044E000C17F072002F054F93CE2DFF85808407819
:1044F000052812D1DFF84C0890F820002900C9B235
:1045000088420AD0DFF83C0880F82050DFF83408F1
:1045100090F82010072002F03BF923E2DFF824088E
:104520004078032804D0DFF81C08407804280FD115
:10453000DFF81008C08C290089B2884208D0DFF863
:104540000408C584DFF8FC07C18C032002F020F9C1
:1045500008E2DFF8F0074078032804D0DFF8E4072A
:10456000407804280FD1DFF8DC07808C290089B25D
:10457000884208D0DFF8CC078584DFF8C807818C33
:10458000042002F005F9EDE1DFF8B80740780028D3
:1045900009D0DFF8B0074078012804D0DFF8A4077D
:1045A000407802280FD1DFF89C07408D290089B29E
:1045B000884208D0DFF88C074585DFF88807418DF1
:1045C000032002F0E5F8CDE1DFF878074078002815
:1045D00009D0DFF870074078012804D0DFF86407BD
:1045E000407802280FD1DFF85C07008D290089B2DE
:1045F000884208D0DFF84C070585DFF84807018DB1
:10460000042002F0C5F8ADE1DFF83807407805284E
:1046100014D1DFF83007007802280FD0DFF8240724
:10462000C08D290089B2884208D0DFF81807C585F7
:10463000DFF81007C18D032002F0AAF892E1DFF83D
:1046400004074078052814D1DFF8F806007802281E
:104650000FD0DFF8F006808D290089B2884208D09B
:10466000DFF8E0068585DFF8DC06818D042002F0A6
:104670008FF877E1DFF8CC064078052814D1DFF811
:10468000C406007802280FD1DFF8B806408E290052
:1046900089B2884208D0DFF8AC064586DFF8A40668
:1046A000418E032002F074F85CE1DFF89806407850
:1046B000052814D1DFF88C06007802280FD1DFF826
:1046C0008406008E290089B2884208D0DFF874067B
:1046D0000586DFF87006018E042002F059F841E1EA
:1046E000DFF860064078032804D0DFF858064078E9
:1046F00004280FD1DFF84C06C08F290089B2884208
:1047000008D0DFF84006C587DFF83806C18F0520DE
:1047100002F03EF826E1DFF82C064078002809D0A8
:10472000DFF820064078012804D0DFF8180640782A
:10473000022812D1DFF80C06B0F84000290089B237
:1047400088420AD0DFF8FC05A0F84050DFF8F405F5
:10475000B0F84010052002F01BF803E1DFF8E40593
:104760004078052817D1DFF8DC050078022812D040
:10477000DFF8D005B0F84200290089B288420AD09B
:10478000DFF8C005A0F84250DFF8B805B0F84210D5
:10479000052001F0FDFFE5E0DFF8A80540780528D9
:1047A00017D1DFF8A0050078022812D1DFF89405B0
:1047B000B0F84400290089B288420AD0DFF88405A5
:1047C000A0F84450DFF87C05B0F84410052001F053
:1047D000DFFFC7E0DFF86C0580F84850C2E0DFF883
:1047E0006405C564BEE0DFF85C05A0F85050B9E090
:1047F000DFF8500580F85250B4E0DFF8480580F843
:104800005350AFE0012D01D1012000E00020DFF87E
:10481000341581F87F0029000E2001F0B9FFA1E0D6
:10482000DFF82005407800280DD1DFF81805806DED
:10483000A84208D0DFF80C058565DFF80805816D12
:104840000A2001F0A5FF8DE0DFF8F8044078012888
:104850000DD1DFF8F004C06DA84208D0DFF8E40401
:10486000C565DFF8E004C16D0A2001F091FF79E031
:10487000DFF8D004407802280DD1DFF8C804006EBC
:10488000A84208D0DFF8BC040566DFF8B804016E62
:104890000A2001F07DFF65E0DFF8A80440780328D6
:1048A0000DD1DFF8A004406EA84208D0DFF89404D0
:1048B0004566DFF89004416E0A2001F069FF51E07F
:1048C000DFF88004407804280DD1DFF87804806E8A
:1048D000A84208D0DFF86C048566DFF86804816EB2
:1048E0000A2001F055FF3DE0DFF858044078052824
:1048F0000DD1DFF85004006FA84208D0DFF844045F
:104900000567DFF84004016F0A2001F041FF29E04C
:10491000DFF83004856725E0DFF8280480F87C5054
:1049200020E0DFF8200480F87D501BE0002D01D04E
:10493000012000E00020DFF80C1481F87E00DFF891
:10494000040490F87E100C2001F022FF0AE0DFF84A
:10495000F403C0F8845029000F2001F019FF01E092
:10496000412002E0002000E0412032BD0E1700206F
:10497000C0160020494D0008C4160020B40E0020C7
:1049800000005EC038B504000D00E4B2652CC0F232
:10499000D681E4B29F2C80F2D281E4B22000652857
:1049A00000F09A80662800F0B780672800F0B98090
:1049B000682800F0BB80692800F0C2806A2800F0F7
:1049C000C9806B2800F0CB806C2800F0CD806D286A
:1049D00000F0CF806E2800F0D1806F2800F0338186
:1049E000712800F0D080722800F0D280732800F087
:1049F000D480742800F0D680752800F0D8807628FE
:104A000000F0DA80772800F0DC80782800F0208140
:104A1000792800F0DC807A2800F0DE807B2800F026
:104A2000E0807C2800F0E2807D2800F0E4807E2891
:104A300000F0E6807F2800F0E880802800F0EA801F
:104A4000812800F0EC80822800F0EE80872800F0BA
:104A5000F080882800F00281892800F004818A28EB
:104A600000F007818B2800F00A818D2800F00D816D
:104A70008E2800F010818F2800F01281902800F01D
:104A80001581912800F01881922800F01A8193284E
:104A900000F01B81942800F01C81952800F01D81F6
:104AA000962800F01E81972800F0C880982800F012
:104AB0001C81992800F01D819A2800F01E819B28F6
:104AC00000F020819C2800F022819D2800F02481A4
:104AD0009E2800F02B812EE1DFF8400500780128A8
:104AE00013D0DFF83805007802280ED0DFF82C0547
:104AF0000078032809D0DFF824050078042804D0C2
:104B0000DFF818050078FF2804D1DFF810050078D9
:104B1000286012E1422013E1DFF8000540782860A8
:104B20000BE1DFF8F8048078286006E1DFF8F01484
:104B3000082001F0B9FDDFF8E40440682860FCE0DB
:104B4000DFF8E014092001F0AFFDDFF8D004806841
:104B50002860F2E0DFF8C40480892860EDE0DFF827
:104B6000BC04C0892860E8E0DFF8B004008A28604F
:104B7000E3E0DFF8A804408A2860DEE0DFF89C0468
:104B8000808A2860D9E0DFF89404807E2860D4E031
:104B9000DFF88804C07E2860CFE0DFF88004007F63
:104BA0002860CAE0DFF87404407F2860C5E0DFF8C1
:104BB0006C04807F2860C0E0DFF86004C07F28605C
:104BC000BBE0DFF8580490F820002860B5E0DFF87B
:104BD0004C04C08C2860B0E0DFF84004808C286072
:104BE000ABE0DFF83804408D2860A6E0DFF82C0445
:104BF000008D2860A1E0DFF82404C08D28609CE0CF
:104C0000DFF81804808D286097E0DFF81004408EEC
:104C1000286092E0DFF80404008E28608DE0DFF861
:104C2000FC03C08E286088E0DFF8F003808E2860E7
:104C300083E0DFF8E803808F28607EE0DFF8DC03A4
:104C4000C06E286079E0DFF8D403C08A286074E081
:104C5000DFF8C80390F8210028606EE0DFF8BC039D
:104C6000C08F286069E0DFF8B403B0F84000286026
:104C700063E0DFF8A803B0F8420028605DE0DFF8E9
:104C80009C03B0F84400286057E0DFF8900390F8E8
:104C90004800286051E0DFF88403C06C28604CE0D5
:104CA000DFF87803B0F85000286046E0DFF86C03C6
:104CB00090F85200286040E0D84890F853002860EF
:104CC0003BE0D648806D286037E0D448C06D28604E
:104CD00033E0D248006E28602FE0D048406E286054
:104CE0002BE0CE48806E286027E0CC48006F28601B
:104CF00023E0CA48806F28601FE0C84890F87C0015
:104D000028601AE0C54890F87D00286015E0C34887
:104D100090F87E00286010E0C04890F87F000128DD
:104D200001D1012000E00020286006E0BB48D0F857
:104D30008400286001E0412002E0002000E04120E2
:104D400032BD0000040100202DE9F14F84B00D00B8
:104D5000160004988146B44840698246AF4890F8EE
:104D60008000012840F08E800A2007003800C0B281
:104D7000ADB280B28542C0F0498199F800008DF84B
:104D8000000019F101099DF800001038A6490874C7
:104D900009200190DFF890B2019A4946584601F087
:104DA0001BFE9DF800000A28C0F230819DF800002B
:104DB000ADB280B28542C0F029819B48007C80461C
:104DC0005FFA88F8B8F1740F01DB732400E0444601
:104DD00014F108000700FFB217EB0901B9F1010057
:104DE00001F04AFE002800F0118119F1090999F833
:104DF00000008D49487219F1010904200190CDF895
:104E00000890DFF828B2019A0299584601F0E4FDB3
:104E100019F10409E4B2CB4622005946504601F08C
:104E2000DBFDE4B214EB0A0AE4B214EB0909B8EBB7
:104E3000040819F102095FFA88F8B8F1000F1ED0D2
:104E40005FFA88F8B8F17E0F01DB7D2400E044466C
:104E5000A01C0700FFB217EB0900811E484601F0B5
:104E60000BFE002800F0D280E4B2220049465046F2
:104E700001F0B2FD6C48007C801E6B490874002074
:104E80003070C3E0654890F88000002840F0BE8094
:104E90000C2007003800C0B2ADB280B2854202D209
:104EA00045203070B2E0FFB217EB0900811E484682
:104EB00001F0E2FD002802D144203070A6E0380065
:104EC000C0B2ADB280B2854202D1002030709DE008
:104ED00099F800008DF8000019F101099DF8000013
:104EE0000E385149087409200190CDF80890DFF878
:104EF00038B1019A0299584601F06EFD19F109097D
:104F000019F102099DF800000A2802DA45203070E4
:104F10007CE09DF800009DF800101631102291FBF6
:104F2000F2F110EB4100401CADB2854202DA45209F
:104F300030706BE03C48007C80465FFA88F8B8F13E
:104F40000C0F01DB0B2400E04446E01D0700FFB21C
:104F500017EB0900811E484601F08EFD002802D1A2
:104F60004420307052E099F800002F49487219F13E
:104F7000010904200190CDF80890DFF8B0B0019A43
:104F80000299584601F028FD19F10409E4B2CB4614
:104F900022005946504601F01FFDE4B214EB0A0A04
:104FA000E4B214EB0909B8EB040819F102095FFA3D
:104FB00088F8B8F1000F27D05FFA88F8B8F1110F20
:104FC00001DB102400E04446A01C0700FFB217EBF1
:104FD0000900811E484601F04FFD002802D14420FF
:104FE000307013E0E4B2CB4622005946504601F03F
:104FF000F3FCE4B214EB0A0AE4B214EB0909B8EBCF
:10500000040819F10209D2E70020307005B0BDE8AC
:10501000F08F024981F880007047000004010020F1
:10502000080100200C0100200815002014150020A4
:1050300010B50400DFF8D009E4B20F2101FB04022F
:105040000421082002F0E7F8DFF8BC09E4B20F21E0
:1050500001FB0400021D04211A2002F0DCF8DFF835
:10506000A809E4B20F2101FB040010F1080203219A
:105070003B2002F0D0F8DFF89009E4B20F2101FBE9
:10508000040010F10B020221532002F0C4F8DFF8F3
:105090007809E4B20F2101FB040010F10D02022196
:1050A0006E2002F0B8F8DFF86409047010BD2DE935
:1050B000F041DFF85C09DFF85C1908601C2400256A
:1050C000DFF854692A002100300002F0ADFA03260F
:1050D0000027DFF848893A003100404602F0A4FA80
:1050E000DFF83C09DFF83C1908606420DFF8381964
:1050F0000860BDE8F08110B50400DFF81009007801
:10510000E4B2A04200F0A4800422DFF8FC08E4B27C
:1051100061420F2303FB010010F10F01DFF8E808E3
:10512000E4B20F2303FB040002F0B2FA002809D016
:10513000DFF8D408E4B20F2101FB040204210820A7
:1051400001F0D4FF0422DFF8C008E4B261420F236B
:1051500003FB010010F11301DFF8AC08E4B20F23E8
:1051600003FB0400001D02F093FA00280AD0DFF8C8
:105170009808E4B20F2101FB0400021D04211A204B
:1051800001F0B4FF0322DFF88008E4B261420F238C
:1051900003FB010010F11701DFF86C08E4B20F23E4
:1051A00003FB0400083002F073FA00280BD0DFF88C
:1051B0005808E4B20F2101FB040010F1080203219A
:1051C0003B2001F093FF0222DFF83C08E4B2614289
:1051D0000F2303FB010010F11A01DFF82C08E4B2E1
:1051E0000F2303FB04000B3002F052FA00280BD00F
:1051F000DFF81408E4B20F2101FB040010F10B02E8
:105200000221532001F072FF0222DFF8FC07E4B212
:1052100061420F2303FB010010F11C01DFF8E807D6
:10522000E4B20F2303FB04000D3002F031FA002832
:105230000BD0DFF8D407E4B20F2101FB040010F11A
:105240000D0202216E2001F051FFDFF8C00704704B
:1052500010BD80B5DFF8D4070078042809D0DFF846
:10526000CC070078052804D0DFF8C00700780C28A8
:105270001DD1DFF8B80790F82000D0F10100DFF869
:10528000AC1781F8200000F00DFC002805D0DFF8F5
:105290009C0790F82000FFF7CBFEDFF8900790F80E
:1052A0002000D0F10100DFF8841781F8200000F021
:1052B000F9FB002805D0DFF8740790F82000FFF70D
:1052C000B7FEDFF868070078042820D0DFF85C0715
:1052D000007805281BD0DFF8540700780C2816D07A
:1052E000DFF82407DFF8441791F8201049420F2215
:1052F00002FB01000F30DFF81017DFF8302792F8BB
:1053000020200F2303FB02110F2201F065FB01BDDA
:1053100010B5040002F091FA702002F0C1FA02F018
:1053200060FD607801280BD06078022808D0607892
:10533000032805D06078042802D06078FF2877D150
:105340002078002826D02078012823D02078022831
:1053500020D0207803281DD0207804281AD0207867
:10536000052817D02078072814D02078082811D0D5
:1053700020780B280ED020780C280BD020780A2813
:1053800008D02078092805D02078062802D0207877
:105390000D284DD12078DFF8941608706078DFF87A
:1053A0008C164870A078DFF884168870A088DFF823
:1053B0007C168880E088DFF87416C8806089DFF882
:1053C0006C164881207BDFF8641608732069DFF8CB
:1053D0005C1608616069DFF854164861A069DFF85F
:1053E0004C168861E069DFF84416C86194F8220021
:1053F000DFF8381681F8220094F82000DFF82C1628
:1054000081F82000FFF753FEFFF723FF012003F090
:10541000A9FC062003F041FE002001F092FB0120D0
:1054200001F066FB0120DFF86C1D0870002000E031
:10543000032010BDF0B583B0DFF85C0D00780028C4
:1054400005D0022800F02E81C0F07C81AEE1DFF8AB
:10545000DC0590F822600C20DFF8D4150880DFF816
:10546000CC0500780B2804D0DFF8C00500780C28A4
:1054700026D10DF10101012002F03AF8DFF8B00564
:105480000088401EDFF8A81508809DF80100CD288F
:1054900002D10020060013E09DF801003D2802D152
:1054A000012006000CE003F0A2FE00214FF4007082
:1054B00003F045FE672002F0F3F900F02CFA75E1E5
:1054C000DFF868050078072804D0DFF86005007869
:1054D000082828D100A9012002F00AF8DFF85005B9
:1054E0000088401EDFF8481508809DF800008D28D0
:1054F00002D10020060016E09DF80000722802D1BB
:10550000012006000FE003F072FE00214FF400704E
:1055100003F015FE672002F0C3F900F0FCF9022049
:1055200000F054FE42E1F6B23000FFF772FDDFF802
:105530006C1CDFF8FC040088C0B201F0D9FFDFF872
:105540005C0C0778FFB20A2F0CDA03F050FE002142
:105550004FF4007003F0F3FD672002F0A1F900F0B2
:10556000DAF923E1F6B2002E67D1FFB2380001F07C
:1055700039FB01F0D5FB0022DFF8243C01F0F8FBF9
:105580000022DFF8203C03F041FE04000D00FFB2D2
:10559000380001F027FB01F0C3FB0022DFF8003CDC
:1055A00001F0E6FB0022DFF8FC3B03F02FFE03F0E6
:1055B00059FF80B203F08CFF02000B00200029008D
:1055C00003F094FF0022002304F050F818D2FFB239
:1055D000380001F007FB01F0A3FB0022DFF8C03B1D
:1055E00001F0C6FB0022DFF8BC3B03F00FFE0022F7
:1055F000DFF8B43B01F0BCFB03F034FF80B212E0F3
:10560000FFB2380001F0EEFA01F08AFB0022DFF869
:10561000903B01F0ADFB0022DFF8883B03F0F6FD84
:1056200003F020FF80B2FFB280B217EB4000C01C35
:10563000DFF8681BA1F8400108E0F6B2012E05D1A1
:10564000FFB2781CDFF8541BA1F84001DFF84C0BC7
:10565000B0F84001DFF8D8130988401ADFF84C1B76
:105660000880DFF8480B00885F2808DB3020DFF86F
:10567000401B08700120DFF8201B087009E0DFF8EC
:105680002C0B0088DFF8281B08700220DFF8081BAD
:105690000870DFF81C0B0078D0F16000C0B204F095
:1056A0000EF883E0672002F0FBF800214FF4007051
:1056B00003F045FDDFF8E40ADD4909880918DFF841
:1056C000EC0A0088C0B201F013FFDFF8D00AB0F88E
:1056D0004001D7490988401ADFF8D01A0988401AD2
:1056E000DFF8C81A0880712002F0DAF8542003F0BD
:1056F000E6FF0020DFF8A01A0870DFF8B80A00788B
:10570000012807D1002000F09AFF0020DFF8A41A3A
:10571000087016E00DF10202DFF8800AB0F84011BF
:10572000DFF8780ADFF8903A1B6898479DF8020086
:10573000FF2802D100F0EFF803E00120DFF87C1A27
:10574000087033E02F20DFF8781A0870DFF84C0A71
:10575000B74909880918DFF8680A007801F0C8FE1F
:10576000B3480088DFF8581A09780818B04908804B
:10577000DFF8280AB0F84001AD490988401ADFF87F
:105780002C1A0880DFF8240A00885A280BDADFF880
:105790001C0A0088D0F16000C0B203F090FF022024
:1057A000DFF8F419087001A803F006FDF7BD10B585
:1057B00082B000A803F000FD9DF80000C0F3800057
:1057C000C0B2002813D00120DFF8901C0870DFF869
:1057D000F4090078012840F09D800020DFF8E819E6
:1057E000096888470020DFF8DC19087092E09DF80E
:1057F000010010F00100002854D000214FF4807007
:1058000003F09DFC602003F06BFF03F047FF0400F2
:10581000DFF84C0CB0F84201E4B2201861282BDB11
:10582000DFF83C0CDFF8381CB1F840110918D4F14E
:105830005F00C0B201F0DFFD302003F051FFDFF860
:10584000200CB0F84201E4B2B4F15F010818DFF8AF
:10585000101CA1F84201DFF8080CB0F840015F30DD
:10586000E4B2001BDFF8F81BA1F8400101214FF45E
:10587000807003F064FC12E0DFF8E40BDFF8E01B5B
:10588000B1F840110918DFF8D80BB0F84201C0B2E6
:1058900001F0B1FD0020DFF8C81BA1F8420103F0C0
:1058A00043FF37E09DF80100C0F34000C0B200287C
:1058B00002D0FFF7BFFD2DE09DF80000C0F380107F
:1058C000C0B200280CD003F092FC00214FF400700D
:1058D00003F035FC672001F0E3FF00F01CF819E04D
:1058E0009DF80300C0F34010C0B2002812D0712010
:1058F00001F0D6FFDFF8BC080078012806D10020AF
:10590000DFF8B0180870022000F099FE0120DFF8DF
:10591000541B087013BD10B50C20DFF894180870E4
:105920000020DFF87418087003F03BFF040020002B
:1059300001F058F93D49C96903F064FF0BD8012013
:10594000DFF8201B08700020DFF8681808700220BC
:1059500000F075FE1EE0712001F0A2FF200001F0B2
:1059600041F901003148C06903F05EFF03F09CFA81
:10597000542003F0A4FE01214FF4007003F0DFFB7C
:1059800001215FF0005003F0DAFB04F07CF96120A4
:1059900001F086FF10BD10B50400244840780128AE
:1059A00011D02248407802280DD0204840780328A2
:1059B00009D01E484078042805D01C484078FF28AC
:1059C00001D003201FE0194890F82000FFF793FB57
:1059D0001648007807280BD014480078082807D00C
:1059E000124800780B2803D0104800780C2809D101
:1059F000E4B2012C03D1042004F088F902E0002075
:105A000004F084F9002010BDE8140020491700209C
:105A10000000C8C2D416002040150020D81600206F
:105A200000007AC4DC160020E0160020740200207A
:105A3000121700200200107B0B7B98421DD1906949
:105A40008B69984219D110690B69984215D1506938
:105A50004B69984211D150684B6898420DD19068BB
:105A60008B68984209D1B2F90000B1F90030984230
:105A700003D1507B4B7B984201D0012000E00020F5
:105A80007047020090788B78984207D150784B7815
:105A9000984203D110780B78984201D0012000E0A1
:105AA0000020704710B590B0DFF8F00B4078012867
:105AB00015D0DFF8E80B4078022810D0DFF8DC0BB7
:105AC000407803280BD0DFF8D40B4078042806D0A8
:105AD000DFF8C80B4078FF2801D0002058E30024ED
:105AE0000020ADF8040000208DF8100044F620607E
:105AF0000390DFF8A80B0078002820D0012854D0AC
:105B0000022800F08780032800F0FE80042800F0BF
:105B10003081052800F09F81072800F0EB810828DC
:105B200000F0E881092800F089820A2800F08882C4
:105B30000B2800F04D820C2800F05A8282E20020EF
:105B40008DF81100DFF8580B02904FF400400590DB
:105B50004CF250300690DFF84C0B079000208DF887
:105B60000000DFF8380B4089B0F5907F06DBDFF8E6
:105B70002C0B408917388DF8010002E041208DF888
:105B80000100DFF8180B007B02280ADBDFF80C0BA2
:105B9000007B092805DADFF8040B007B8DF8020092
:105BA00002E004208DF802004CE200208DF8110084
:105BB000DFF8EC0A02904FF4004005904CF25030B0
:105BC0000690DFF8E00A079002208DF80000DFF869
:105BD000CC0A4089182806DBDFF8C00A40890F3854
:105BE0008DF8010002E01E208DF80100DFF8AC0AFC
:105BF000007B02280ADBDFF8A40A007B092805DA0B
:105C0000DFF8980A007B8DF8020002E008208DF88A
:105C1000020017E200208DF81100DFF8800A4089A9
:105C2000B0F58B7F38DDDFF8780A02904FF4004042
:105C300005904CF250300690DFF8680A079000207B
:105C40008DF80000DFF8540A4089B0F58B7F03DC43
:105C500041208DF8010005E0DFF8400A408917383F
:105C60008DF80100DFF8340A007B002804D0DFF84B
:105C70002C0A007B092801DB012000E00020C0B2D3
:105C8000002803D008208DF802003CE0DFF80C0A61
:105C9000007B8DF8020036E0DFF8040A02904FF432
:105CA000004005904CF250300690DFF8F80907905C
:105CB000DFF8E80940890F388DF8010002208DF8DF
:105CC0000000DFF8D8094089182806DBDFF8CC0986
:105CD00040890F388DF8010002E01E208DF8010088
:105CE000DFF8B809007B02280ADBDFF8B009007B87
:105CF000092805DADFF8A409007B8DF8020002E02C
:105D000008208DF802009DE100208DF81100DFF8D9
:105D1000740A0290DFF8700A05904CF25030069039
:105D2000DFF8680A079006208DF80000DFF86C099C
:105D30004089182806DBDFF86409408913388DF89C
:105D4000010002E01A208DF80100DFF85009007B05
:105D500002280ADBDFF84409007B092805DADFF8AE
:105D60003C09007B8DF8020002E004208DF802005F
:105D700068E100208DF811000120DFF8201981F87A
:105D80002100DFF8180990F82000002831D0DFF852
:105D9000100902904FF4004005904CF250300690EC
:105DA000DFF80009079002208DF80000DFF8EC080A
:105DB0004089182806DBDFF8E40840890F388DF8A1
:105DC000010002E01E208DF80100DFF8D008007B02
:105DD00002280ADBDFF8C408007B092805DADFF8AF
:105DE000BC08007B8DF8020034E004208DF802002E
:105DF00030E0DFF890090290DFF88C0905904CF252
:105E000050300690DFF88409079006208DF80000D6
:105E1000DFF888084089182806DBDFF88008408909
:105E200013388DF8010002E01A208DF80100DFF828
:105E30006C08007B02280ADBDFF86008007B092879
:105E400005DADFF85808007B8DF8020002E0042034
:105E50008DF80200F6E0DFF8440890F820000028F2
:105E600003D0DFF83C08029012E0DFF830088078B9
:105E700003F02EFB0022DFF8E43A03F067FF5FF047
:105E8000C052DFF8DC3A00F073FF03F001FB029030
:105E900000208DF811004FF49650059041F270707B
:105EA000069044F62060079002208DF80000DFF88D
:105EB000EC074089302806DBDFF8E0074089273807
:105EC0008DF8010002E039208DF80100DFF8CC07E1
:105ED000007B02280ADBDFF8C407007B092805DA0B
:105EE000DFF8B807007B8DF8020002E008208DF88B
:105EF0000200A7E0DFF8A4078078002808D0022875
:105F000026D015D3042843D032D3052850D05EE0E4
:105F100050208DF81100DFF84C0A02904FF4966083
:105F200006904FF4FA5007904FF4965005904EE0CB
:105F300050208DF81100DFF8300A02904FF496607F
:105F400006904FF4FA5007904FF4965005903EE0BB
:105F500050208DF81100DFF8140A02904FF41660FB
:105F600006904FF4FA5007904FF4166005902EE01B
:105F700050208DF81100DFF8F80902904FF41660F8
:105F800006904FF4FA5007904FF4166005901EE00B
:105F900050208DF81100DFF8DC0902904FF4966074
:105FA00006904FF4FA5007904FF4965005900EE08B
:105FB00050208DF81100DFF8C00902904FF4966070
:105FC00006904FF4FA5007904FF49650059039E040
:105FD00000208DF81100DFF8AC0702904AF6C87077
:105FE0000690DFF8A4070590DFF89009079029E0F4
:105FF000DFF8A80690F8200000280FD050208DF878
:106000001100DFF87C09029046F2A81006904CF2CD
:1060100050300590DFF86C0907900EE000208DF8F5
:106020001100DFF8600702904AF6C8700690DFF8AA
:1060300058070590DFF84409079003E00020A7E027
:106040000020A5E00298DFF85416496A081802906B
:1060500001A9DFF83409FFF7EDFC002809D001A8F9
:1060600001F054FFDFF8200901A91C2200F0C4FC54
:10607000641CDFF82806006900F0AAFDDFF80C199F
:10608000096803F035FF13D0DFF81006006900F04F
:106090009FFD0100002002F0C1FDDFF8000600694D
:1060A00000F096FDDFF8E4180860002002F0F6FD2D
:1060B000DFF8E8054069DFF8D818096888420BD096
:1060C000DFF8D805406900F06DFDDFF8D0054069C4
:1060D000DFF8BC180860641CDFF8C005C069DFF891
:1060E000B418096803F004FF0BD0DFF8B005C069ED
:1060F00002F0DAFEDFF8A405C069DFF8981808603E
:10610000641CDFF898050078072804D0DFF88C05B8
:10611000007808280ED10CA8DFF87C18102200F0B7
:106120006BFC0CA803F0F2FE40F6FF7003F0B4FF26
:10613000641C2BE0DFF8640500780B2804D0DFF83E
:106140005C0500780C280ED108A8DFF85018102242
:1061500000F052FC08A803F0D9FE40F6FF7003F0EF
:106160009BFF641C12E0DFF8381800A8FFF789FCD9
:1061700000280BD000A803F0B3FF40F6FF7004F036
:1061800024F80098DFF818180860641C2000C0B2DA
:1061900010B010BD4A1700204C1700201407002033
:1061A000000022C0000030400000F03F1017002027
:1061B0004B17002046170020E81600204417002047
:1061C0004D17002047170020EC1600207CB5040076
:1061D00001F060FB0500EDB2002D01D103F0A4FA3F
:1061E000E4B2002C12D0022C00F0A8802ED3042C94
:1061F00000F0108180F03081EDB2002D01D101F06E
:1062000015FB0020DFF8A017087025E1EDB2012D85
:1062100004D101F012FB01F0E4FD16E0DFF8840781
:106220000078C0B24008C0B2402803D1622001F01B
:1062300037FB0AE0DFF86C070078C0B24008C0B254
:10624000332802D1672001F02BFB05E1EDB2012DCF
:1062500004D101F0F2FA01F0C4FD16E0DFF84407C2
:106260000078C0B24008C0B2402803D1622001F0DB
:1062700017FB0AE0DFF82C070078C0B24008C0B274
:10628000332802D1672001F00BFB0020734908700E
:106290000120FFF780FBDFF804040078072813D003
:1062A000DFF8F803007808280ED0DFF8F003007854
:1062B0000B2809D0DFF8E40300780C2804D06848E4
:1062C000B0F8400103F081FF722001F0E9FA02F01A
:1062D0008EFF002601969DF8040050F004008DF812
:1062E000040001A802F010FF5D48B0F840016128E9
:1062F00017DB302003F0F4F901214FF4807002F035
:106300001EFF5749602001F076F85548B0F840016B
:1063100060385349A1F8420160205149A1F8400179
:1063200006E04F494E48B0F84001C0B201F063F8B2
:1063300003F07BFC602001F0B3FA8DE0EDB2012D9B
:1063400004D101F07AFA01F04CFD16E0DFF85406B2
:106350000078C0B24008C0B2402803D1622001F0EA
:106360009FFA0AE0DFF83C060078C0B24008C0B2ED
:10637000332802D1672001F093FA00203A490870CF
:106380000020DFF828160870002036490870002029
:10639000FFF701FB4FF6F07003F017FF542003F0F6
:1063A0008EF9712001F07CFA002600969DF801001C
:1063B00050F002008DF801009DF8030050F020001D
:1063C0008DF803009DF8000050F040008DF80000AB
:1063D000012000F08DFB022002F05FFE00A802F019
:1063E00093FE02F004FF0C20DFF8C4150870DFF8FC
:1063F000C4050078012807D10020DFF8B81508701F
:106400000120DFF8B415087003F03DFC612001F0B5
:1064100047FA21E0EDB2012D04D101F00EFA01F0AE
:10642000E0FC16E0DFF87C050078C0B24008C0B29E
:10643000402803D1622001F033FA0AE0DFF8640556
:106440000078C0B24008C0B2332802D1672001F002
:1064500027FA632001F024FA002076BD43170020BC
:10646000D0050020451700204C170020F8B5040087
:106470000D0016000027DFF8440506608748007805
:10648000072803D08548007808283AD1BFB2022FE8
:1064900006DA5520DFF82815BFB278547F1CF5E7DF
:1064A000F620DFF81C15BFB278547F1C7B4890F8AB
:1064B0002200002806D18D20DFF80415BFB27854E1
:1064C0007F1C0AE0754890F82200012805D172204F
:1064D000DFF8EC14BFB278547F1C7819DFF8E014B1
:1064E000A1F84001DFF8D804B0F84001BFB28742FC
:1064F00068D22078DFF8C814BFB27854641C7F1CBF
:10650000F0E7664800780B2803D0644800780C2830
:1065100046D1BFB2042F06DA5520DFF8A414BFB26B
:1065200078547F1CF5E75420DFF89414BFB27854F8
:106530007F1C3D20DFF88814BFB278547F1C5420A4
:10654000DFF87C14BFB278547F1C544890F82200C6
:10655000002806D1CD20DFF86814BFB278547F1C24
:106560000AE04E4890F82200012805D13D20DFF8CE
:106570005014BFB278547F1C7819DFF84414A1F886
:106580004001DFF83C04B0F84001BFB2874219D2A5
:106590002078DFF82C14BFB27854641C7F1CF0E71D
:1065A00000200700BFB2ADB2AF4207D22078DFF8BB
:1065B0001014BFB27854641C7F1CF3E7DFF80004AA
:1065C000A0F840510120DFF8FC1308700120FFF70C
:1065D000FDFD002801D1002000E00B20F2BDF8B540
:1065E00004000D001600002700200700FFB2FF2F57
:1065F00006D00020DFF8C813FFB278547F1CF5E7FF
:10660000DFF8C4030560002C05D0200000F0EAFA92
:106610002249C86103E02148C0692049C861DFF808
:10662000AC0306600120DFF88C1308700220FFF72E
:10663000CDFD002801D1002000E00F20F2BD10B5F3
:106640000400E4B2002C03D0022C10D01AD31EE0B8
:10665000DFF88003B0F84011DFF87803DFF86C232F
:10666000126890473020DFF84813087013E00021CB
:106670000020DFF85823126890473020DFF83013ED
:10668000087008E03020DFF82813087003E030209D
:10669000DFF81C13087010BD000000007402002019
:1066A000E034C133F049020038B504000D00E4B213
:1066B000200000281CD001281ED0022820D003284A
:1066C00022D0042824D0052826D0062828D0072840
:1066D0002AD0082836D0092838D00A2828D00B28F4
:1066E0002AD00C2836D00E2839D00F2841D044E0CB
:1066F000B7480078286042E0B548407828603EE01E
:10670000B348807828603AE0B1488088286036E055
:10671000AF48C088286032E0AD48008928602EE08C
:10672000AB48408928602AE0A948007B286026E021
:10673000A7488069286022E0A548C06903F05CFD95
:1067400028601CE0A2480069286018E0A048406961
:10675000286014E09E4890F8200028600FE09C48D4
:1067600090F82200012801D1012000E000202860DB
:1067700005E09748406A286001E00F2000E0002013
:1067800032BD0000F01FCB33A086010090D0030083
:1067900038B504000D00E4B22000002820D0012804
:1067A00034D0022839D0032844D004284BD00528FF
:1067B00052D0062859D0072864D0082800F0A380BA
:1067C000092800F0AC800A2869D00B286ED00C286C
:1067D0007CD00E2800F08A800F2800F0AD80B8E051
:1067E00001207B4981F82100794805700020784913
:1067F00088700020764948810020754908736A48EE
:106800000078002801D0FEF724FDA4E001207049A3
:1068100081F821006E4845709DE001206C4981F8A7
:1068200021006B48857060480078002801D0FEF791
:1068300010FD90E00120664981F821002800C0B2D7
:106840006349888087E00120614981F821002800A0
:10685000C0B25F49C8807EE001205D4981F8210017
:106860002800C0B25A49088175E00120584981F8D2
:106870002100574845814C480078002801D0FEF798
:10688000E8FC68E00120524981F821005048057376
:1068900045480078002801D0FEF7DBFC5BE00120D2
:1068A0004B4981F821004A48856154E0012048495C
:1068B00081F82100280000F095F94549C8613A485F
:1068C0000078002801D0FEF7C4FC44E001204049D4
:1068D00081F82100002D04D001203D4981F82000DD
:1068E00003E000203A4981F8200034E000203849D4
:1068F00081F82100012D01D1012000E00020344960
:1069000081F8220027E00120314981F82100280088
:1069100000F05EF903F082FC2D4908611BE00120C4
:106920002B4981F821002A4845611F48007800283A
:1069300001D0FEF78EFC0EE00120254981F82100F0
:106940002348456218480078002801D0FEF781FCF2
:1069500001E00F2000E0002032BD00000088C340AD
:106960008BDEC9412AEF180AFE1F190AD250190AF4
:10697000A681190A7AB2190A4EE3190A400D0300DA
:1069800008E6D333C0D4010040150020DC160020F7
:10699000E0160020D4160020845401089454010805
:1069A000D8160020901600204A1700204417002017
:1069B0004B1700204817002046170020EC16002037
:1069C000D005002047170020E8160020E41600201C
:1069D000740200201407002062B38B0708D0521EF7
:1069E00011F8013B00F8013B00F024808B07F6D141
:1069F000830740F0208000BF103A07D330B4B1E8DD
:106A00003810103AA0E83810F9D230BC530724BF30
:106A1000B1E80810A0E8081044BF51F8043B40F862
:106A2000043BD20724BF31F8022B20F8022B44BFCD
:106A30000B7803707047083A07D3B1E80810083A9A
:106A400040F8043B40F804CBF7D25307E4E770B5B5
:106A500004000D000026AC4207D02178300080B23F
:106A600000F029F80600641CF5E7B6B2F643B6B2AA
:106A7000300A28706E7070BD70B504000D000026DD
:106A8000AC4207D02178300080B200F014F8060044
:106A9000641CF5E7B6B2F6432878B6B2310AC9B23B
:106AA000884206D168783100C9B2884201D10120FC
:106AB00000E0002070BD10B400231A00D2B2082AF2
:106AC00013DA80B2031213F08003C9B211F080040C
:106AD00094EA030F05D0400080F4745090F06500F4
:106AE00000E040004900521CE8E780B210BC70474B
:106AF0001CB5040000AA01213A2000F08CFB019093
:106B0000DFF8C800BDF804100180E4B2012C06D102
:106B10009DF8000050F002008DF8000005E09DF89F
:106B2000000010F0FD008DF8000000AA01213A20BD
:106B300000F0DCFA0190DFF89400BDF80410018049
:106B400013BD1CB5040000AA01213A2000F063FB2C
:106B500001901E48BDF8041001809DF8000010F05F
:106B60003F008DF800009DF8000020438DF80000E4
:106B700000AA01213A2000F0B9FA01901348BDF8AB
:106B80000410018013BD00B583B000AA0121C82004
:106B900000F041FB01900D48BDF8041001809DF804
:106BA00000000EBD1CB5040020007E38C0B24000BD
:106BB0008DF8000000AA0121222000F097FA019030
:106BC0000248BDF80410018013BD0000901600209B
:106BD000002840F10980F446404200F005F850F0EA
:106BE00000406047002800BF0AD0B0FA80F188401A
:106BF000D1F19D01C905020672F1004241EB10205E
:106C0000704750F8041B61B150F8042BD30744BF00
:106C1000A9F101039A180023091F42F8043BFAD195
:106C2000EFE7704710B5FF2313EAD0541DBF13EAF6
:106C3000D1529C429A4239E0A41ADA0780EA010351
:106C4000134042EA012142EA0020421A3CBF641E7E
:106C500001EB4202090AB2FBF1FE01FB1E22120205
:106C6000B2FBF1F001FB10226EF30F201202B2FB17
:106C7000F1FE4EEA00207F3406DDFE2C24DA53EAD2
:106C8000500050EBC45010BDD4F1020401FB1E2291
:106C900040F08071192C1DDC21FA04F0C4F12004AD
:106CA000A140114371F10042584110BD9C421ABFEE
:106CB00003EAD1529A420FE080EA010E0EF000433F
:106CC000400004D0490016D143F0FF4010BD4900F8
:106CD00008BFD343180010BD9C4205D1D21AF7D08B
:106CE00001F00041484010BD4A0212BF084648402A
:106CF00000F0004010BD4AB90902B1FA81F291409A
:106D000044B1A418C00140F000409EE7C90141F021
:106D1000004152420002B0FA80F4A040141B94E7F4
:106D20005FF0FF0C1CEAD05114BF614506E0C110B2
:106D3000400721F0E04101F16051704779B900F05E
:106D4000004100020AD0B0FA80FC00FA0CF001F118
:106D50006051A1EB0C5101EBD0214005704741027D
:106D60000CBF40F4E0016FF0000100207047040008
:106D7000F0B44FF0004591EA030C44BF6B4002F0C1
:106D8000BFBB00BF841A71EB030603D2001BB141E5
:106D9000121973414FF4001C1CEB410F34BF7CEB04
:106DA000430443E00C0DA4EB1356352E50DC45EAAA
:106DB000C323DB0A45EAC121C912B6F120050DDD66
:106DC00063FA05F6EB4086EA0305124218BF45F068
:106DD0000105C01851F100010CD213E062FA06F56A
:106DE000F2405540F3415A40B340F3405A408018B6
:106DF000594107D349085FEA30005FEA350528BFEB
:106E000045F0010501F58011420875F1004250F18D
:106E1000000041EB0451F0BC4FF4001C1CEB410F8F
:106E200038BF70470020090D090570471CEB410F62
:106E300010D252EA43060BD0BCEB410F05D80C0D23
:106E4000AB43661E342EB5DD02E0AB4380185941DA
:106E5000F0BC7047F0BC70474FEAF17CBCF1E04CED
:106E60002CBFBCF5001F11E05FEA4C0C34BFBCF135
:106E70007F5F2EE05FEA9C0C4FEA0C1C4FEA3C0C53
:106E8000C10071F100414CEB50707047C90241EAFA
:106E90005051C00218BF41F0010141F000414FEADA
:106EA0006C50C0F10900212810D240EACC7CCCF112
:106EB000200C11FA0CF070F10040CCF1200C21FAFA
:106EC0000CF00CF0004C40EB0C0070474FEACC701B
:106ED0007047490011F5001F04D84FEACC10FF306D
:106EE000C0057047C817704700B587B003F031FA86
:106EF000DFF81417C0B251F82000DFF8101708604F
:106F000003F027FADFF8081711EB4000DFF8041749
:106F1000086003F01EFADFF8001711EB8000DFF8BD
:106F2000FC16086003F015FA002853D101214FF434
:106F3000805003F0F0FA0121102003F0DDFA052261
:106F40000F21DFF8DC0603F0CEFB05220E21DFF86F
:106F5000D00603F0C8FB05220D21DFF8C40603F0BC
:106F6000C2FB02208DF8040000208DF806000220EC
:106F70008DF8070003208DF805004FF400500090B5
:106F800000A9DFF89C0603F047FB4FF48040009017
:106F900000A9DFF88C0603F03FFB4FF4004000909F
:106FA00000A9DFF87C0603F037FB4FF48050009017
:106FB00001208DF8040000208DF8060001208DF8D6
:106FC000070003208DF8050000A9DFF8540603F040
:106FD00023FB52E00121022003F08EFA05220E214C
:106FE000DFF8400603F07FFB05220F21DFF83406AF
:106FF00003F079FB05220D21DFF8280603F073FB6F
:1070000002208DF8040000208DF8060002208DF883
:10701000070003208DF805004FF40050009000A9F0
:10702000DFF8000603F0F8FA4FF40040009000A9E2
:10703000DFF8F00503F0F0FA4FF48040009000A96B
:10704000DFF8E00503F0E8FA4FF4805000900120EB
:107050008DF8040000208DF8060001208DF807004F
:1070600003208DF8050000A9DFF8B80503F0D4FA75
:1070700001214FF4804003F05DFADFF890050068CD
:1070800003F05EFB4FF48270ADF80A000020ADF80B
:1070900008000020ADF80C000020ADF80E00002024
:1070A000ADF810004FF40070ADF812000820ADF8F4
:1070B00014000020ADF816000720ADF8180002A952
:1070C000DFF84805006803F05DFB0121DFF83C05AF
:1070D000006803F072FBDFF83C0500680088DFF809
:1070E0003C1509680968088307B000BD2DE9F04127
:1070F00084B004000D0016000020ADF802000DF170
:10710000020700208DF804008DF8054072B6DFF804
:10711000040500680088DFF80415096809684883D9
:107120000020ADF80000BDF80000002805D1BDF832
:107130000000401CADF80000F5E75FF00008B8F172
:10714000020F2BDA0221DFF8C404006803F047FBCA
:107150000028F7D001A818F8001089B2DFF8AC04B5
:10716000006803F03AFB0121DFF8A004006803F097
:1071700036FB0028F7D0DFF89404006803F02BFBFF
:10718000BDF8021080B2D8F10102D2B2D200904014
:107190004018ADF8020018F10108D0E75FF00008D0
:1071A000EDB2A8451FDA0221DFF86004006803F0A1
:1071B00016FB0028F7D018F8061089B2DFF84C0447
:1071C000006803F00AFB0121DFF84004006803F0C7
:1071D00006FB0028F7D0DFF83404006803F0FBFA60
:1071E00018F10108DCE70221DFF82004006803F051
:1071F000F6FA0028F7D0DFF81C0400680088DFF8F2
:107200001C1409680968088362B6388802900298DD
:1072100004B0BDE8F0812DE9FE4304000D00160026
:107220000020ADF802000DF102074FF0FF08012029
:107230008DF804008DF8054072B6DFF8D8030068B9
:107240000088DFF8D8130968096848830020ADF882
:107250000000BDF80000002805D1BDF80000401C6A
:10726000ADF80000F5E75FF00009B9F1020F2BDA85
:107270000221DFF89803006803F0B1FA0028F7D084
:1072800001A819F8001089B2DFF88003006803F044
:10729000A4FA0121DFF87403006803F0A0FA0028C3
:1072A000F7D0DFF86803006803F095FABDF8021024
:1072B00080B2D9F10102D2B2D20090404018ADF8AC
:1072C000020019F10109D0E75FF00009EDB2A9450C
:1072D0001EDA0221CD48006803F081FA0028F8D0B8
:1072E0005FFA88F8414689B2C848006803F075FA29
:1072F0000121C648006803F072FA0028F8D0C3489C
:10730000006803F068FA3070761C19F10109DDE7B6
:107310000221BE48006803F062FA0028F8D0BD4898
:1073200000680088BD4909680968088362B6388822
:1073300002900298BDE8FE8370B584B0040000207E
:10734000ADF802000DF1020580208DF804008DF8E3
:10735000054072B6AF4800680088B04909680968FE
:1073600048830020ADF80000BDF80000002805D1DA
:10737000BDF80000401CADF80000F5E70026022E25
:1073800025DA0221A148006803F029FA0028F8D084
:1073900001A8315C89B29D48006803F01EFA012102
:1073A0009A48006803F01BFA0028F8D09748006854
:1073B00003F011FABDF8021080B2D6F10102D2B288
:1073C000D20090404018ADF80200761CD7E70221A9
:1073D0008E48006803F003FA0028F8D08D48006852
:1073E00000888E4909680968088362B62888029077
:1073F000029804B070BDFEB504000D000020ADF889
:1074000002000DF1020600208DF80400FF208DF827
:10741000050072B67F4800680088804909680968DD
:1074200048830020ADF80000BDF80000002805D119
:10743000BDF80000401CADF80000F5E70027022F62
:1074400025DA02217148006803F0C9F90028F8D054
:1074500001A8395C89B26D48006803F0BEF90121CA
:107460006A48006803F0BBF90028F8D06748006854
:1074700003F0B1F9BDF8021080B2D7F10102D2B227
:10748000D20090404018ADF802007F1CD7E70027DB
:10749000E4B2A74219DA02215C48006803F09FF9C0
:1074A0000028F8D0795D89B25848006803F095F952
:1074B00001215648006803F092F90028F8D053489B
:1074C000006803F088F97F1CE2E702214F4800685A
:1074D00003F085F90028F8D04E48006800884F492D
:1074E00009680968088362B6308802900298FEBD78
:1074F0002DE9F04184B004000D000020ADF8020039
:107500000DF10206FF2701208DF80400FF208DF801
:10751000050072B63F48006800884049096809685C
:1075200048830020ADF80000BDF80000002805D118
:10753000BDF80000401CADF80000F5E75FF0000862
:10754000B8F1020F27DA02213048006803F047F94A
:107550000028F8D001A818F8001089B22B4800685C
:1075600003F03BF901212948006803F038F90028AD
:10757000F8D02648006803F02EF9BDF8021080B25A
:10758000D8F10102D2B2D20090404018ADF802000A
:1075900018F10108D4E75FF00008E4B2A0451DDA55
:1075A00002211A48006803F01AF90028F8D0FFB247
:1075B000390089B21548006803F00FF9012113481A
:1075C000006803F00CF90028F8D01048006803F0B8
:1075D00002F928706D1C18F10108DEE702210B4842
:1075E000006803F0FCF80028F8D00A48006800881A
:1075F0000A4909680968088362B6308802900298CF
:1076000004B0BDE8F08100005C0300207416002087
:10761000F45401087C16002068030020781600202E
:10762000001002400004024062F30F2262F31F4286
:10763000401810F0030308D0C91A1FD3DB0748BF56
:1076400000F8012D28BF20F8022D130030B4144695
:107650001546103928BF20E93C00FAD8490728BF51
:1076600020E90C0048BF40F8042D890028BF20F80D
:10767000022D48BF00F8012D30BC7047C91818BF53
:1076800000F8012DCB0728BF00F8012D7047080036
:107690000300002013F0030F09D0521E22BF13F87D
:1076A000010B11F801CBB0EB0C00F3D07047121FA7
:1076B00022BF53F8040B51F804CB6045F7D0121DDC
:1076C0000AD200BA9CFA8CFCB0EB0C0038BF6FF009
:1076D000000088BF01207047521E22BF13F8010B23
:1076E00011F801CBB0EB0C00F6D0521C08BF1046CD
:1076F000704702007FB504000D00002602F029FE4D
:107700000121574AC0B24010142303FB0020E4B209
:1077100050F8240002F0F0FE0121012002F0FBFEEF
:10772000EDB2022D03D101208DF8040002E000200B
:107730008DF804004B48E4B2205C8DF807004A48FD
:10774000E4B2205C8DF805004848E4B2205C8DF876
:1077500006004748E4B230F81400009002F0F9FD4A
:1077600000A9444AC0B24010142303FB0020E4B235
:1077700050F8240002F050FF3F48E4B250F82400D3
:1077800002903E48E4B2205C8DF80C003C48E4B224
:10779000205C8DF80D008DF80E60EDB2012D10D13A
:1077A00002F0D7FD3749E4B2615C374AC0B24010FD
:1077B00012EB8000E4B2205C03F02FF801208DF87A
:1077C0000E00E4B2042C02D002A803F053F87FBDEF
:1077D000F8B504000D0016001F002C48E4B2205C30
:1077E0008DF800008DF801508DF802608DF803705F
:1077F00000A803F0BAF8F1BD10B5040002F0A9FD2D
:107800001C49C0B24010142202FB0010E4B250F830
:10781000240002F062FF01001548E4B230F81400C1
:10782000014201D0012000E0002010BD80B54FF4DE
:107830000051174802F053FF01BD80B54FF40051CD
:10784000134802F04EFF002000900098B0F5F05F62
:1078500003D20098401C0090F7E701BD0000000033
:107860004C530108DC540108D4540108E4540108C5
:10787000B45401084C020020745401081C5501083E
:107880002055010818550108EC5401082455010839
:107890000008024080B50420FFF7AEFF02BD0300E0
:1078A00010B582B004002000C0B2FFF745FD009083
:1078B0000248BDF80010018013BD00BF90160020E3
:1078C00080B51021DFF8C40503F013F9002809D0B2
:1078D0000120DFF8BC1508701021DFF8B00503F0B7
:1078E00021F90FE00421DFF8A40503F002F90028D4
:1078F00008D00120DFF8981508700421DFF88C0506
:1079000003F010F901BD80B51021DFF8880503F000
:10791000F0F8002809D00120DFF874150870102154
:10792000DFF8700503F0FEF80FE00421DFF86405CE
:1079300003F0DFF8002808D00120DFF854150870A4
:107940000421DFF8500503F0EDF801BD2DE9F04FFB
:1079500091B002F0FEFC02280ED1DFF83805814616
:10796000DFF8340506900121042002F0E3FD012137
:10797000022002F0C1FD0DE0DFF810058146DFF8BE
:107980001C0506900121022002F0D4FD01210420F3
:1079900002F0B2FD00F073FA012813D10121042096
:1079A00002F0AAFDDFF8F804D0E90023CDE90E23A8
:1079B0000EA9DFF8E80402F02FFE0421DFF8DC0452
:1079C00002F08DFE5FF00008002400255FF0000A41
:1079D0000020ADF80A005FF0000B002602208DF8B1
:1079E000200003208DF8210000208DF822000120C6
:1079F0008DF823008020079007A9069802F00CFE5E
:107A0000DFF88804814501D1022200E00222D2B2CF
:107A10000721069802F067FE0420ADF8240000203C
:107A2000ADF826000120ADF828000C20ADF82A00A2
:107A30000020ADF82C0009A9484602F0EFFF012113
:107A4000484602F0DDFF01220421484603F046F8D3
:107A5000DFF83804814503D11D208DF80C0002E0C9
:107A60001E208DF80C000F208DF80D000F208DF8D2
:107A70000E0001208DF80F0003A802F076FF2920E8
:107A80008DF8080002AA0121B420FFF72FFBDFF8D0
:107A9000140400680D900DA803F036F9DFF808040F
:107AA00000680C900CA803F0BFF8012003F005F962
:107AB0000027302F6AD2DFF8D803007800280BD1D6
:107AC000BDF80A004FF6FF71884205D0BDF80A00E4
:107AD000401CADF80A00EEE7BDF80A004FF6FF7152
:107AE000884253D00020ADF80A000020DFF8A01330
:107AF0000870082F48D35FFA88F8B8F1000F06D154
:107B0000484602F0C3FF0400012080463CE05FFAD3
:107B100088F8B8F1010F37D1484602F0B7FF0500E9
:107B2000A4B2ADB2AC4203D2281B401E824602E092
:107B3000281B801E8246DFF8740300681FFA8AFA49
:107B4000B0FBFAF083463000FFF74CF8FFF7E8F897
:107B5000DFF85C23DFF85C3302F0F8F8CDE90001D0
:107B60005846FFF73FF8FFF7DBF85FF03332DFF8F6
:107B7000483302F0EBF8DDE90023FFF7F9F801F0F4
:107B800087FC0600002080467F1C92E74FF4C0600F
:107B90004643002003F091F80021484602F030FFF0
:107BA00000220421484602F099FF0021052003F03D
:107BB00050F821208DF8080002AA0121B420FFF717
:107BC00095FA3000FFF70EF8FFF7AAF80022DFF869
:107BD000EC3201F01BFBFFF73FF90490049802F030
:107BE0000BFBFEF7FFFF0100049801F01DFEDFF81C
:107BF000D01201F007FE08D8049802F0FDFA401CEC
:107C0000DFF8C0124843059006E0049802F0F4FA49
:107C1000DFF8B0124843059000210020FFF76AFD0D
:107C2000059801F03AF9059811B0BDE8F08F10B54C
:107C300003F0C6F9040003F07BF90400E4B214F089
:107C4000F000802804D10120040003F003FA01E0D1
:107C5000002004002000C0B210BD30B58BB0002061
:107C60008DF804009DF80400FF2805D09DF804005D
:107C7000401C8DF80400F5E701F056FD92480078AD
:107C8000C0B24008C0B20328E9D1FFF7D0FFC0B2AC
:107C900003F015FB03F010FB002802D1FFF756FE9E
:107CA00097E003AA2021002003F097FA0020029019
:107CB0009DF80C00002803D09DF80C00FF2802D18D
:107CC000FFF744FE85E09DF80D00002808D002284B
:107CD00012D00BD304281BD014D305281ED023E0C8
:107CE0007A480400200001F0D8F83CE0784804000D
:107CF000200001F0D2F836E076480400200001F0C0
:107D0000CCF830E074480400200001F0C6F82AE006
:107D100072480400200001F0C0F824E0704804001C
:107D2000200001F0BAF81EE05FF0FF30009004225E
:107D300000A90DF12700FFF7ABFC002802D1FFF7E7
:107D400005FE10E00020C0B2042809DA03A9C0B281
:107D50004118C97E00AAC0B2121AD170401CF2E7C5
:107D6000009801F09AF89DF81100002802D1002037
:107D700005000FE09DF81100012802D10120050047
:107D800008E09DF81100022802D10220050001E060
:107D9000002005002800C0B200F074F89DF80F0024
:107DA00000F019F803AA0421212003F016FA00209C
:107DB000C0B2042808DA03A9C0B2091AC97802AA15
:107DC000C0B28154401CF3E7029802F027FA00F099
:107DD00005F80BB030BD4349087070474249086050
:107DE000704710B58AB000F04AF80400E4B2012CE4
:107DF0002ED10121042002F07FFB3C48D0E9002372
:107E0000CDE9072307A9254802F006FC04212348F1
:107E100002F065FC012003F06DFA01208DF80000EE
:107E200000AA0121B620FFF761F9314800680690E9
:107E300006A802F0F9FE2F480068059005A802F098
:107E4000F3FE2D480068049004A802F0EDFE14E053
:107E5000E4B2022C11D129480068039003A802F073
:107E6000E3FE27480068029002A802F0DDFE2548E4
:107E70000068019001A802F0D7FE0AB010BD2248A8
:107E800000787047204908707047000000040040E7
:107E90001D170020000800400004024000080240B6
:107EA000FC540108385501083C550108D403002052
:107EB0009A9999999999D93F3333E33F80842E4118
:107EC0000100003F40420F009016002000366E0176
:107ED00040787D0180BA8C01006CDC0280F0FA02EF
:107EE000007519031F1700208C1600200455010887
:107EF0004055010844550108485501084C550108F2
:107F000050550108545501081E170020F0B587B0E0
:107F10000400A0208DF803000DF1030201219F2031
:107F2000FFF7E4F8B4F90000FEF752FE07006068BE
:107F3000FEF758FE390003F001FADFF86C17FEF780
:107F400071FE02F06BF905006320FFF7F5F90020E0
:107F50008DF800009DF80000FF2805D09DF8000076
:107F6000401C8DF80000F5E701F0DEFBDFF8780833
:107F70000078C0B24008C0B24028E8D1DFF86C08F1
:107F80000068DFF82817884203D2002000F049FF7C
:107F900002E0012000F045FF6220FFF7CDF900204C
:107FA0008DF800009DF80000FF2805D09DF8000026
:107FB000401C8DF80000F5E701F0B6FBDFF828085B
:107FC0000078C0B24008C0B20328E8D12800FEF70C
:107FD000FFFD5FF0914103F0B1F90700DFF80C08F5
:107FE0000068FEF7FFFD01003800FEF71BFE02F0FF
:107FF00015F90600300080B2001210F00F008DF865
:10800000160030008DF81700A0684002DFF8DC177A
:1080100009688909B0FBF1F0401C8DF81400606814
:1080200001F045FE0DF101020121A320FFF7F3F855
:108030009DF8010010F0FD008DF801000DF1010226
:108040000121A320FFF752F803AA0DF10D012069C9
:1080500000F02EFB9DF80D008DF81000607B9DF860
:108060000C1008438DF811000DF1010201211C20B4
:10807000FFF7D1F80DF106020DF10701606900F07C
:108080005FFC9DF806009DF8011011F0080151EA0F
:1080900000109DF8071008438DF8120001AA0DF199
:1080A0000501A06900F0AAFB9DF805009DF80410E9
:1080B00051EA00108DF81300DFF830070068000B5C
:1080C00001F006FA02000B000020DFF8241701F08F
:1080D0009DF80022DFF81C37FEF74AFEFEF7BCFED3
:1080E0000700380002F088F8FEF77CFD0100380038
:1080F00001F09AFBDFF8001701F084FB06D8380086
:1081000002F08CF8401C8DF8020004E0380002F008
:1081100073F88DF80200DFF8D4060068DFF88C15DC
:10812000884204D29DF802008DF815002EE0DFF899
:10813000BC060068400B01F0CBF902000B000020E8
:10814000DFF8AC1601F062F80022DFF8A836FEF77F
:108150000FFEFEF781FE0700380002F04DF8FEF733
:1081600041FD0100380001F05FFBDFF88C1601F0E3
:1081700049FB06D8380002F051F8401C8DF8150074
:1081800004E0380002F038F88DF815000DF1020215
:1081900001210720FEF7AAFF0290DFF84C06BDF888
:1081A00008100180DFF844060068DFF88C17884269
:1081B0000ED3DFF8380600684008DFF880178842E1
:1081C00001D3012000E00020C0B200F03DF80CE037
:1081D000DFF818060068DFF86417884201D3012031
:1081E00000E00020C0B200F02FF814F10C020121D1
:1081F0006C20FEF77BFF05AA04210C20FEF776FF1A
:1082000004AA04211A20FEF771FF0290DFF8D805B6
:10821000BDF808100180012000F060FD80208DF87D
:108220001400E3208DF8150005AA02219920FEF71D
:108230005DFF0290DFF8B005BDF8081001806068AE
:1082400000F025F907B0F0BD1CB5040000208DF842
:10825000000000AA01210120FEF7DDFF0190DFF8F8
:108260008805BDF804100180E4B2012C06D19DF808
:10827000000050F040008DF8000005E09DF800007F
:1082800010F0BF008DF8000000AA01210120FEF7C8
:108290002DFF0190DFF85005BDF80410018013BDDB
:1082A00030B40100DFF88007814206D3DFF87C0795
:1082B000814202D2062003001FE0DFF874078142EA
:1082C00006D3DFF87007814202D20C20030014E0CD
:1082D000DFF86407814206D3DFF86007814202D2EB
:1082E0001020030009E0DFF85807814205D3DFF8CA
:1082F0005407814201D220200300DFF82007B1FBA0
:10830000F0F0DBB258430200DFF83C07C08B82423A
:1083100002D30F20040021E00020040064B20F2CDF
:1083200008DADFF8240764B230F81400904201D272
:10833000641CF3E764B2002C10D0DFF80C0764B2C1
:1083400010EB440030F8020C101ADFF8FC5664B24F
:1083500035F81450AD1AA84200D2641E64B2082544
:1083600094FBF5F000FB1540C0B230BC704700B57F
:1083700083B000AA04210820FEF74DFF0190DFF82A
:108380006804BDF8041001809DF8000010F01F0083
:108390009DF80110490311EB40509DF8021010EBBD
:1083A00041109DF8031010EBD1000EBD00B583B055
:1083B00000AA01210B20FEF72EFF0190DFF8280410
:1083C000BDF8041001809DF8000010F0070001289E
:1083D00001D1002010E09DF8000010F007000328F4
:1083E00001D1012008E09DF8000010F007000428EA
:1083F00001D1022000E003200EBD00B583B000AA29
:1084000001216C20FEF707FF0190DFF8DC03BDF8C7
:10841000041001809DF800000EBD00B583B000AAD5
:1084200001210C20FEF7F7FE0190DFF8BC03BDF838
:10843000041001809DF80000DFF8B013096848437C
:10844000C00B0EBD1CB500AA02210E20FEF7E3FEF4
:108450000190DFF89403BDF8041001809DF800003E
:108460009DF8011011EB0021080502D551F470416F
:1084700001E00905090D0C0024B2DFF87003006863
:1084800000FB04F05FF4802290FBF2F016BD2DE9B2
:10849000F04F87B00400DFF89005844206D3DFF880
:1084A0008C05844202D2002081461FE0DFF880055F
:1084B000844206D3DFF87C05844202D20120814643
:1084C00014E0DFF87405844206D3DFF870058442B7
:1084D00002D20220814609E0DFF86405844205D318
:1084E000DFF86005844201D203208146FFF7AAFF2E
:1084F0008046FFF792FF0500FFF77FFF060018EBAD
:108500000400F6B206FB0500824600F073FC471C2F
:108510005FFA89F9B9F1000F2AD0B9F1020F0FD033
:108520001AD3B9F1030F2ED1DFF82407824503D205
:10853000002002F0EDFF02E0012002F0E9FF22E05E
:10854000DFF81007824503D2002002F0E1FF02E0CD
:10855000012002F0DDFF16E0DFF8FC06824503D2C1
:10856000002002F0D5FF02E0012002F0D1FF0AE076
:10857000DFF8E806824503D2002002F0C9FF02E0DE
:10858000012002F0C5FF5046FFF78AFE8DF810006B
:10859000DFF880045FFA89F919F8000000FB04F0A5
:1085A00000F096FFCDE90201FFB25FF4802000FBEE
:1085B00007F000F083FFCDE900018C48006800F06F
:1085C00087FF02000B00DDE9000100F01FFEDDE97E
:1085D000022301F0BBFB00F05BFF83465FEA5B50C8
:1085E00010F01F009DF81010490108438DF8140089
:1085F0005FEA5B308DF815005FEA5B108DF81600BE
:10860000DFF848045FFA89F919F8000050EACB0056
:108610008DF8170005AA04210820FEF767FD0090D9
:108620007148BDF800100180DFF8AC060078012821
:1086300002D101F03AFA00E0002007B0BDE8F08F67
:108640002DE9F047FFF793FE8246FFF7AFFE0700E4
:1086500000F0D0FB461C504600F03AFF80468946A9
:108660006248006800F034FF04000D00F6B2DFF845
:10867000A403FFB2385C00FB06F05FF4802148439E
:1086800000F01CFF02000B002000290000F0BEFDDE
:1086900042464B4601F05AFB02F05EFF00F0F8FE46
:1086A000BDE8F087000000000024744980C3C901C0
:1086B0002DE9FE4305000E00170000208DF808008C
:1086C0000F245FF0000900F0CEFB81469DF8080002
:1086D000002813D164B2002C10D4DFF83C030068EA
:1086E000D4F1140119EB01010200CA40954203D3F1
:1086F00001208DF80800E9E7641EE7E764B2002C6A
:1087000002D5002464B200E064B23C700120D4F1D0
:108710001701884000FB05F0DFF8FC12096819F129
:1087200005020B00D340B0FBF3F080460020C0B23E
:10873000032828DA5FFA88F8C0B210EB0801491E56
:10874000002918D05FFA88F8C0B210EB0801FF3199
:10875000B14A126819F1050394463CFA03FC0CFB7C
:1087600001F1D4F117020B00D340E91A00AAC0B2FC
:1087700022F8101005E047F6FF7100AAC0B222F8F7
:108780001010401CD3E74FF6FF700021C9B2032937
:1087900028DA00AAC9B232F91120012A04DB00AAA2
:1087A000C9B232F9112004E000AAC9B232F911208D
:1087B000524280B2824213DA00AAC9B232F91120C1
:1087C000012A04DB00A8C9B230F8110004E000A8B7
:1087D000C9B230F91100404211EB0802521E32704A
:1087E000491CD3E7BDE8F7839016002088160020C7
:1087F000A4FA3541000050C00100003F2DE9F043CC
:1088000083B005000E0017005FF0010900F02BFB9C
:10881000002802D00220814601E0012081467E48E6
:1088200000685FFA89F9B0FBF9F06421B0FBF1F060
:1088300000210C0064B25A2C0CDA7A4964B231F887
:108840001410414340F62822B1FBF2F18D4201D2CF
:10885000641CEFE764B2002C60D0A0460021C9B2CE
:1088600003292CDA4FFA88F8C9B211EB0802521E1C
:10887000002A07D54FFA88F8C9B211EB0802521E38
:108880005A2A14DA674A4FFA88F8C9B211EB08037A
:1088900012EB430232F8022C424340F62823B2FB8B
:1088A000F3F2AA1A00ABC9B223F8112005E047F68B
:1088B000FF7200ABC9B223F81120491CCFE74FF675
:1088C000FF710022D2B2032A28DA00ABD2B233F908
:1088D0001230012B04DB00ABD2B233F9123004E0CA
:1088E00000ABD2B233F912305B4289B28B4213DA59
:1088F00000ABD2B233F91230012B04DB00A9D2B2A3
:1089000031F8121004E000A9D2B231F91210494234
:1089100012EB08035B1E1C00521CD3E764B2092152
:1089200094FBF1F1397064B2092194FBF1F201FB7F
:1089300012413170BDE8F78381C3C90140787D01E0
:108940002DE9F04F83B004008B4692460025324853
:108950000068FEF747F95FF09141FEF763F9060002
:1089600000200700FFB20A2F17DA0120B84000F0FC
:10897000A5FD0022DFF8B03301F0E8F900F088FD32
:10898000FEF730F9310002F0D9FC01F035FC01901E
:108990000198844201D37F1CE4E78AF8007000202C
:1089A0000700FFB2082F27DA0095FFB2380000F069
:1089B0008FFD00221A4BFEF7DBF900225FF08043A7
:1089C00000F024FC8046894601209AF90010884076
:1089D00000F074FD42464B4601F0B8F900F058FD36
:1089E000FEF700F9310002F0A9FC01F005FC0500DA
:1089F000AC4201D37F1CD4E78BF800700098201A9A
:108A0000291B884204D29BF80000401E8BF800000E
:108A1000BDE8F78F305501088816002040420F004E
:108A2000000020403C50010880565F2EE12F0C3999
:108A300080E40117616A141CC060D211E1D7CE1422
:108A4000408FE10861D06F0A1054010834550108C5
:108A50002DE9FC4D04000D000027DFF8D002844210
:108A60000CD3DFF8CC02844208D200200600DFF8E5
:108A7000C402844222D2012006001FE0DFF8B802BF
:108A8000844206D3DFF8B402844202D202200600F8
:108A900014E0DFF8AC02844206D3DFF8A802844277
:108AA00002D20320060009E0DFF89C02844205D3CD
:108AB000DFF89802844201D204200600012007005A
:108AC0002800002100F09EFE38D22800FEF728F989
:108AD00002000B00CDE90023DFF87402F6B2182182
