:020000040800F2
:10300000903900201D2701083D2901083F290108AA
:103010004129010843290108452901080000000051
:103020000000000000000000000000003D2B01082F
:103030004729010800000000412B0108452B010829
:10304000492B01084D2B0108512B0108552B010874
:10305000592B01085D2B0108612B0108652B010824
:10306000692B01086D2B0108712B0108752B0108D4
:10307000792B01087D2B0108812B0108852B010884
:10308000892B01088D2B0108912B0108952B010834
:10309000B9F90008992B01089D2B0108EBF70008EE
:1030A000A12B0108A52B0108A92B0108AD2B0108B4
:1030B000AFF8000821C5000867C50008B12B01085A
:1030C000B52B0108B92B0108BD2B0108C12B010844
:1030D000C52B0108C92B0108CD2B0108D12B0108F4
:1030E00065F80008D52B0108D92B0108DD2B010854
:1030F00025310008E12B0108E52B0108E92B010827
:10310000ED2B0108F12B0108F52B0108F92B010823
:10311000FD2B0108012C0108052C0108092C0108D0
:103120000D2C010880B50121DFF87C0A02F07BF844
:10313000002808D00121DFF8700A02F08DF8012084
:10314000DFF8241B087001BD00B599B0002002F023
:10315000D3FBDFF8781A0880012002F0CDFBDFF8FE
:10316000701A0880022002F0C7FBDFF8881A088076
:10317000DFF85C0A0088421E92B2DFF8500A00882D
:10318000411E89B2DFF8200A02F08FFCDFF8400A06
:103190000088DFF8641A09880918DFF80C0A01F0C2
:1031A000C5FF01220121DFF8000A02F031F80121F8
:1031B000DFF8F40901F0BEFF0121DFF8EC0902F0AD
:1031C0004BF802F0F3FCDFF82C1A098890FBF1F2BF
:1031D00001FB1200DFF8201A088002F0E7FC5C21F6
:1031E00090FBF1F201FB1200401CDFF8101A08708E
:1031F000DFF8780A0078002804D1DFF86C0A00783C
:103200000028F5D000220121DFF89C0902F000F827
:103210000021DFF8940901F08DFF0121DFF8880912
:1032200002F01AF8722002F059FF00A9DFF8CC0969
:10323000007802F0B2FF0020DFF82C1A0870DFF8E7
:103240002C0A00780028A1D00020DFF8201A08708E
:1032500000220121DFF8500901F0DAFF0021DFF838
:10326000480901F067FF0121DFF83C0901F0F4FF94
:103270000020DFF8F4190870DFF8441ADFF87C0D3D
:1032800003F0FAFA19B000BDF8B504F0D5F906005C
:1032900000AA0121312002F090FE9DF8000010F0FC
:1032A000C000802836D104F083FD070004F071FDD2
:1032B0004000FFB23A00002A06D0022A09D0062AAE
:1032C0000BD00A2A0DD00FE000F22E20122211009E
:1032D0000AE01E301222110006E026300A221100F8
:1032E00002E04E3012221100081804F0A5FD002261
:1032F000DFF8D03904F0AEFD04000D00300004F01A
:103300009BFD02000B002000290004F085FE04F064
:10331000AFFF1AE005F006F80400E4B205F016F875
:10332000001904F089FD0022DFF8D43C04F092FD7E
:1033300004000D00300004F07FFD02000B002000AF
:10334000290004F069FE04F093FFF2BD00B585B0DA
:10335000002002F0D1FA401EC0008DF800000120CC
:1033600002F0CAFA401E40008DF80100022002F06F
:10337000C3FA0190032002F0BFFA8DF80800042080
:1033800002F0BAFA8DF80900052002F0B5FA8DF8BE
:103390000A00062002F0B0FA8DF80B00072002F0B8
:1033A000ABFA8DF80C00082002F0A6FA8DF80D009B
:1033B000092002F0A1FA8DF80E0000A805F006F928
:1033C000DFF87019DFF8340C03F056FA05B000BDD1
:1033D00000B597B012A805F0AAF99DF85600119013
:1033E000DFF8F40910909DF855000F9097A00E900B
:1033F0009DF854000D90DFF8E4090C909DF85300FF
:103400000B90DFF8DC090A909DF85200C0B2400929
:10341000C0B20990DFF8CC0908909DF851000790E0
:10342000DFF8C40906909DF850000590DFF8BC094C
:10343000049013980390DFF8B80902909DF84900B2
:10344000C0B24008C0B2401C0190DFF8A80900904B
:103450009DF84800C0B2C008C0B2431CDFF89829EC
:10346000DFF89819DFF8480D03F006FA17B000BD31
:1034700000B585B0002002F03FFA401EC0008DF874
:103480000000012002F038FA401E40008DF80100D3
:10349000022002F031FA0190032002F02DFA8DF89B
:1034A0000800042002F028FA8DF80900052002F037
:1034B00023FA8DF80A00062002F01EFA8DF80B00A0
:1034C000072002F019FA8DF80C00082002F014FA17
:1034D0008DF80D0000A805F0D9F9DFF82419DFF800
:1034E0001C0B03F0C9F905B000BD00B595B010A8DC
:1034F00005F074FA9DF84D000F90DFF8DC080E908F
:103500009DF84C000D9051A00C909DF84B000B9035
:10351000DFF8CC080A909DF84A00C0B24009C0B25A
:103520000990DFF8C00808909DF849000790DFF87F
:10353000B80806909DF848000590DFF8B0080490A0
:1035400011980390DFF8A80802909DF84100C0B2DE
:103550004008C0B2401C0190DFF8980800909DF828
:103560004000C0B2C008C0B2431CDFF88C28DFF8AE
:10357000941ADFF8400C03F07FF915B000BD80B558
:10358000002002F0B9F940008DF80000012002F09F
:10359000B3F98DF80100022002F0AEF98DF80200B7
:1035A00000A804F069FBDFF8601ADFF8500A03F0A6
:1035B00063F901BD00B585B004A804F07BFB9DF85C
:1035C00012000390DFF8440A02909DF81100019068
:1035D000DFF83C0A00909DF81000C0B24308DBB24F
:1035E000DFF8302ADFF8301ADFF8CC0B03F044F9AB
:1035F00005B000BD80B5002002F07EF980B205F074
:1036000002F9DFF8181ADFF8F40903F035F901BD03
:1036100010B505F01AF90400A4B22300DFF8002A5F
:10362000DFF8001ADFF8940B03F026F910BD80B51F
:10363000002002F061F980B205F065FADFF8E819C0
:10364000DFF8B80903F018F901BD000066656300F2
:1036500010B505F072FA0400A4B22300DFF8C02907
:10366000DFF8C819DFF8540B03F006F910BD80B578
:10367000002002F041F980B204F0A9FBDFF8B01994
:10368000DFF8780903F0F8F801BD10B504F0B3FBDA
:103690000400A4B22300DFF88829DFF8241BDFF838
:1036A0001C0B03F0E9F810BD10B5002002F024F95E
:1036B00005F076FA04002000002105F081FA03D11C
:1036C000002005F0F1FA06E02000DFF8F81A05F016
:1036D00031FD05F0D5FADFF8F01ADFF8200903F024
:1036E000CBF810BD10B5002002F006F905F058FA2D
:1036F00004002000DFF8CC1A05F01CFD05F037FBB4
:10370000DFF8C81ADFF8F40803F0B6F810BD00B50A
:1037100087B004AA0DF1110105A805F0D3FA0598A8
:10372000DFF8A01A05F084FD05F0EEFD05F014FEAB
:103730009DF810200392DFF8982A02929DF811203C
:103740000192DFF8902A009205F03EFE0300DFF8B8
:10375000882ADFF8881ADFF8880A03F08DF807B0A6
:1037600000BD30B587B0082002F0C6F80500002D76
:1037700003D104F077FA050002E0280004F075FA9E
:10378000002002F0B9F8ADF80000012002F0B4F812
:103790000190022002F0B0F80290032002F0ACF891
:1037A0008DF80C00042002F0A7F88DF80D0005201C
:1037B00002F0A2F80490062002F09EF8059007207F
:1037C00002F09AF8069000A803F076F80400E4B23C
:1037D0002300DFF8102ADFF8101ADFF8600D03F07D
:1037E0004BF807B030BD10B598B010A803F002FA3E
:1037F00004F038FA04000F94DFF8F0090E901698E0
:103800000D90DFF8EC090C9015980B90DFF8E409A7
:103810000A9014980990DFF8E0090890BDF940007B
:103820000790DFF8D80906909DF84C000590DFF866
:10383000D009049012980390DFF8C80902901198FB
:103840000190DFF8C40900909DF84D30DFF8BC29E5
:10385000DFF8BC19DFF8E80C03F00EF818B010BD63
:1038600080B504F0FFF90300DFF8B427DFF8A419EE
:10387000DFF8D00C03F000F801BD10B5002002F015
:103880003BF80400200003F015FCDFF88C19DFF88A
:103890006C0702F0F1FF10BD10B503F0E4FC04006A
:1038A0002300DFF87C27DFF87419DFF8980C02F0AA
:1038B000E3FF10BD38B5002002F026F805F066F9E8
:1038C0000400012002F018F8050021002800C0B211
:1038D00004F08CF8DFF84819DFF8200702F0CCFF7D
:1038E00031BD10B5002002F007F804002000C0B27E
:1038F00004F0B8F8DFF82C19DFF8000702F0BCFF7D
:1039000010BD38B5002001F0FFFF05F03FF90400BD
:10391000012001F0F1FF05002800C0B204F0A2F878
:1039200021002800C0B204F061F8DFF81C1CDFF8A9
:10393000CC0602F0A1FF31BD38B5002001F0DCFF5C
:1039400004002000C0B204F06BF80500DFF8FC0BA7
:10395000290005F06DFC05F04DFD0300DFF8C026E1
:10396000DFF8EC1BDFF8EC0B02F086FF31BD80B511
:10397000002001F0C1FF8DF80000012001F0BCFF24
:103980008DF80100022001F0B7FF8DF8020000A8B9
:1039900005F052FDDFF8C01BDFF8600602F06CFF97
:1039A00001BD38B5002001F0A7FF0400012001F09F
:1039B000A3FF05002900C9B2200005F0C7FDDFF80C
:1039C0009C1BDFF8380602F057FF31BD10B582B0FE
:1039D00000A805F0F8FD009C2300DFF84426DFF87E
:1039E000801BDFF8600B02F047FF13BD10B505F038
:1039F00015FE143805F0CAF85FF0804105F09AFB17
:103A000005F082FC0022DFF85C3B05F019FE04F0B3
:103A10002FFC0400DFF8501BDFF8500B02F02CFFE6
:103A2000200005F071FC02000B00DFF8F415DFF850
:103A3000400B05F079FE10BD10B582B000AA01213F
:103A4000F02002F0BAFA9DF800000002040000AA7B
:103A50000121F12002F0B1FA9DF800000443A4B264
:103A60002300DFF8BC25DFF80C1BDFF8500702F05D
:103A700003FF13BD80B5002001F03EFFC0B205F08A
:103A8000ADF8012001F038FFC0B205F0D0F8DFF842
:103A9000E81ADFF8680502F0EFFE01BD80B50020EE
:103AA00001F02AFFC0B205F078FE012001F024FFEA
:103AB000C0B205F04BFEDFF8C41ADFF8400502F093
:103AC000DBFE01BD80B5002001F016FF8DF800007F
:103AD000012001F011FF8DF80100022001F00CFF20
:103AE00000018DF8020000A804F0CAFFDFF8901A68
:103AF000DFF8080502F0C0FE01BD10B5002001F09E
:103B0000FBFE04002000C0B204F028FDDFF8741AA8
:103B1000DFF8E80402F0B0FE10BD80B5002001F02F
:103B2000EBFEC0B204F04FFCDFF85C1ADFF8CC0407
:103B300002F0A2FE01BD80B5002001F0DDFEC0B2A2
:103B400005F0CEFEDFF8441ADFF8B00402F094FE70
:103B500001BD80B5002001F0CFFEC0B205F0DDFE52
:103B6000DFF82C1ADFF8940402F086FE01BD80B560
:103B7000002001F0C1FEC0B205F010FFDFF8141AFA
:103B8000DFF8780402F078FE01BD80B5002001F076
:103B9000B3FEC0B205F013FFDFF8FC19DFF85C04D8
:103BA00002F06AFE01BD00000014004010B50020C4
:103BB00001F0A2FE04002000C0B203F06FFDDFF8A8
:103BC000DC19DFF8380402F057FE10BD6E23002028
:103BD0007023002010B503F07EFD0400E4B2230042
:103BE000DFF83C24DFF8B819DFF8500902F044FE92
:103BF00010BD0000722300207423002099070020CC
:103C000070B58AB001A8DFF8A41C202205F00CFFD3
:103C10000020ADF8000000240225002601A8F6B21D
:103C2000305C002815D001A8F6B2305C2E280ED1E9
:103C300001A8F6B2301840788DF8000000A805F011
:103C40001EFFEDB2E9008840204304006D1E761C83
:103C5000E4E72300DFF8C823DFF8541CDFF8E408AA
:103C600002F00AFE0AB070BD8223002086230020E5
:103C700080B5002001F040FEDFF8381C0870DFF846
:103C8000381CDE4802F0F8FD01BD80B5002001F0CF
:103C900033FEDFF8281C0870DFF8241CD74802F038
:103CA000EBFD01BD10B505F076F80400A4B22300C9
:103CB000DB4ADFF8101CDFF8040502F0DDFD10BD63
:103CC0007C28010800408F4030B583B0002001F00F
:103CD00013FE0400E4B2002C04D0DFF8EC0B0078F3
:103CE0000028FAD0DFF8E40BDFF8E01B91F8691147
:103CF0000C2202FB010080684CF25031DFF8CC2B23
:103D0000DFF8C83B93F869310C2505FB0322928844
:103D100001FB00200190DFF8B80B0090DFF8A80B42
:103D20000378DFF8B02BDFF8B01BDFF89C0D02F052
:103D3000A3FD37BDE422010830B583B0DFF88C0D58
:103D400090F86A010028F9D0DFF8800DDFF87C1DBB
:103D500091F869110C2202FB010005F094FEDFF8D6
:103D60006C1DDFF8682D92F869210C2303FB02110A
:103D700089684CF25032DFF8543DDFF8504D94F82A
:103D800069410C2505FB04339B8802FB013101913D
:103D9000DFF83C1B00910300DFF8342DDFF8341D01
:103DA000DFF8340D02F068FDDFF8200D90F86901AE
:103DB000401C1E2190FBF1F201FB1200DFF80C1DEC
:103DC00081F86901DFF8040D90F86A01401EDFF800
:103DD000FC1C81F86A0137BDC42801082C2A01089F
:103DE0003C260108B8280108AC280108A0280108D1
:103DF00094280108882801082C260108BC1E010807
:103E0000F8220108F8B504000D000026DFF8BC0A0E
:103E100090F86A01002817D0DFF8B00A90F869011D
:103E2000401C1E2190FBF1F201FB1200DFF89C1AEE
:103E300081F86901DFF8940A90F86A01401EDFF802
:103E40008C1A81F86A01E1E7ADB2612D0BDB01212B
:103E50004FF4807005F07AFB2100602002F09DF99C
:103E6000602007000AE000214FF4807005F06EFB2F
:103E700021002800C0B202F090F92F00DFF8340AC8
:103E80000078002803D0622005F010FE02E06020D8
:103E900005F00CFEDFF8440C0078002804D1DFF8B0
:103EA000280A00780028F5D0DFF8300C00780028C8
:103EB00005D00020DFF8241C0870FF2088E00020D7
:103EC000DFF8041A087000F0CBFDDFF8000ADFF815
:103ED000FC1991F869110C2202FB01008078C007DF
:103EE00001D501200600DFF8E409DFF8E01991F8B8
:103EF00069110C2202FB0100C07840071BD5DFF8D6
:103F0000CC0990F86901401C1E2190FBF1F201FBE5
:103F10001200DFF8B81981F86901DFF8B00990F8EC
:103F20006A01401EDFF8A41981F86A01722002F0CC
:103F3000D5F800204CE0DFF8940990F86901401CA6
:103F40001E2190FBF1F201FB1200DFF8801981F8CD
:103F50006901DFF8780990F86A01401EDFF86C19F2
:103F600081F86A01F6B2002E94D00020060000AA63
:103F70000121E62002F021F89DF8000010F07F00FA
:103F80008DF80000ADB2BFB2E81B9DF80010081814
:103F9000401C60280DDA00214FF4807005F0D6FA3D
:103FA000BFB23919E81B401CC0B202F0F6F82F006E
:103FB00070E7BFB239199DF80000D0F16000C0B2BF
:103FC00002F0EBF817F160009DF80010471A61E766
:103FD000F2BD10B5C0B00023FF2200A9002001F0FF
:103FE000C8FC0400210089B200A8FFF70BFFDFF82E
:103FF000F01A024802F040FC40B010BDD022010887
:104000000040BF40D41E01080C230108DC28010831
:10401000D0280108342A0108EC1E01086C1601089A
:104020003C2A01088C160108AC160108CC160108C0
:10403000EC1601082DE9F043C3B0002001F05CFC50
:104040000400012001F058FC05000023FF2202A912
:10405000022001F08EFC06004FF4FA4000FB04F051
:1040600080460DF1020201A9404601F0CDFCBDF8E9
:104070000200421E92B2BDF80400411E89B2DFF870
:10408000280D01F012FD01220121DFF81C0D01F0C5
:10409000BFF80121DFF8100D01F04CF80121DFF825
:1040A000080D01F0D9F85FF00009A94563D2DFF8E7
:1040B00004080078002805D0632005F0F7FC602094
:1040C00005F0F4FCDFF8140A0078002804D1DFF8CA
:1040D000DC0C00780028F5D0DFF8000A0078002812
:1040E00033D00020DFF8F419087000220121DFF836
:1040F000B80C01F08DF80021DFF8AC0C01F01AF8D3
:104100000121DFF8A40C01F0A7F8DFF8A807007878
:10411000002819D0622005F0C9FC00208DF80000AD
:104120009DF80000FF2805D09DF80000401C8DF888
:104130000000F5E705F0CAFCDFF8740C0078C0B2A7
:104140004008C0B20328E8D12EE00020DFF85C1C54
:104150000870310089B202A8FFF754FE0700FFB2D1
:10416000FF2F08D0DFF87819DFF8A40D02F084FBE8
:1041700019F1010999E700220121DFF82C0C01F067
:1041800047F80021DFF8200C00F0D4FF0121DFF810
:10419000180C01F061F8FFB2FF2F05D0DFF8C41C46
:1041A000DFF86C0D02F068FB43B0BDE8F08300005F
:1041B000FC0F0108901001082C1A0108041F0108C7
:1041C0000C17010800007A44481A0108641A010813
:1041D000E82801084C2A0108442A01081C1F01088C
:1041E0002C170108542A01084C2601089C260108B6
:1041F000801A010834230108002901088C260108CF
:104200007C2601086C2601085C260108F4280108B8
:10421000202301089C1A0108B81A0108D41A0108C1
:10422000F01A01080C1B01082DE9F843040004F002
:104230006BF90500002600AA01214F2001F0BDFE08
:104240000DF101020121332001F0B7FE9DF80100BC
:1042500010F0E0008DF801002078800601D50120E3
:1042600076E09DF80100002804D0E078C00601D572
:1042700002206DE09DF80000000705D504F0DCF891
:10428000EDB2A84200D0761C9DF80000400705D58D
:1042900004F0F2F8EDB2A84200D0761C9DF80000C0
:1042A000800705D504F0D8F8EDB2A84200D0761CFE
:1042B000F6B2002E18D0F6B29DF80000C0B2400849
:1042C00010F001009DF80010C9B2890811F0010139
:1042D00008189DF80010C9B2C90811F001010818AA
:1042E000864201D1032033E09DF80000C00610D5BE
:1042F00004F03AFC070004F058F9C0B2FFB217EA24
:10430000000804F089F8FFB23840804501D004204D
:104310001EE09DF80000800619D504F0BDF80700E6
:104320005FF0FF3903F0ECFFD0F10400C84638FA23
:1043300000F804F0CDF8384018EA000904F0F3F86A
:10434000384018EA0000814501D0052000E0002037
:10435000BDE8F2837FB5002001F0CEFA0400E4B29C
:10436000002C6AD0DFF874070078002804D1DFF849
:10437000580500780028F5D0DFF84C0500780028B3
:1043800006D1672001F0AAFE712001F0A7FED3E05C
:1043900000F066FB0020DFF830150870DFF82C0510
:1043A000DFF8281591F869110C2202FB010005F0D5
:1043B0006AFBDFF81815DFF8142592F869210C2341
:1043C00003FB021189684CF25032DFF80035DFF848
:1043D000FC5495F869510C2606FB05339B8802FBBB
:1043E00001310191DFF8E81400910300DFF8E026C5
:1043F000DFF8501CDFF8E00602F03EFADFF8CC04EC
:1044000090F86A01002800F09780DFF8C00490F867
:104410006901401C1E2190FBF1F201FB1200DFF844
:10442000AC1481F86901DFF8A40490F86A01401E19
:10443000DFF8981481F86A017EE0DFF88C040078D8
:10444000002805D000F00CFB0020DFF87C14087079
:10445000DFF8780490F86A01002856D0DFF86C0481
:1044600090F86A51DFF86404DFF8601491F869117C
:104470000C2202FB010005F006FB0300EDB20395E0
:10448000DFF8C40B0290DFF84404DFF8401491F821
:1044900069110C2202FB010080684CF25031DFF8F8
:1044A0002C24DFF8285495F869510C2606FB0522C8
:1044B000928801FB00200190DFF814040090DFF8DF
:1044C0001026DFF8801BDFF8840B02F0D5F9DFF847
:1044D000FC0390F86A0100282ED0DFF8F00390F872
:1044E0006901401C1E2190FBF1F201FB1200DFF874
:1044F000DC1381F86901DFF8D40390F86A01401EEB
:10450000DFF8C81381F86A0116E0DFF8C00390F8FD
:104510006A5105F01AFBEDB20395DFF82C1B0291EE
:104520000190EB4800900023DFF8A425DFF8141B6E
:10453000DFF8180B02F0A0F97FBD0000341F01085E
:10454000280F01084C1F0108281B0108000020410A
:10455000441B0108641F0108AC2601080C2901084E
:104560004823010800005EC05C230108BC26010846
:10457000CC26010870230108842301089823010830
:104580007C1F0108601B0108DC260108941F01083C
:10459000AC1F01084C120108781201087C1B0108AD
:1045A000981B01082DE9F047C4B00024002001F059
:1045B000A3F90500012001F09FF9060000208DF805
:1045C0000200002D65D00DF103020121542001F0FD
:1045D000F4FC0DF102020121542001F059FCFEF718
:1045E00053FE0700280004F0DBFA390005F04AFE0C
:1045F00004F08AFE0022DFF8583A05F021F804F0B2
:10460000E3FE80460DF1060202A9DFF8480A0068C1
:104610004FF47A73B0FBF3F000FB05F001F0F4F90E
:10462000BDF80800DFF8301A0880DFF8280A0068B3
:104630004FF47A71B0FBF1F000FB08F0DFF8181AC4
:104640000988B0FBF1F0DFF8141A088001214FF45B
:10465000005004F07BFFDFF8040A0088421E92B28B
:10466000DFF8F4090088411E89B2DFF83C0701F049
:104670001CFA01220121DFF8300700F0C9FD0121F9
:10468000DFF8240700F056FD0121DFF81C0700F0D9
:10469000E3FD8A480078002805D0632005F006FA7B
:1046A000612005F003FA5FF00009B14580F0DC807D
:1046B000002D63D0B9F1000F60D0DFF8200400783E
:1046C000002804D1DFF8E40600780028F5D0DFF8F0
:1046D0000C040078002842D00020DFF80014087095
:1046E00000220121DFF8C00600F092FD0021DFF872
:1046F000B80600F01FFD0121DFF8AC0600F0ACFDAC
:104700000021DFF8A40600F00FFD00214FF4005057
:1047100004F01CFF69480078002819D0622005F0D9
:10472000C5F900208DF800009DF80000FF2805D095
:104730009DF80000401C8DF80000F5E705F0C6F973
:10474000DFF86C060078C0B24008C0B20328E8D198
:10475000672001F0C3FC712001F0C0FCA2E0002042
:10476000DFF8481608700021DFF83C0600F0DCFC9A
:10477000BDF80600401EDFF8E81808804FF6FF720B
:1047800001A903A800F0AEF90400002D08D0B9F18A
:10479000000F05D10DF103020121542001F078FB37
:1047A000E4B2FF2C56D00DF101020121C82001F026
:1047B00004FCDFF8B018DFF8B00802F05DF8E4B2EE
:1047C0002200DFF8A818DFF8A80802F055F8E4B2D4
:1047D000002C27D1DFF89C18DFF89C0802F04CF879
:1047E0005FF0000A1FFA8AFABDF80400401E8245F5
:1047F0000BDA03A81FFA8AFA1AF80010DFF87C080F
:1048000002F03AF81AF1010AECE703A8BDF8041027
:10481000081810F8011CDFF8680802F02DF8A9A0AC
:1048200002F02AF89DF80120DFF85818DFF8400858
:1048300002F022F805F089F902002549DFF848085E
:1048400002F01AF89FA002F017F81C480078002820
:1048500001D106E008E0632005F028F9612005F0A9
:1048600025F919F1010920E700220121DFF83805B7
:1048700000F0CEFC0021DFF8300500F05BFC0121E8
:10488000DFF8240500F0E8FC00214FF4005004F0AC
:104890005DFEE4B2FF2C05D0DFF8F017DFF8F0077B
:1048A00001F0EAFF44B0BDE8F08700004C170108B2
:1048B000AC23010883230020C023010884230020A7
:1048C000D4230108C41F010885230020B81F00203D
:1048D0005C2A010818290108E82301082DE9F041A4
:1048E000ADF6B83D002400250023FF2200A90020DA
:1048F00001F03FF80600DFF89C17DFF8140601F01E
:10490000BBFFDFF8940790F86A01002817D0DFF8A2
:10491000880790F86901401C1E2190FBF1F201FB11
:104920001200DFF8741781F86901DFF86C0790F85E
:104930006A01401EDFF8601781F86A01E1E7B046BE
:104940001FFA88F8B8F1600F10DA002080B2B6B212
:10495000B042F5D200A980B2415C00AA1FFA88F8E3
:1049600008F8021018F10108401CEFE7464600A9BC
:10497000602001F012FC60200500602005F096F830
:1049800056480078002804D1DFF810070078002886
:10499000F6D052480078002803D000204F49087014
:1049A0005AE00020DFF8F416087000F059F8DFF83C
:1049B000E806DFF8E41691F869110C2202FB010009
:1049C0008078C00701D501200400DFF8CC0690F8FC
:1049D0006901401C1E2190FBF1F201FB1200DFF87F
:1049E000B81681F86901DFF8B00690F86A01401E38
:1049F000DFF8A41681F86A01E4B2002CC0D00020D0
:104A0000040004F0BAFF0700BFB2D7F16000B6B2ED
:104A1000ADB2711B88420BDA00A8ADB22918D7F1EC
:104A20006000C0B201F0B9FB15F16000C51BA7E73B
:104A300000A8ADB22918701BC0B201F0AEFB00A9EE
:104A4000D7F16000801B2818C0B201F0A6FBD7F197
:104A50006000801B451993E70DF6B83DBDE8F08175
:104A600080B5DFF8340690F86A011D2824DADFF8F3
:104A70002806DFF8241691F868110C2202FB0102C7
:104A80000421FA2001F099FADFF80C0690F8680189
:104A9000401C1E2190FBF1F201FB1200DFF8F8151B
:104AA00081F86801DFF8F00590F86A01401CDFF832
:104AB000E81581F86A0104E000AA0421FA2001F057
:104AC0007CFA01BD7D0D0A00B41B010824210020E1
:104AD00024290108EC260108D01B010886230020A8
:104AE000FC2301082DE9FE4304000D0016000027F9
:104AF0005FF000085FF00009DFF89C0590F86A019C
:104B0000002817D0DFF8900590F86901401C1E219D
:104B100090FBF1F201FB1200DFF87C1581F86901CE
:104B2000DFF8740590F86A01401EDFF86C1581F813
:104B30006A01E1E701214FF4007004F007FDDFF89E
:104B400060050078002803D0622004F0AFFF02E087
:104B5000612004F0ABFFDFF84C050078002804D199
:104B6000DFF8380500780028F5D0DFF83805007840
:104B700000280BD00020DFF82C150870672001F00A
:104B8000ADFA712001F0AAFAFF200AE10020DFF857
:104B90000C150870FFF764FFDFF8FC04DFF8F81469
:104BA00091F869110C2202FB01008078800701D581
:104BB00001200700B6B24FF6FF70864240F08D80AC
:104BC000DFF8D404DFF8D01491F869110C2202FB4D
:104BD0000100807880060DD50021734800F0A4FA0A
:104BE000DFF878040088401EDFF874140880002085
:104BF0006E490870DFF8A004DFF89C1491F8691181
:104C00000C2202FB0100C078C0073DD5DFF8880404
:104C100090F86901401C1E2190FBF1F201FB12008B
:104C2000DFF8741481F86901DFF86C0490F86A0108
:104C3000401EDFF8641481F86A0100214FF400700F
:104C400004F084FC04F088FE81465FFA89F9B9F12A
:104C5000000F07D01FFA88F818EB04014846C0B2CD
:104C600001F018FB5FFA89F919EB080804F03AFF24
:104C7000712001F033FA02AA0421FA2001F09DF913
:104C8000A5F8008000208CE0DFF80C04DFF80814A1
:104C900091F869110C2202FB0100C07880071CD535
:104CA00004F020FF00214FF4007004F04FFC71204D
:104CB00001F014FA01AA0421FA2001F07EF9A5F806
:104CC0000080DFF8D403DFF8D01391F869110C22CB
:104CD00002FB0100FFF7A8FA63E0DFF8BC0390F8DD
:104CE0006901401C1E2190FBF1F201FB1200DFF86C
:104CF000A81381F86901DFF8A00390F86A01401E4B
:104D0000DFF8941381F86A01FFB2002F3FF423AF5C
:104D10000020070004F020FE81465FFA89F9B9F10E
:104D20000100012808DB1FFA88F818EB0401B9F12B
:104D30000100C0B201F0AEFA5FFA89F9B9F10100E1
:104D400010EB08081FFA88F8B6B2B045FFF403AFBD
:104D5000672001F0C3F9D04890F86A01002813D009
:104D6000CD4890F86901401C1E2190FBF1F201FB37
:104D70001200C94981F86901C74890F86A01401ECC
:104D8000C54981F86A01E6E704F0ACFE712001F044
:104D9000A5F900AA0421FA2001F00FF9A5F8008076
:104DA0000020BDE8FE8300000014004082230020A4
:104DB0004823002070B5ADF53C6D002000F09CFD4F
:104DC000040004F01BFC220092B200A901A8FFF726
:104DD00089FE05000DF102020121C82001F0EDF865
:104DE000EDB2FF2D3BD09F499F4801F045FDEDB24C
:104DF0002A009E499E4801F03FFD9DF80220A149EE
:104E00009B4801F039FDEDB2002D1ED199499A4819
:104E100001F032FD0026B6B2BDF80000401E864209
:104E200007DA01A8B6B2315C944801F025FD761C82
:104E3000F1E701A8BDF80010081810F8011C90480F
:104E400001F01AFD7EA001F017FD04F07EFE0200C5
:104E500095498D4801F010FD79A001F00DFD0DF58B
:104E60003C6D70BDDC1F010870B582B0002000F001
:104E700043FD040000268D49254801F0FDFC082073
:104E80008DF8000000AA0121332001F001F8112063
:104E90008DF8000000AA0121052000F0F9FF022191
:104EA000002005F063FA22208DF8000000AA0121FD
:104EB000042000F0EDFF0121012005F057FA012345
:104EC0000F220F21012005F0BFFA602001F006F942
:104ED0002000F04010F001000500F6B2701C202107
:104EE00090FBF1F606FB11066C4800780028FBD019
:104EF00000206A490870EDB2002D04D00121002085
:104F000005F0D0FAE4E70021002005F0CBFADFE756
:104F1000D0220108F0B5ADF6BC3D002000F0ECFC5D
:104F2000050000230F220F21012005F08DFA002338
:104F30000F220F21002005F087FA0121012005F042
:104F400015FA0021002005F011FA00200400AC42FF
:104F500026D254480078002822D1002000A96054AD
:104F6000072676B216F1010F18D04E4800780028B7
:104F700005D14FF4807005F023FB0028F5D04FF4E5
:104F8000807005F02AFB00A8275C002005F070FA6D
:104F9000B040384300A96054761EE2E7641CD6E7AF
:104FA00040480078002811D000203E490870404950
:104FB0002D4801F061FC04F0C8FD02003A49324876
:104FC00001F05AFC1EA001F057FC2CE04FF4807059
:104FD00005F003FB802005F000FB3549224801F075
:104FE0004BFC2449244801F047FC0026B6B2601E61
:104FF000864207D200A8B6B2315C204801F03CFCE2
:10500000761CF3E700A8201810F8011C294801F0CD
:1050100033FC04F09AFD020023491B4801F02CFCEC
:1050200007A001F029FC0DF6BC3DF0BD80B50120C4
:105030001C4908702049164801F01EFC01BD000003
:105040007D0D0A001024010830290108FC13010815
:10505000000010C0800700206A2300206C2300207D
:105060002C140040FC26010824240108542A0108BD
:10507000642A0108742A01086C2A01087C2A0108A4
:10508000842A01088C2A0108942A0108F41F0108C7
:10509000D022010838240108B81F002085230020F1
:1050A00084230020862300205C2A01080C200108AC
:1050B0000C2701089C2A0108A42A01080022038861
:1050C0001A00B0F1804F05D00E4B984202D00E4B23
:1050D000984204D14FF68F731A404B881A430B4BFA
:1050E000984207D00A4B984204D04FF6FF431A402B
:1050F000CB881A4302808B8883850B880385012324
:105100008382704700040040000800400010004007
:10511000001400404FF6FF718180002101800021C2
:10512000C18000214180704781847047818570472C
:10513000808C7047C9B2002904D0028852F0010265
:10514000028004E002884FF6FE731A400280704726
:1051500038B504000D00288800280AD12B89AA88B8
:105160006988200000F07CF8E988200000F02AF827
:1051700025E0288804280AD12B89AA88698820007C
:1051800000F08AF8E988200000F025F817E0288868
:1051900008280AD12B89AA886988200000F09DF888
:1051A000E988200000F021F809E02B89AA886988A5
:1051B000200000F0B2F8E988200000F01FF831BDAF
:1051C000008F7047028B4FF6F3731A400283028BF5
:1051D0000A4302837047028B4FF2FF331A40028367
:1051E000028B52EA012202837047828B4FF6F373DF
:1051F0001A408283828B0A4382837047828B4FF2EC
:10520000FF331A408283828B52EA012282837047E5
:10521000D2B2002A03D083890B43838102E08389C1
:105220008B438381704730B40200002000230024A8
:10523000158A0D402B0095890D402C009BB2002B48
:1052400005D0A4B2002C02D00125280001E00025E1
:105250002800C0B230BC704789B2CA43028270478E
:10526000F0B400240025068C4FF6FE773E400684FD
:10527000068B3400068C35004FF60C76344052EA2B
:10528000031634434FF6F576354051F001063543A9
:1052900004830584F0BC7047F0B400250026002488
:1052A000078C4FF6EF7C1CEA07070784078B3D004D
:1052B000078C3E000F013C0040F6FF473D4055EA99
:1052C000033555EA02254FF65F773E4054F010074C
:1052D0003E4305830684F0BC7047F0B400260024EA
:1052E0000025078C4FF6FF6C1CEA07070784878BA5
:1052F0003E00078C3C000F023D004FF60C773E400D
:1053000052EA03173E434FF2FF573C4055F4807773
:105310003C4386830484F0BC7047F0B4002500262B
:105320000024078C4EF6FF7C1CEA07070784878B56
:105330003D00078C3E000F033C0040F6FF473D4018
:1053400055EA022555EA033545F6FF773E4054F409
:1053500080573E4385830684F0BC70470020DFF809
:10536000941608700020DFF88C16A1F814040020B1
:10537000DFF8801681F801040020DFF8781681F844
:1053800013040020DFF86C1681F81604FF20DFF804
:10539000641681F817047047C0B2612801DB5721F9
:1053A0000AE0C0B2412801DB372105E0C0B23A284B
:1053B00001DA302100E00021401AC0B27047DFF866
:1053C0003416C0B2411891F80214DFF82826C0B292
:1053D000801890F80104081AC0B27047DFF814165C
:1053E000DFF8102640B2801890F801044018401CE5
:1053F00070472DE9F84304000D000026002C10D161
:1054000000A805F096F9002802D0012803D113E086
:105410003000C0B21AE10120DFF8D81581F8160477
:10542000A6E0EDB2002D02D13000C0B20EE120782E
:105430008DF80000641C6D1E9DF800000D28DDD065
:105440009DF800000A2801D1012600E000269DF801
:105450000000202801D1012700E000279DF800006E
:10546000222802D15FF0010801E05FF00008DFF8B8
:1054700084050078002806D002282ED025D30428E1
:105480007AD030D3BAE7F6B2002E02D000F037F966
:105490001AE0FFB2002F17D15FFA88F8B8F1000FB9
:1054A00004D00220DFF84C1508700CE09DF80000D5
:1054B0007B2804D10320DFF83C15087003E00120AD
:1054C000DFF83015087095E098E7F6B2002E02D1AB
:1054D000FFB2002F00D061E08CE05FFA88F8B8F1ED
:1054E000000F5BD186E0DFF80C0590F81704FF2869
:1054F00002D05FF0010901E05FF000099DF80000B3
:105500007D280BD15FFA89F9B9F1000F05D005208C
:10551000DFF8E01481F816042AE03FE09DF800006F
:10552000FFF73AFFC0B2102818DA5FFA89F9B9F12B
:10553000000F0ED0DFF8BC1491F81714C0B210EBB6
:1055400001118DF80010FF21DFF8A82482F817144C
:1055500050E0DFF8A01481F8170408E0FFB2002F34
:1055600005D10521DFF88C2482F8161400E045E708
:105570000420DFF880140870F6B2002E0DD0DFF89A
:10558000740490F81604002805D0DFF8680490F839
:10559000160400F01FFAFFF7E1FE2FE7DFF85404CE
:1055A00090F81304112805D10320DFF8481481F87E
:1055B0001604DDE7DFF83C0490F81304401CDFF824
:1055C000341481F81304DFF82C04B0F81404DFF865
:1055D0002414DFF8202492F81324511881F80104D0
:1055E0000020DFF810140870F6B2002E01D000F091
:1055F00086F803E7DFF8FC03B0F81404B0F5806F19
:1056000005D10620DFF8EC1381F81604B0E7DFF8C7
:10561000E4030078012805D19DF8000000F018F897
:105620008DF800009DF80000DFF8C813DFF8C423F0
:10563000B2F8142451184870DFF8B803B0F8140415
:10564000401CDFF8B013A1F81404D7E6BDE8F283DC
:10565000C0B2412805DBC0B25B2802DA2030C0B2FC
:1056600000E0C0B270470100DFF8880390F818042A
:105670004018DFF88023DFF87C33C0B2C01890F800
:1056800001048018407870472DE9F84F04000D00A0
:10569000280040B2FFF7A2FE06002800C0B2FFF7C4
:1056A0008EFE0700002080466068002824D0D4F8D1
:1056B0000090B246BAEB0600FFB2B84206D199F8A4
:1056C0000000002801D1200017E011E09AF8000046
:1056D000FFF7BEFF834699F80000FFF7B9FF5FFAB6
:1056E0008BFB834504D119F101091AF1010AE1E7A5
:1056F00018F101081034D7E70020BDE8F28F2DE93A
:10570000F843BD4C0026BB4890F81304002800F075
:105710008F803100C9B22000FFF7B6FF0400002CD3
:105720000CD0761CA06800786E2801D16468F0E780
:10573000B04880F818640020050004E00220AD495C
:1057400081F8160467E0AB4890F81304F6B286427D
:1057500052D2A068EDB22F5C2800C0B2FFF783FFE1
:105760008046FFB23800002835D0623824D0113886
:1057700002D0801E022833D8FFB2752F02D14FF01D
:10578000FF090DE0FFB2762F02D14FF6FF7907E057
:10579000FFB2732F02D15FF07F0901E05FF0FF39A4
:1057A00001212800C0B200F047F8814503D204204F
:1057B000904981F8160417E05FFA88F8B8F1220FD3
:1057C00008D05FFA88F8B8F17B0F03D0052089492B
:1057D00081F8160408E00320864981F8160403E0E6
:1057E0000720844981F81604824890F8160400289E
:1057F00011D1761C6D1CA6E7A0687E4991F81314A0
:105800007C4A92F81824891A085C002803D00320E7
:10581000784981F81604774890F81604002802D1D8
:105820007648046004E0734890F8160400F0D2F85B
:10583000FFF794FDBDE8F1832DE9F84F04000D005A
:105840006C4890F8180400198DF8000069486949FF
:105850009DF80020511891F801140818461C9DF875
:105860000000FFF7ACFD07005FF000085FF00A09D9
:10587000002082465FFA8AFAFFB2BA4539D25FFA4F
:105880008AFA1AF806B0EDB2002D09D05FFA8AFA4A
:10589000BAF1000F04D15FFA8BFBBBF12D0F25D0BD
:1058A0005FFA8BFBBBF1780F04D05FFA8BFBBBF187
:1058B000580F05D1B8F1000F02D11020814615E034
:1058C0005846C0B2FFF768FD0100C9B25FFA89F916
:1058D000494505D25FFA89F9C9B209FB081805E004
:1058E0000520444A82F81604002003E01AF1010A58
:1058F000C0E74046BDE8F28F10B50400002120004B
:10590000C0B2FFF799FF10BD38B504002000C0B247
:10591000FFF7A9FE2D2801D1012500E0002529006F
:10592000C9B22000C0B2FFF787FFEDB2002D02D050
:1059300000B24042FFE700B232BDF8B504000D00EE
:105940002C4890F81804061964B2002C01D50027E1
:1059500000E00127002D05D03000C0B2FFF72FFD79
:10596000C01B2870300040B2FFF738FDFFB2381876
:10597000F2BD2DE9F14F82B00C0015001E0000A908
:105980009DF90800FFF7D9FF83469DF80000EDB2AE
:10599000854201D28DF80050F6B2002E03D09DF85A
:1059A00000002F1A00E00027FFB25FF00008424617
:1059B0003900200004F0BCFF9DF80090FFB217EB07
:1059C000040A4A465946504604F01EF89DF8000065
:1059D000BDE8FE8F10B504000948E4B250F8241069
:1059E000084803F0A1FE10BD044800680021034AE6
:1059F000116070479C17002000000020EC2200205E
:105A00008406002054290108F0B50600471E4FF611
:105A1000FF7CB7FBFCF77F1C3C000C800F88B0FBC1
:105A2000F7F73B0013800F884FF6FE7C674539DAA5
:105A30000F88B0FBF7F717800F88B2F800C00CFB97
:105A400007F73F1A3D00012D01DB2F0000E06F42F8
:105A5000B1F800C05FF0020E9CFBFEFCBC4509DA09
:105A600017887F1C17800F88B2F800C00CFB07F75F
:105A70003F1A3D00012D01DB2F0000E06F42012E97
:105A800001DBB44601E0D6F1000C674506DA2E00D2
:105A90000F883C0017883B00002D03D00F887F1C27
:105AA0000F80C0E70C801380F0BD70B584B0040097
:105AB0000D00160000212000FFF73CFB0022012111
:105AC0002000FFF7A5FBB4F1804F04D10121012094
:105AD00005F014F81EE03148844204D1012102206F
:105AE00005F00CF816E02E48844204D10121042070
:105AF00005F004F80EE02B48844204D10121102067
:105B000004F0FCFF06E02848844203D10121202054
:105B100004F0F4FF01A8FFF7FDFAADF80860ADF856
:105B200004500020ADF80A000020ADF8060001A9DD
:105B30002000FFF7C3FAB4F1804F03D11C208DF889
:105B400000001AE01548844203D11D208DF80000A2
:105B500013E01348844203D11E208DF800000CE0AE
:105B60001048844203D12B208DF8000005E00E4838
:105B7000844202D12C208DF8000009208DF801000C
:105B800000208DF8020001208DF8030000A805F028
:105B900000F801212000FFF75FFB7FBD00040040FB
:105BA000000800400010004000140040F8B5344FD9
:105BB000384605F039F80446381D05F035F8054635
:105BC00007F1080005F030F8064607F10C0005F073
:105BD0002BF823782B492C4A002B40D12B6802FB51
:105BE00003132B60082702FB03132B6002FB031334
:105BF0002B6002FB03132B6002FB03132B6002FBE1
:105C000003132B6002FB03132B6002FB03132B60B7
:105C10000346D5F800C002FB0C1CC5F800C043F8D1
:105C200004CB7F1ED5F800C002FB0C1CC5F800C0D9
:105C300043F804CBD5F800C002FB0C1CC5F800C02B
:105C400043F804CBD5F800C002FB0C1CC5F800C01B
:105C500043F804CBDDD1C36F3360012323702B687D
:105C600002FB03112960317801F01F0150F8212057
:105C700032602A6840F82120306880008008F2BD38
:105C8000400500205FF36E3C0D66190000B587B03B
:105C900005F045F8DFF81417C0B251F82000DFF81E
:105CA0001017086005F03BF8DFF8081711EB40000B
:105CB000DFF80417086005F032F8DFF8001711EB81
:105CC0008000DFF8FC16086005F029F8002853D1A1
:105CD00001214FF4805004F002FF0121102004F054
:105CE000EFFE05220F21DFF8DC0605F08AF8052219
:105CF0000E21DFF8D00605F084F805220D21DFF82B
:105D0000C40605F07EF802208DF8040000208DF80E
:105D1000060002208DF8070003208DF805004FF4DF
:105D20000050009000A9DFF89C0605F009F84FF438
:105D30008040009000A9DFF88C0605F001F84FF4D0
:105D40000040009000A9DFF87C0604F0F9FF4FF452
:105D50008050009001208DF8040000208DF806008E
:105D600001208DF8070003208DF8050000A9DFF859
:105D7000540604F0E5FF52E00121022004F0A0FEE9
:105D800005220E21DFF8400605F03BF805220F2121
:105D9000DFF8340605F035F805220D21DFF8280676
:105DA00005F02FF802208DF8040000208DF8060081
:105DB00002208DF8070003208DF805004FF40050F5
:105DC000009000A9DFF8000604F0BAFF4FF400408D
:105DD000009000A9DFF8F00504F0B2FF4FF4804016
:105DE000009000A9DFF8E00504F0AAFF4FF480500E
:105DF000009001208DF8040000208DF8060001209D
:105E00008DF8070003208DF8050000A9DFF8B8051C
:105E100004F096FF01214FF4804004F06FFEDFF89C
:105E20009005006805F01AF84FF48270ADF80A008A
:105E30000020ADF808000020ADF80C000020ADF8FF
:105E40000E000020ADF810004FF40070ADF8120005
:105E50000820ADF814000020ADF816000720ADF8BA
:105E6000180002A9DFF84805006805F019F80121BB
:105E7000DFF83C05006805F02EF8DFF83C05006807
:105E80000088DFF83C1509680968088307B000BD81
:105E90002DE9F04184B004000D0016000020ADF89B
:105EA00002000DF1020700208DF804008DF8054076
:105EB00072B6DFF8040500680088DFF80415096889
:105EC000096848830020ADF80000BDF800000028F4
:105ED00005D1BDF80000401CADF80000F5E75FF00B
:105EE0000008B8F1020F2BDA0221DFF8C4040068C1
:105EF00005F003F80028F7D001A818F8001089B2BF
:105F0000DFF8AC04006804F0F6FF0121DFF8A0041C
:105F1000006804F0F2FF0028F7D0DFF8940400686E
:105F200004F0E7FFBDF8021080B2D8F10102D2B24E
:105F3000D20090404018ADF8020018F10108D0E7F7
:105F40005FF00008EDB2A8451FDA0221DFF8600417
:105F5000006804F0D2FF0028F7D018F8061089B2C4
:105F6000DFF84C04006804F0C6FF0121DFF84004AC
:105F7000006804F0C2FF0028F7D0DFF8340400689E
:105F800004F0B7FF18F10108DCE70221DFF8200474
:105F9000006804F0B2FF0028F7D0DFF81C040068A6
:105FA0000088DFF81C1409680968088362B638881D
:105FB0000290029804B0BDE8F0812DE9FE43040090
:105FC0000D0016000020ADF802000DF102074FF0A1
:105FD000FF0801208DF804008DF8054072B6DFF847
:105FE000D80300680088DFF8D81309680968488377
:105FF0000020ADF80000BDF80000002805D1BDF874
:106000000000401CADF80000F5E75FF00009B9F1B1
:10601000020F2BDA0221DFF89803006804F06DFF0D
:106020000028F7D001A819F8001089B2DFF8800322
:10603000006804F060FF0121DFF87403006804F0D9
:106040005CFF0028F7D0DFF86803006804F051FF18
:10605000BDF8021080B2D9F10102D2B2D200904054
:106060004018ADF8020019F10109D0E75FF000090E
:10607000EDB2A9451EDA0221CD48006804F03DFFCB
:106080000028F8D05FFA88F8414689B2C84800680D
:1060900004F031FF0121C648006804F02EFF0028FB
:1060A000F8D0C348006804F024FF3070761C19F162
:1060B0000109DDE70221BE48006804F01EFF002848
:1060C000F8D0BD4800680088BD49096809680883A0
:1060D00062B6388802900298BDE8FE8370B584B03D
:1060E00004000020ADF802000DF1020580208DF8BB
:1060F00004008DF8054072B6AF4800680088B049CA
:106100000968096848830020ADF80000BDF8000068
:10611000002805D1BDF80000401CADF80000F5E7EF
:106120000026022E25DA0221A148006804F0E5FECF
:106130000028F8D001A8315C89B29D48006804F0BD
:10614000DAFE01219A48006804F0D7FE0028F8D052
:106150009748006804F0CDFEBDF8021080B2D6F179
:106160000102D2B2D20090404018ADF80200761C75
:10617000D7E702218E48006804F0BFFE0028F8D05F
:106180008D48006800888E4909680968088362B6EE
:1061900028880290029804B070BDFEB504000D007E
:1061A0000020ADF802000DF1020600208DF8040079
:1061B000FF208DF8050072B67F480068008880498E
:1061C0000968096848830020ADF80000BDF80000A8
:1061D000002805D1BDF80000401CADF80000F5E72F
:1061E0000027022F25DA02217148006804F085FE9D
:1061F0000028F8D001A8395C89B26D48006804F025
:106200007AFE01216A48006804F077FE0028F8D081
:106210006748006804F06DFEBDF8021080B2D7F147
:106220000102D2B2D20090404018ADF802007F1CAB
:10623000D7E70027E4B2A74219DA02215C480068D8
:1062400004F05BFE0028F8D0795D89B258480068F8
:1062500004F051FE01215648006804F04EFE00286B
:10626000F8D05348006804F044FE7F1CE2E70221A6
:106270004F48006804F041FE0028F8D04E480068FE
:1062800000884F4909680968088362B6308802901F
:106290000298FEBD2DE9F04184B004000D000020FD
:1062A000ADF802000DF10206FF2701208DF8040071
:1062B000FF208DF8050072B63F480068008840490D
:1062C0000968096848830020ADF80000BDF80000A7
:1062D000002805D1BDF80000401CADF80000F5E72E
:1062E0005FF00008B8F1020F27DA02213048006899
:1062F00004F003FE0028F8D001A818F8001089B2B5
:106300002B48006804F0F7FD01212948006804F0DB
:10631000F4FD0028F8D02648006804F0EAFDBDF836
:10632000021080B2D8F10102D2B2D20090404018DF
:10633000ADF8020018F10108D4E75FF00008E4B2FC
:10634000A0451DDA02211A48006804F0D6FD002895
:10635000F8D0FFB2390089B21548006804F0CBFDCF
:1063600001211348006804F0C8FD0028F8D0104847
:10637000006804F0BEFD28706D1C18F10108DEE70E
:1063800002210B48006804F0B8FD0028F8D00A4844
:10639000006800880A4909680968088362B630887D
:1063A0000290029804B0BDE8F08100004007002090
:1063B00018230020242A0108202300204C07002055
:1063C0001C230020001002400004024038B50400E5
:1063D000206A211D451A2900C9B2201D2268904754
:1063E000002801D1002007E094F82900281884F83B
:1063F0002900201D2062012032BD70B504000D006F
:1064000000200600F6B2705D002801D0761CF9E786
:106410003100C9B2280022689047002806D094F8BD
:106420002900301884F82900012000E0002070BD08
:106430002DE9FE4F0400894692460027201D206268
:1064400014F114006062002084F8290099F800001B
:10645000002800F0068299F800805FFA88F8B8F109
:10646000250F2BD05FFA88F8B8F1260F26D05FFAF7
:1064700088F8B8F17B0F09D05FFA88F8B8F17D0F82
:1064800004D05FFA88F8B8F1230F0BD1DFF81804B5
:106490000078002800F0D981206A411C216280F830
:1064A0000080D2E1DFF804040078002800F0CD81FC
:1064B000206A411C216280F80080C6E119F10109BF
:1064C00099F80000252803D099F80000262806D165
:1064D000206A411C216299F800100170B5E15FFA51
:1064E00088F8B8F1260F14D1DFF8BC030078002833
:1064F0000FD00120060099F800006E280BD099F803
:1065000000004E2807D0206A411C21627B210170C7
:1065100001E0002006000020050099F800004E2848
:1065200006D0542837D06E2802D0742833D052E0D9
:10653000DAF800B01AF1040ADFF8740300780028D2
:1065400026D0F6B2002E09D0206A411C21627B21A0
:106550000170206A411C2162282101702000FFF790
:1065600035FF002800F0858159462000FFF745FFE0
:10657000002800F07E81F6B2002E09D0206A411C6E
:10658000216229210170206A411C21627D21017054
:106590000020060051E1DAF800B01AF1040A2000E8
:1065A000FFF714FF002800F0648159462000FFF730
:1065B00024FF002800F05D812000FFF707FF00287E
:1065C00000F05781206A411C21623A2101700120AC
:1065D000050019F1010999F80000303899F8011007
:1065E000C0B202283FDBC0B207283CDAC9B2642936
:1065F00002D0C9B2752936D10022DAF800301AF17A
:10660000040A1F005FF0010E8DF800E0C9B2642992
:1066100005D15FEA034C02D5521CDB435B1C9BB2E5
:10662000002B09D09BB2002B07D0521C9BB25FF00D
:106630000A0C93FBFCF3F5E7521C94461CF1010293
:106640005FFA8CFCC0B284450AD2D4F820C01CF199
:10665000010EC4F820E05FF0200E8CF800E0ECE7BB
:1066600019F1010902E000228DF8002099F80000DC
:10667000002800F0D680322800F08F80342800F007
:106680008C80482871D0582879D063280CD0642891
:1066900025D0682869D070280FD073280DD07528B0
:1066A0001DD078286BD0C1E0206A411C2162DAF845
:1066B00000101AF1040A0170BFE0DAF800B01AF114
:1066C000040A2000FFF782FE002800F0D28059461D
:1066D0002000FFF792FE002800F0CB80ADE09DF88F
:1066E0000000002801D0380003E0DAF800001AF1B9
:1066F000040A80B2002805D1216A4A1C2262302295
:106700000A7031E0002199F80020642A0CD10204BB
:106710000AD5226A531C23622D23137080B2B0F570
:10672000004F01D000B2404280B200280ED080B2AB
:106730000A2290FBF2F302FB130201ABC9B2CA5466
:10674000491C80B20A2290FBF2F0EDE70A00511ECC
:10675000D2B2002A08D0226A531C236201ABC9B20C
:10676000CB5C30331370F1E767E0206A411C216293
:1067700030210170206A411C216278210170DAF811
:1067800000B01AF1040A02225FFA8BFB594689B263
:10679000206A04F0BFFB20624FE019F1010999F86B
:1067A0000000682803D099F8000048280AD1206A20
:1067B000411C216230210170206A411C2162782134
:1067C00001700AE099F80000782806D099F80000D6
:1067D000582802D0B9F101092FE019F8010C32282C
:1067E0000BD1DAF800B01AF1040A0422594689B232
:1067F000206A04F08FFB206212E0DAF800B01AF190
:10680000040A04225FEA1B4189B2206A04F082FB79
:1068100020620422594689B2206A04F07BFB206280
:106820000BE0EDB2002D01D1B9F10109EDB2002D5F
:1068300003D0201D2062B9F10109F6B2002E04D068
:10684000206A411C21627D210170206A616A8842B0
:1068500004D32000FFF7BAFD00280AD019F101097E
:10686000F4E52000FFF7B2FD002802D094F82900DB
:1068700000E00020BDE8FE8F0EB470B58BB00400C0
:1068800001260C4800900FA805002A00210000A84E
:10689000FFF7CEFD002801D1002006003000C0B275
:1068A0000BB070BC5DF810FB960700209707002026
:1068B0009507002071B00008F0B587B00400A02053
:1068C0008DF803000DF1030201219F20FFF7E0FA8C
:1068D000B4F9000002F05AF90700606802F060F9AC
:1068E000390002F0A5FCDFF8E41902F023FC02F005
:1068F00081FD05006320FFF7F1FB00208DF800000B
:106900009DF80000FF2805D09DF80000401C8DF880
:106910000000F5E703F0DAF8DFF8F00A0078C0B21B
:106920004008C0B24028E8D1DFF8E40A0068DFF888
:10693000A019884203D2002001F05BF902E0012097
:1069400001F057F96220FFF7C9FB00208DF8000025
:106950009DF80000FF2805D09DF80000401C8DF830
:106960000000F5E703F0B2F8DFF8A00A0078C0B243
:106970004008C0B20328E8D1280002F007F95FF010
:10698000914102F055FC0700DFF8840A006802F02C
:1069900007F90100380002F0CDFB02F02BFD0600E4
:1069A000300080B2001210F00F008DF81600300099
:1069B0008DF81700A0684002DFF8541A09688909A9
:1069C000B0FBF1F0401C8DF81400606804F0FBFC93
:1069D0000DF101020121A320FFF7EFFA9DF801005C
:1069E00010F0FD008DF801000DF101020121A3203E
:1069F000FFF74EFA03AA0DF10D01206900F06AFCC1
:106A00009DF80D008DF81000607B9DF80C10084378
:106A10008DF811000DF1010201211C20FFF7CDFAC4
:106A20000DF106020DF10701606900F09BFD9DF874
:106A300006009DF8011011F0080151EA00109DF8C0
:106A4000071008438DF8120001AA0DF10501A06995
:106A500000F0E6FC9DF805009DF8041051EA0010D6
:106A60008DF81300DFF8A8090068000B01F0E4F9C5
:106A700002000B000020DFF89C1901F0CDFA002283
:106A8000DFF8943902F0DCFD01F0F2FB070038007A
:106A900004F0E4FC02F084F80100380003F0F2FB9B
:106AA000DFF8781904F0ECFC06D8380002F0A2FCFC
:106AB000401C8DF8020004E0380004F0CFFC8DF893
:106AC0000200DFF84C090068DFF80418884204D29D
:106AD0009DF802008DF815002EE0DFF834090068FB
:106AE000400B01F0A9F902000B000020DFF8241987
:106AF00001F092FA0022DFF8203902F0A1FD01F046
:106B0000B7FB0700380004F0A9FC02F049F80100C7
:106B1000380003F0B7FBDFF8041904F0B1FC06D825
:106B2000380002F067FC401C8DF8150004E03800C6
:106B300004F094FC8DF815000DF1020201210720EC
:106B4000FFF7A6F90290DFF8C408BDF8081001802D
:106B5000DFF8BC080068DFF8041A88420ED3DFF8BB
:106B6000B00800684008DFF8F819884201D3012016
:106B700000E00020C0B200F07AF90CE0DFF89008E5
:106B80000068DFF8DC19884201D3012000E0002012
:106B9000C0B200F06CF914F10C0201216C20FFF777
:106BA00077F905AA04210C20FFF772F904AA042141
:106BB0001A20FFF76DF90290DFF85008BDF80810B1
:106BC0000180012000F06EFF80208DF81400E3208A
:106BD0008DF8150005AA02219920FFF759F90290B6
:106BE000DFF82808BDF808100180606800F062FA3C
:106BF00007B0F0BD2DE9F04F87B0060004AA0821C8
:106C00000820FFF7DAF903AA04211A20FFF7D5F9C3
:106C10000090DFF8F807BDF8001001809DF8130020
:106C200010F00700012802D10020834629E09DF8DA
:106C3000130010F00700032802D10120834620E052
:106C40009DF8130010F00700042802D102208346AB
:106C500017E09DF8130010F00700052802D103206B
:106C600083460EE09DF8130010F0F80050F001008C
:106C70008DF8080002AA01210B20FFF709F9002076
:106C800083469DF8100010F01F009DF81110490375
:106C900011EB40509DF8121010EB41109DF81310AD
:106CA00010EBD10A00F08EFF471C504601F0C4F8EB
:106CB00080468946DFF85807006801F0BDF80400F7
:106CC0000D00FFB2DFF8BC095FFA8BFB1BF8000078
:106CD00000FB07F05FF48021484301F0A3F80200B5
:106CE0000B002000290001F097F942464B4601F0C5
:106CF000B1F802F031FB02F067FB70609DF81600FE
:106D00009DF8171011EB0024200502D554F47044AF
:106D100001E02405240DADF80A40BDF90A00DFF8B2
:106D2000F01609684843DFF86419484300B27168F7
:106D30005FF480225143B0FBF1F030809DF81400E5
:106D4000DFF8CC160968C90B4843B06000F068F959
:106D500030739DF80D0010F0700070739DF80E00F8
:106D600010F007008DF807009DF80E00C0B2000972
:106D70008DF806009DF80F00C0B200098DF80500DF
:106D80009DF80F0010F00F008DF80400002500F0B2
:106D900052FF0500DFF878060068691D0200CA404E
:106DA0009DF80C0010F5807000FB02F09DF80D10AE
:106DB00011F00F01D1F117010200CA403261DFF872
:106DC0005006006801F0ECFE5FF0914102F0B2F96C
:106DD00000909DF8070001F02FF80022DFF8B0388E
:106DE00002F02EFC00225FF0804301F015F980468E
:106DF000894601209DF90610884001F013F84246AB
:106E00004B4601F027F802F0DFFA01F0C9FE0099C5
:106E100002F00EFA04F022FB7061DFF878089DF8AA
:106E200005109DF80420092303FB021130F811001E
:106E300001F002F80022DFF8603801F00BF880461C
:106E40008946DFF8CC0501680800E84000F0F4FF4F
:106E50000022DFF8C43801F0DFF842464B4600F06C
:106E6000F9FF02F0B1FAB06107B0BDE8F08F1CB5D0
:106E7000040000208DF8000000AA01210120FFF786
:106E80009CF80190DFF88405BDF804100180E4B29D
:106E9000012C06D19DF8000050F040008DF8000054
:106EA00005E09DF8000010F0BF008DF8000000AA7A
:106EB00001210120FEF7ECFF0190DFF85005BDF83D
:106EC0000410018013BD30B40100DFF82C088142AA
:106ED00006D3DFF82808814202D2062003001FE013
:106EE000DFF81C08814206D3DFF81808814202D27D
:106EF0000C20030014E0DFF81008814206D3DFF80D
:106F00000C08814202D21020030009E0DFF80008DB
:106F1000814205D3DFF8FC07814201D22020030023
:106F2000DFF86807B1FBF0F0DBB258430200DFF88E
:106F3000EC07C08B824202D30F20040021E0002026
:106F4000040064B20F2C08DADFF8D00764B230F81E
:106F50001400904201D2641CF3E764B2002C10D0FC
:106F6000DFF8B80764B210EB440030F8020C101AD6
:106F7000DFF8A85764B235F81450AD1AA84200D211
:106F8000641E64B2082594FBF5F000FB1540C0B206
:106F900030BC704700B583B000AA04210820FFF779
:106FA0000CF80190DFF86404BDF8041001809DF82E
:106FB000000010F01F009DF80110490311EB405034
:106FC0009DF8021010EB41109DF8031010EBD1005A
:106FD0000EBD00B583B000AA01210B20FEF7EDFF26
:106FE0000190DFF82804BDF8041001809DF800002E
:106FF00010F00700012801D1002010E09DF80000EA
:1070000010F00700032801D1012008E09DF80000DE
:1070100010F00700042801D1022000E003200EBD7B
:1070200000B583B000AA01216C20FEF7C6FF0190D5
:10703000DFF8D803BDF8041001809DF800000EBDF4
:1070400000B583B000AA01210C20FEF7B6FF019025
:10705000DFF8B803BDF8041001809DF80000DFF8E8
:10706000B01309684843C00B0EBD1CB500AA02212D
:107070000E20FEF7A2FF0190DFF89003BDF8041088
:1070800001809DF800009DF8011011EB002108051A
:1070900002D551F4704101E00905090D0C0024B23C
:1070A000DFF86C03006800FB04F05FF4802290FBC3
:1070B000F2F016BD2DE9F04F87B00400DFF8380676
:1070C000844206D3DFF83406844202D2002081468F
:1070D0001FE0DFF82C06844206D3DFF8280684423E
:1070E00002D20120814614E0DFF81C06844206D358
:1070F000DFF81806844202D20220814609E0DFF858
:107100001006844205D3DFF80C06844201D2032026
:107110008146FFF7AAFF8046FFF792FF0500FFF7C1
:107120007FFF060018EB0400F6B206FB050082465E
:1071300000F048FD471C5FFA89F9B9F1000F2AD029
:10714000B9F1020F0FD01AD3B9F1030F2ED1DFF826
:107150000409824503D2002002F09EFB02E00120D8
:1071600002F09AFB22E0DFF8F008824503D200200B
:1071700002F092FB02E0012002F08EFB16E0DFF845
:10718000DC08824503D2002002F086FB02E00120E9
:1071900002F082FB0AE0DFF8C808824503D2002033
:1071A00002F07AFB02E0012002F076FB5046FFF786
:1071B0008AFE8DF81000DFF8CC045FFA89F919F81F
:1071C000000000FB04F000F037FECDE90201FFB241
:1071D0005FF4802000FB07F000F024FECDE9000101
:1071E0008B48006800F028FE02000B00DDE900017A
:1071F00000F012FFDDE9022300F02CFE02F0E4F8BB
:1072000083465FEA5B5010F01F009DF810104901A3
:1072100008438DF814005FEA5B308DF815005FEAD3
:107220005B108DF81600DFF8F8045FFA89F919F899
:10723000000050EACB008DF8170005AA04210820B1
:10724000FEF726FE00907148BDF800100180DFF8BF
:1072500050080078012802D103F0F5FF00E000207B
:1072600007B0BDE8F08F2DE9F047FFF793FE8246A7
:10727000FFF7AFFE070000F0A5FC461C504600F0EB
:10728000DBFD804689466248006800F0D5FD0400B9
:107290000D00F6B2DFF8EC03FFB2385C00FB06F03D
:1072A0005FF48021484300F0BDFD02000B00200088
:1072B000290000F0B1FE42464B4600F0CBFD02F043
:1072C0004BF802F081F8BDE8F08700000024744913
:1072D00080C3C9012DE9FE4305000E001700002000
:1072E0008DF808000F245FF0000900F0A4FC81462F
:1072F0009DF80800002813D164B2002C10D4DFF8E8
:1073000088030068D4F1140119EB01010200CA409E
:10731000954203D301208DF80800E9E7641EE7E7F2
:1073200064B2002C02D5002464B200E064B23C7068
:107330000120D4F11701884000FB05F0DFF8481365
:10734000096819F105020B00D340B0FBF3F0804649
:107350000020C0B2032828DA5FFA88F8C0B210EB28
:107360000801491E002918D05FFA88F8C0B210EB56
:107370000801FF31C44A126819F1050394463CFA2A
:1073800003FC0CFB01F1D4F117020B00D340E91A06
:1073900000AAC0B222F8101005E047F6FF7100AA5B
:1073A000C0B222F81010401CD3E74FF6FF70002146
:1073B000C9B2032928DA00AAC9B232F91120012A78
:1073C00004DB00AAC9B232F9112004E000AAC9B254
:1073D00032F91120524280B2824213DA00AAC9B2B5
:1073E00032F91120012A04DB00A8C9B230F81100DB
:1073F00004E000A8C9B230F91100404211EB0802C4
:10740000521E3270491CD3E7BDE8F78348230020A1
:1074100040230020A4FA3541000050C00100003F85
:107420002DE9F04383B005000E0017005FF001095D
:1074300000F001FC002802D00220814601E001207A
:107440008146914800685FFA89F9B0FBF9F0642140
:10745000B0FBF1F000210C0064B25A2C0CDA8D491B
:1074600064B231F81410414340F62822B1FBF2F126
:107470008D4201D2641CEFE764B2002C60D0A046BC
:107480000021C9B203292CDA4FFA88F8C9B211EBEE
:107490000802521E002A07D54FFA88F8C9B211EB2C
:1074A0000802521E5A2A14DA7A4A4FFA88F8C9B2E8
:1074B00011EB080312EB430232F8022C424340F670
:1074C0002823B2FBF3F2AA1A00ABC9B223F81120A9
:1074D00005E047F6FF7200ABC9B223F81120491C42
:1074E000CFE74FF6FF710022D2B2032A28DA00ABB1
:1074F000D2B233F91230012B04DB00ABD2B233F934
:10750000123004E000ABD2B233F912305B4289B2E0
:107510008B4213DA00ABD2B233F91230012B04DB09
:1075200000A9D2B231F8121004E000A9D2B231F9A8
:107530001210494212EB08035B1E1C00521CD3E7D9
:1075400064B2092194FBF1F1397064B2092194FB12
:10755000F1F201FB12413170BDE8F78381C3C9012B
:1075600040787D012DE9F04F83B004008B469246B0
:1075700000254548006801F013FB5FF0914101F0E0
:10758000D9FD060000200700FFB20A2F17DA0120FC
:10759000B84000F047FC0022DFF8543500F05AFCF8
:1075A00001F012FF01F0FCFA310001F041FE03F09E
:1075B00055FF01900198844201D37F1CE4E78AF8CB
:1075C000007000200700FFB2082F27DA0095FFB2F5
:1075D000380000F031FC00222D4B02F031F800227F
:1075E0005FF0804300F018FD8046894601209AF93B
:1075F0000010884000F016FC42464B4600F02AFC82
:1076000001F0E2FE01F0CCFA310001F011FE03F0CE
:1076100025FF0500AC4201D37F1CD4E78BF8007036
:107620000098201A291B884204D29BF80000401EB3
:107630008BF80000BDE8F78F1CB5002400AA0221DA
:107640001A20FEF7BAFC01903648BDF804100180FC
:1076500000F0F1FA0400DFF89C040068611D0200EC
:10766000CA409DF8000010F5807000FB02F19DF803
:10767000010010F00F00D0F117020800D04016BD35
:1076800000000000142B01084023002040420F009E
:1076900000002040640A0108000059401CB50400A5
:1076A00000AA01211B20FEF788FC9DF8000010F0C5
:1076B0008F008DF800009DF8000020438DF8000039
:1076C00000AA01211B20FEF7E3FB01908948BDF8C9
:1076D0000410018013BD00B583B000AA01211B2056
:1076E000FEF76BFC01908348BDF8041001809DF803
:1076F000000010F070000EBD80565F2EE12F0C3997
:1077000080E40117616A141CC060D211E1D7CE1465
:10771000408FE10861D06F0AA8CB78416C1701084F
:10772000182B0108482300202DE9FC4D04000D0012
:107730000027DFF8C40384420CD3DFF8C00384427F
:1077400008D200200600DFF8B803844222D20120CC
:1077500006001FE0DFF8AC03844206D3DFF8A8037D
:10776000844202D20220060014E0DFF8A003844223
:1077700006D3DFF89C03844202D20320060009E00E
:10778000DFF89003844205D3DFF88C03844201D2F2
:1077900004200600012007002800002103F070FEED
:1077A00038D2280001F0B0FD02000B00CDE9002323
:1077B000DFF86803F6B2182101FB0600806801F0CB
:1077C000A3FD02000B000020DFF8541300F024FC9E
:1077D00082468B46DFF84403F6B2182101FB06000F
:1077E000C068DFF83813F6B2182202FB0611896868
:1077F00001F0A0FC01F088FD02000B005046594644
:1078000003F050FEDDE9002303F00CFF02D200205C
:1078100007003CE02800002103F01CFF37D8DFF808
:10782000FC02F6B2182101FB0600806801F06CFD35
:1078300002000B000020DFF8EC1200F0EDFB8246A6
:107840008B46DFF8D802F6B2182101FB0600C068AB
:10785000DFF8C812F6B2182202FB0611896801F09F
:1078600069FC01F051FD02000B005046594603F03F
:1078700019FE02000B0092469B46280001F044FDD1
:1078800052465B4603F0CEFE01D202200700DFF82D
:107890008C02F6B2182101FB0600FFB250F8370047
:1078A000290001F0C5FCDFF87412F6B2182202FBC1
:1078B0000611FFB27A0011EB8201496803F0DCFE89
:1078C000804640465FF07E5103F0C4FE03D25FF075
:1078D0007E50804608E04046DFF84C1203F0D0FDB1
:1078E00002D8DFF84C028046404601F083FDC0B26A
:1078F000BDE8F68D482300202DE9F84304000D0073
:107900000027EDB2002D02D0EDB25B2D02DBDFF8D7
:107910001C0269E0DFF8E00184420CD3DFF8DC01EF
:10792000844208D200200600DFF8D401844222D22B
:10793000012006001FE0DFF8CC01844206D3DFF807
:10794000C801844202D20220060014E0DFF8BC0124
:10795000844206D3DFF8B801844202D20320060035
:1079600009E0DFF8B001844205D3DFF8AC018442BE
:1079700001D20420060001200700EDB20D2D02DA2D
:107980000020070004E0EDB2292D01DB02200700F2
:10799000EDB2280001F004F9DFF88011F6B21822E8
:1079A00002FB0611FFB251F8371001F0C3FB81460C
:1079B000DFF86801F6B2182101FB0600FFB279007A
:1079C00010EB81004068DFF85411F6B2182202FB78
:1079D0000611FFB251F8371001F0ACFB0100484628
:1079E00002F050FC80464046BDE8F2837CB50400BE
:1079F0000D00FFF738FC2900FFF796FE8DF8000018
:107A0000D4F11700060000AA01213000C0B2FEF731
:107A10003FFA0190DFF86401BDF80410018073BDE6
:107A200030B583B00400D4F11700050000AA01218D
:107A30002800C0B2FEF7C1FA0190DFF84001BDF89E
:107A400004100180FFF70FFC9DF80010FFF754FFB2
:107A50003EBD0000E2F49C09C4E93913068DA21969
:107A60000B1A45331CB5040000AA01211820FEF7AB
:107A7000A4FA9DF8000010F0F8008DF800009DF8C1
:107A8000000020438DF8000000AA01211820FEF715
:107A9000FFF90190DFF8D801BDF80410018013BD93
:107AA0009B0700201CB5040000208DF8000000AAF0
:107AB00001211E20FEF781FAE4B2012C06D19DF8C7
:107AC000000050F080008DF8000005E09DF80000F7
:107AD00010F07F008DF8000000AA01211E20FEF7A3
:107AE000D7F90190DFF88801BDF80410018013BDBB
:107AF00000001E404023002080565F2EE12F0C39ED
:107B000000E9A43580E40117616A141CC060D21139
:107B1000E1D7CE14408FE10861D06F0A180B01083D
:107B200000002A40000044400100B442000002C3AB
:107B30000000B4421CB5040000AA01212720FEF772
:107B40003CFAE4B2012C06D19DF8000050F0100080
:107B50008DF8000005E09DF8000010F0EF008DF8B2
:107B6000000000AA01212720FEF792F90190404869
:107B7000BDF80410018013BD000000004823002060
:107B80001CB5040000AA01219E20FEF716FAE4B2FB
:107B9000012C06D19DF8000050F080008DF8000007
:107BA00005E09DF8000010F07F008DF8000000AAAD
:107BB00001219E20FEF76CF901902D48BDF80410BC
:107BC000018013BD00B583B000AA01219E20FEF7FD
:107BD000F4F901902648BDF8041001809DF80000DA
:107BE000C0B2C009C0B2002801D0012000E00020CE
:107BF0000EBD1CB5040000AA0121B420FEF7DDF97A
:107C0000E4B2012C06D19DF8000010F0F7008DF8C9
:107C1000000005E09DF8000050F008008DF800001D
:107C200000AA0121B420FEF733F901901048BDF8F5
:107C30000410018013BD00B583B000AA0121B42057
:107C4000FEF7BBF901900A48BDF8041001809DF8C9
:107C50000000C0F3C000C0B2002801D0002000E046
:107C600001200EBD03480068704702490860704754
:107C700048230020402300201CB5040000F032F807
:107C8000002000F077FB0120FFF754FF60788DF8AB
:107C90000000A0788DF8010020788DF8020000AA7D
:107CA00003213B20FEF7F4F801905D48BDF8041075
:107CB000018013BD1CB5040000AA03213B20FEF780
:107CC0007CF901905648BDF8041001809DF8000031
:107CD00060709DF80100A0709DF8020010F00E0089
:107CE000207013BD00B583B000AA01213120FEF73A
:107CF00064F901904A48BDF8041001809DF8000025
:107D000010F00F008DF800009DF8000050F080008A
:107D10008DF8000000AA01213120FEF7B9F801908A
:107D20003F48BDF80410018000AA01213320FEF76E
:107D300044F901903A48BDF8041001809DF8000014
:107D400010F0F3008DF8000000AA01213320FEF7A7
:107D50009FF801903248BDF80410018000AA01216B
:107D60005120FEF72AF901902D48BDF8041001803A
:107D70009DF8000010F0DF008DF8000000AA01213E
:107D80005120FEF785F801902548BDF804100180C8
:107D900007BD00B583B000AA01213B20FEF70DF915
:107DA00001901F48BDF8041001809DF800000EBD31
:107DB00000B583B000AA01213D20FEF7FEF8019036
:107DC0001748BDF8041001809DF800000EBD1CB5D9
:107DD000040020008DF80100A4B2200A8DF80000F4
:107DE00000AA02213420FEF753F801900C48BDF898
:107DF0000410018013BD00B583B000AA0221342015
:107E0000FEF7DBF801900648BDF8041001809DF8EC
:107E100000009DF8011011EB002080B20EBD0000A3
:107E200048230020010040F10980F446404200F060
:107E300005F851F000416047010000BF09D0B0FAD9
:107E400080F18840C91CC1F58461090501EBD0218E
:107E500040057047B0B581EA030C0CF0004C40F2CD
:107E6000FF7515EA11541DBF15EA1357AC42AF4216
:107E700039E0E41923EA455343F48013C90241F081
:107E8000004141EA505EC7021100A7FB0202002830
:107E90004FF00000EEFB01204FF00001E3FB072153
:107EA00018BF42F00102401800214941E3FB0E01D6
:107EB000A4F580640F0302D252004041494154F1BD
:107EC00001046CDD470872F1004250F1000051EBF3
:107ED0000451A1F580115CBF41EA0C01B0BD4CEA30
:107EE00005510020B0BD05EA1357AC4214BFAF42A4
:107EF00041E050EA410E1CBF52EA430E02E06146E7
:107F00000020B0BD24423C441BD15FEA070EF6D0EE
:107F1000090302BF01460020AEF1140EB1FA81F749
:107F2000AEEB070401FA07FE0C37C7F1200100FA97
:107F300007F7C8404EEA000E23EA455343F4801386
:107F4000A2E733F00043B3FA83F704BFB2FA82FE2C
:107F500077440B3FE41BB7F1200E2FBF02FA0EF35C
:107F6000BB40C7F1200E22FA0EFE38BF43EA0E03D3
:107F7000BA40641C82E750EA410E14BF52EA430E35
:107F80006FF000014FF4001717EB430F8ABF19463B
:107F900017EB410FB5E74CEA05510020B0BDD4F115
:107FA0000104B4F120070FDAC4F12007520828BFFA
:107FB00042F0010210FA07F501FA07F7E1BF2A4380
:107FC000E0403843E1400FE0352C98DCC7F1200455
:107FD00052EA400220FA07F218BF42F0010231FAD9
:107FE00007F0A1400A43002172F1004250F1000065
:107FF00051EB0C01B0BD50F8041B61B150F8042BDB
:10800000D30744BFA9F101039A180023091F42F8BE
:10801000043BFAD1EFE770472DE9F04140F2FF75DC
:1080200081EA030C0CF0004C15EA11541DBF15EA4F
:108030001357AC42AF42E9E0BC41C1F31301C3F3B3
:108040001303801A994143F4801304D2641E400044
:10805000494180185941C90241EA5051B1FBF3F638
:1080600003FB1611A2FB0675D7EBC020A94102D273
:10807000761E80185941C90241EA5051B1FBF3FE06
:1080800003FB1E11A2FB0E75D7EBC020A94103D242
:10809000AEF1010E80185941890241EA90517605EE
:1080A00046EA8E2EB1FBF3F603FB1611A2FB067512
:1080B000D7EB8020A94102D2761E80185941C9020F
:1080C00041EA50514EEA060EB1FBF3F603FB1611DE
:1080D000A2FB0675D7EBC020A94102D2761E8018FC
:1080E0005941C90241EA5051B1FBF3F703FB1711A3
:1080F000A2FB0735D3EBC020A94167F100070CBFF5
:10810000004247F0010766F3D5274FEA1E31B80851
:1081100014F5806414DDBD0775F1004250EB0E507C
:1081200051EB045111F5801F5CBF41EA0C01BDE821
:10813000F0814CF07F6141F0E0410020BDE8F0812A
:10814000BD076D0840EA0E5041F48011D4F10104DE
:10815000B4F120060ADAC4F120060200E04001FA78
:1081600006F3E1401843B24015430EE0342C14DC12
:10817000C6F1200445EA40056D0820FA06F21543D1
:1081800021FA06F0A1400D43002175F1004250F1A3
:10819000000051EB0C01BDE8F08100205FEA0C010A
:1081A000BDE8F081CFB992185B41B3FA83F704BF01
:1081B000B2FA82F6BF190B3FB7F120062FBF02FAC1
:1081C00006F3BB40C7F1200622FA06F638BF334358
:1081D000BA401CB1E419641E2FE77F4231F0004120
:1081E000B1FA81F404BFB0FA80F6A4190B3CB4F1E3
:1081F00020062FBF00FA06F1A140C4F1200620FAA4
:1082000006F638BF3143A0403C1B16E7AC421ABF0C
:1082100005EA1357AF4214E050EA41061CBF52EA88
:108220004306BFE750EA4107304661461CBF41EABA
:108230000551BDE8F08152EA430C08BFC143BDE8D7
:10824000F08100204FF4001616EB410F98BF16EB9B
:10825000430F08BF16EB410F24BFC14305E016EBE7
:10826000430F0CBF61464CEA0551BDE8F081750033
:108270004FEAF17CBCF1E04C2CBFBCF5001F11E0D3
:108280005FEA4C0C34BFBCF17F5F2EE05FEA9C0CD0
:108290004FEA0C1C4FEA3C0CC10071F100414CEB61
:1082A00050707047C90241EA5051C00218BF41F0F6
:1082B000010141F000414FEA6C50C0F10900212852
:1082C00010D240EACC7CCCF1200C11FA0CF070F109
:1082D0000040CCF1200C21FA0CF00CF0004C40EBEB
:1082E0000C0070474FEACC707047490011F5001F31
:1082F00004D84FEACC10FF30C0057047C81770474C
:1083000000B583B000AA01213020FDF756FE019090
:10831000DFF8B402BDF8041001809DF8000010F0F1
:1083200007000EBD00B583B000AA01213220FDF781
:1083300044FE0190DFF89002BDF8041001809DF822
:108340000000C0B2C008401CC0B20EBD00B583B072
:1083500000AA01213220FDF730FE0190DFF868020B
:10836000BDF8041001809DF80000C0F34100401CDE
:10837000C0B20EBD1CB5040000AA01214F20FDF7BC
:108380001CFE0190DFF84002BDF804100180E4B249
:10839000012C06D19DF8000050F001008DF800007E
:1083A00005E09DF8000010F0FE008DF8000000AA26
:1083B00001214F20FDF76CFD0190DFF80C02BDF8A4
:1083C0000410018013BD1CB5040000AA0121332054
:1083D000FDF7F3FD0190DFF8F001BDF80410018016
:1083E000E4B2012C06D19DF8000050F010008DF889
:1083F000000005E09DF8000010F0EF008DF800008F
:1084000000AA01213320FDF743FD0190DFF8B801F8
:10841000BDF80410018013BD00B583B000AA01218E
:108420004B20FDF7CAFD0190DFF89C01BDF8041058
:1084300001809DF800000EBD00B583B000AA0121A7
:108440004E20FDF7BAFD0190DFF87C01BDF8041065
:1084500001809DF800000EBD00B583B000AA012187
:108460004C20FDF7AAFD0190DFF85C01BDF8041077
:1084700001809DF800000EBD00B583B000AA012167
:108480004D20FDF79AFD0190DFF83C01BDF8041086
:1084900001809DF800000EBD1CB5002400AA042137
:1084A0004220FDF78AFD0190DFF81C01BDF80410A1
:1084B00001800020C0B2042808DA00A9C0B2415CE3
:1084C000C0B2C20091400C43401CF3E7200016BD2F
:1084D0001CB5002400AA04214620FDF76EFD019082
:1084E000DFF8E400BDF8041001800020C0B20428C9
:1084F00008DA00A9C0B2415CC0B2C20091400C438E
:10850000401CF3E7200016BD00B583B000AA01218E
:10851000D320FDF752FD01902B48BDF804100180D7
:108520009DF800000EBD1CB5002400AA0421CE2039
:10853000FDF743FD01902448BDF8041001800020A0
:10854000C0B2042808DA00A9C0B2415CC0B2C200BF
:1085500091400C43401CF3E7200016BD1CB50400FD
:1085600000AA01215220FDF728FD01901648BDF810
:1085700004100180E4B2002C06D19DF8000050F0F8
:1085800008008DF8000005E09DF8000010F0F700ED
:108590008DF8000000AA01215220FDF779FC01901E
:1085A0000948BDF80410018013BD00B583B000AACE
:1085B0000121D220FDF701FD01900348BDF8041010
:1085C00001809DF800000EBD4823002030B583B027
:1085D000040000AA01215120FDF7EFFC0190DFF813
:1085E000A802BDF8041001809DF8000010F0DF0023
:1085F0008DF800009DF8000050F001008DF800009B
:1086000000AA01215120FDF743FC0190DFF8780218
:10861000BDF80410018000AA01214F20FDF7CDFC18
:108620000190DFF86402BDF8041001809DF800009D
:1086300010F0CF008DF8000000AA01214F20FDF7B7
:1086400027FC0190DFF84002BDF804100180207B78
:10865000012803D108208DF8000002E000208DF8E9
:1086600000009DF80000E17A08438DF80000607A70
:10867000002803D101206072607A00E0607A607A9D
:10868000401E8DF80100207861780843217A084364
:108690008DF80200A07A8DF80300A07B012805D197
:1086A0009DF8030050F010008DF80300607B012856
:1086B00005D19DF8030050F001008DF8030000AAD9
:1086C00004213020FDF7E4FB00200500EDB2042D6D
:1086D00017DAEDB26078C0B24008C0B2D0F1030042
:1086E000854204DA002000A9EDB2685407E0606812
:1086F000EDB2E9000200CA4000A8EDB22A546D1C98
:10870000E4E7A07A002803D10020FFF733FE02E05F
:108710000120FFF72FFE00AA04213620FDF7B8FB49
:108720000190DFF86401BDF80410018037BD1FB56A
:10873000040000AA0A213020FDF73FFC0390DFF877
:108740004801BDF80C1001809DF8010010F00F00E9
:10875000401C60729DF80000C0F3C00020739DF8BB
:10876000000010F00700E0729DF8030010F0E00038
:10877000A0729DF80300C0F30010A0739DF80300E1
:1087800010F0010060739DF8020010F001002072EB
:108790009DF8020010F0F80020709DF8020010F023
:1087A00006006070002060600020C0B2042814DA67
:1087B0006178C9B24908C9B2D1F10201C0B281429F
:1087C00009DA616800AAC0B282189279C0B2C30007
:1087D0009A4011436160401CE7E71FBD00B583B0BC
:1087E00000AA01213020FDF7E8FB01902648BDF8E2
:1087F000041001809DF800001821084201D00120DA
:1088000000E000200EBD30B583B004000025FFF766
:10881000E5FF002801D001200500FFF771FD401998
:10882000050028198DF80100A4B2ADB22819001274
:108830008DF8000000AA02213420FDF729FB0190E9
:108840001148BDF80410018037BD1CB50024FFF7A6
:10885000C5FF002801D001200400FFF751FD0019D9
:10886000040000AA02213420FDF7A7FB019006486E
:10887000BDF8041001809DF800009DF8011011EB77
:108880000020001B80B216BD4823002030B583B005
:10889000040000AA01215120FDF78FFB0190DFF8B1
:1088A000E802BDF8041001809DF8000010F0DF0020
:1088B0008DF800009DF8000050F001008DF80000D8
:1088C00000AA01215120FDF7E3FA0190DFF8B80278
:1088D000BDF80410018000AA01214F20FDF76DFBB7
:1088E0000190DFF8A402BDF8041001809DF800009B
:1088F00010F0CF008DF8000000AA01214F20FDF7F5
:10890000C7FA0190DFF88002BDF804100180E07A18
:1089100050F010008DF80000607A002803D101208B
:108920006072607A00E0607A607A401E50F0C000A9
:108930008DF80100207861780843217A08438DF88A
:108940000200A07A8DF80300607B012805D19DF814
:10895000030050F010008DF80300207B012805D1A2
:108960009DF8030050F001008DF8030000AA0421D7
:108970003020FDF78DFA00200500EDB2042D17DA46
:10898000EDB26078C0B24008C0B2D0F103008542B9
:1089900004DA002000A9EDB2685407E06068EDB287
:1089A000E9000200CA4000A8EDB22A546D1CE4E7B9
:1089B000A07A002803D10020FFF7DCFC02E00120B0
:1089C000FFF7D8FC00AA04213620FDF761FA0190D8
:1089D000DFF8B401BDF80410018037BD1FB50400F5
:1089E00000AA0A213020FDF7E8FA0390DFF8980189
:1089F000BDF80C1001809DF8010010F00F00401C24
:108A000060729DF8000010F00700E0729DF803000E
:108A100010F0E000A0729DF80300C0F30010607336
:108A20009DF8030010F0010020739DF8020010F083
:108A3000010020729DF8020010F0F80020709DF8EF
:108A4000020010F006006070002060600020C0B2DC
:108A5000042814DA6178C9B24908C9B2D1F1020117
:108A6000C0B2814209DA616800AAC0B28218927964
:108A7000C0B2C3009A4011436160401CE7E71FBDCC
:108A80001CB5040000AA02215120FDF796FA0190BE
:108A90003D48BDF8041001806078012806D19DF89A
:108AA000000050F040008DF8000005E09DF8000047
:108AB00010F0BF008DF800002078012806D19DF845
:108AC000010050F004008DF8010005E09DF8010060
:108AD00010F0FB008DF801009DF8010010F00F0070
