:020000040800F2
:10300000882C0020B5500108713001087330010888
:1030100075300108773001087930010800000000A0
:103020000000000000000000000000007B300108EC
:103030007D300108000000007F300108D39B0008AC
:10304000A9510108AD510108B1510108B55101085C
:10305000B9510108BD510108813001089B300108B8
:10306000CD300108C1510108C5510108C9510108FD
:10307000CD510108D1510108D5510108D95101089C
:10308000DD510108E1510108E5510108E95101084C
:1030900085310108ED510108F1510108F1300108B5
:1030A000F5510108F9510108FD51010801520108CB
:1030B000055201083DAA000883AA00080952010828
:1030C0000D52010811520108155201081952010848
:1030D0001D520108215201082552010829520108F8
:1030E000513101082D5201083152010835520108B1
:1030F000395201083D520108415201084552010868
:10310000495201084D520108515201085552010817
:10311000595201085D5201086152010865520108C7
:1031200069520108F0B587B00400A0208DF80300B3
:103130000DF1030201219F2001F0A8FBB4F900006A
:1031400001F042FE0700606801F048FE390001F01E
:1031500065FEDFF8581801F0CDFE01F049FF0500CB
:103160006068DFF85018884204D36068DFF84818B8
:10317000884224D36068DFF84418884204D360682A
:10318000DFF83C1888421AD36068DFF838188842A4
:1031900004D36068DFF84418884210D36068DFF811
:1031A0004018884204D36068DFF83818884206D394
:1031B000DFF8FC27BB21DFF8100801F03BFF607B44
:1031C000002812D0607B50280FD0607B10280CD0D4
:1031D000607B202809D0607B302806D0DFF8EC2700
:1031E000BC21DFF8E40701F025FF2069642804D33F
:1031F0002069DFF8DC17884206D3DFF8D827BD2125
:10320000DFF8C40701F016FFDFF82C080068404221
:103210005FF4802190FBF1F04FF400614843854258
:1032200008DBDFF814080068800C40F2FF714843A7
:10323000A84206DADFF8A027BE21DFF88C0701F0EC
:10324000F9FEDFF8F4070068C00BFF214843A168CE
:10325000884206D2DFF89027BF21DFF86C0701F023
:10326000E9FE6069DFF8D0170968B0EB114F08D3A9
:10327000DFF8C40700680F214843800A616988426B
:1032800006D2DFF86827C021DFF83C0701F0D2FE44
:10329000632001F021FC00208DF800009DF8000063
:1032A000FF2805D09DF80000401C8DF80000F5E7D0
:1032B00001F0D1FEDFF884070078C0B24008C0B248
:1032C0004028E8D1DFF870070068DFF874178842FB
:1032D0002AD2002001F084F9DFF85C070068DFF8EB
:1032E0006417B0FBF1F040F24C4148431A21B0FBA7
:1032F000F1F0A16981420FD3DFF83C070068DFF8E5
:103300004417B0FBF1F0DFF8401748431A21B0FB37
:10331000F1F0A169884233D2DFF83027CF21DFF8FE
:10332000A80601F087FE2BE0012001F059F9DFF833
:10333000080700684008DFF80C17B0FBF1F040F216
:103340004C4148431A21B0FBF1F0A169814210D3EE
:10335000DFF8E40600684008DFF8E816B0FBF1F09B
:10336000DFF8E41648431A21B0FBF1F0A169884266
:1033700006D2DFF8DC26D421DFF84C0601F05AFE35
:10338000622001F0A9FB00208DF800009DF80000EC
:10339000FF2805D09DF80000401C8DF80000F5E7DF
:1033A00001F059FEDFF894060078C0B24008C0B2C0
:1033B0000328E8D1280001F007FD5FF0914101F0FA
:1033C0002DFD0700DFF87006006801F007FD010021
:1033D000380001F08FFD01F00BFE0600300080B2D6
:1033E000001210F00F008DF8160030008DF8170055
:1033F000A0684002DFF8401609688909B0FBF1F0C7
:10340000401C8DF81400606802F02CF80DF10102E8
:103410000121A32001F0CFFA9DF8010010F0FD007A
:103420008DF801000DF101020121A32001F02EFA17
:10343000606836B2DFF80016096801FB06F110EB90
:103440009140A168227B02FB0100DFF868158842E9
:1034500010D3606836B2DFF8E015096801FB06F1A9
:1034600010EB9140A168227B02FB0100DFF84815B8
:1034700088426CD3606836B2DFF8BC15096801FB7E
:1034800006F110EB9140A168227B02FB0100DFF8FE
:103490002C15884210D3606836B2DFF89C15096895
:1034A00001FB06F110EB9140A168227B02FB0100B9
:1034B000DFF80C1588424AD3606836B2DFF8781519
:1034C000096801FB06F110EB9140A168227B02FB29
:1034D0000100DFF8F014884210D3606836B2DFF8DC
:1034E0005815096801FB06F110EB9140A168227B99
:1034F00002FB0100DFF8E414884228D3606836B28A
:10350000DFF83415096801FB06F110EB9140A16862
:10351000227B02FB0100DFF8C814884210D36068E8
:1035200036B2DFF81415096801FB06F110EB914083
:10353000A168227B02FB0100DFF8A814884206D3B1
:10354000DFF81427F021DFF8800401F073FD03AAEF
:103550000DF10D01206900F0BDFB9DF80D008DF807
:103560001000607B9DF80C1008438DF811000DF1E0
:10357000010201211C2001F01EFA0DF106020DF1DD
:103580000701606900F028FD9DF806009DF8011014
:1035900011F0080151EA00109DF8071008438DF85A
:1035A000120001AA0DF10501A06900F043FC9DF88D
:1035B00005009DF8041051EA00108DF81300DFF8A3
:1035C00078040068000B01F089FF02000B00002066
:1035D000DFF8EC1601F090FF0022DFF8E83602F089
:1035E000B7F802F029F90700380002F06DF901F090
:1035F000F5FB0100380002F079F9DFF8CC1602F093
:10360000E9F906D8380001F0F3FC401C8DF80200FF
:1036100004E0380002F058F98DF80200DFF81804D1
:103620000068DFF81C14884204D29DF802008DF86F
:1036300015002EE0DFF800040068400B01F04EFF9B
:1036400002000B000020DFF8781601F055FF002281
:10365000DFF8703602F07CF802F0EEF80700380070
:1036600002F032F901F0BAFB0100380002F03EF935
:10367000DFF8541602F0AEF906D8380001F0B8FCB5
:10368000401C8DF8150004E0380002F01DF98DF89B
:1036900015000DF102020121072001F0F7F8029058
:1036A000DFF89803BDF808100180DFF88C0300688C
:1036B000DFF8181688420ED3DFF87C030068400854
:1036C000DFF80C16884201D3012000E00020C0B2D0
:1036D00000F03DF80CE0DFF860030068DFF8F0155B
:1036E000884201D3012000E00020C0B200F02FF892
:1036F00014F10C0201216C2001F0C8F805AA042184
:103700000C2001F0C3F804AA04211A2001F0BEF82D
:103710000290DFF82803BDF808100180012000F0B6
:103720008DFE80208DF81400E3208DF8150005AA89
:103730000221992001F0AAF80290DFF80003BDF8F9
:1037400008100180606800F085F907B0F0BD1CB575
:10375000040000208DF80000E4B2002C0AD0E4B28E
:10376000012C07D0DFF86C284FF4E271DFF8580223
:1037700001F060FC00AA0121012001F01CF9019078
:10378000DFF8B802BDF804100180E4B2012C06D1C4
:103790009DF8000050F040008DF8000005E09DF815
:1037A000000010F0BF008DF8000000AA01210120E8
:1037B00001F06CF80190DFF88402BDF8041001807C
:1037C00013BDF8B50400DFF8EC01844203D3DFF841
:1037D000E80184421FD3DFF8E401844203D3DFF819
:1037E000E001844217D3DFF8DC01844203D3DFF821
:1037F000EC0184420FD3DFF8E801844203D3DFF801
:10380000E401844207D3DFF8D42840F2F911DFF84D
:10381000B80101F00FFCDFF89C01844206D3DFF809
:103820009801844202D2062007001EE0DFF88C01D6
:10383000844206D3DFF88801844202D20C200700BC
:1038400013E06048844206D3DFF89001844202D23C
:103850001020070009E0DFF88801844205D3DFF873
:103860008401844201D220200700DFF8D801B4FB94
:10387000F0F0FFB278430600DFF86808C08B86429C
:1038800002D30F20050021E0002005006DB20F2DAE
:1038900008DADFF850086DB230F81500B04201D2F6
:1038A0006D1CF3E76DB2002D10D0DFF838086DB253
:1038B00010EB450030F8020C301ADFF828186DB212
:1038C00031F81510891B884200D26D1E6DB2082197
:1038D00095FBF1F000FB1150C0B2F2BD00B583B012
:1038E00000AA0421082001F066F80190DFF84C01DD
:1038F000BDF8041001809DF8000010F01F009DF835
:103900000110490311EB40509DF8021010EB4110DB
:103910009DF8031010EBD1000EBD00B583B000AAD6
:1039200001210B2001F047F801904448BDF8041034
:1039300001809DF8000010F00700012801D100204F
:1039400010E09DF8000010F00700032801D10120CD
:1039500008E09DF8000010F00700042801D10220C3
:1039600000E003200EBD00B583B000AA01216C2049
:1039700001F021F801903148BDF8041001809DF854
:1039800000000EBD00B583B000AA01210C2001F09B
:1039900012F801902948BDF8041001809DF800003C
:1039A000254909684843C00B0EBD00000024744936
:1039B0007C48010880565F2EE12F0C3980E4011706
:1039C000616A141CC060D21190400108EC450108E6
:1039D00031C80700EC4B0108BC490108E1D7CE14FF
:1039E000408FE10861D06F0A20450108B448010802
:1039F0001CB500AA02210E2000F0DDFF01900F4847
:103A0000BDF8041001809DF800009DF8011011EB35
:103A10000021080502D551F4704101E00905090DA6
:103A20000C0024B2DFF80804006800FB04F05FF427
:103A3000802290FBF2F016BD342400203C240020AC
:103A400080C3C90140420F0064350C00984701084B
:103A50002C4601082DE9F04F87B00400DFF89006EE
:103A6000844203D3DFF88C0684421FD3DFF8880634
:103A7000844203D3DFF88406844217D3DFF880063C
:103A8000844203D3DFF87C0684420FD3DFF8780644
:103A9000844203D3DFF87406844207D3DFF870262C
:103AA0004FF45371DFF8440601F0C4FADFF8400622
:103AB000844206D3DFF83C06844202D200208146CD
:103AC0001FE0DFF83406844206D3DFF83006844274
:103AD00002D20120814614E0DFF82406844206D396
:103AE000DFF82006844202D20220814609E0DFF896
:103AF0001806844205D3DFF81406844201D203205D
:103B00008146FFF775FF8046FFF73CFF0500FFF792
:103B10002AFF060018EB0400F6B206FB05008246F9
:103B200000F046FD471C5FFA89F9B9F1000F2AD071
:103B3000B9F1020F0FD01AD3B9F1030F2ED1DFF86C
:103B4000D405824503D2002001F0DDFF02E0012010
:103B500001F0D9FF22E0DFF8C005824503D2002042
:103B600001F0D1FF02E0012001F0CDFF16E0DFF807
:103B7000AC05824503D2002001F0C5FF02E0012020
:103B800001F0C1FF0AE0DFF86407824503D200209C
:103B900001F0B9FF02E0012001F0B5FF5046FFF748
:103BA00010FE8DF81000A1485FFA89F919F800009D
:103BB00000FB04F001F092FCCDE90201FFB25FF4DA
:103BC000802000FB07F001F07FFCCDE90001984860
:103BD000006801F083FC02000B00DDE9000101F048
:103BE0008BFCDDE9022301F0C7FF02F0ADF883464C
:103BF0005FEA5B5010F01F009DF810104901084368
:103C00008DF814005FEA5B308DF815005FEA5B10F9
:103C10008DF81600DFF8D0045FFA89F919F8000072
:103C200050EACB008DF8170005AA0421082000F007
:103C30002DFE0090DFF8A804BDF800100180DFF829
:103C4000B8060078012802D101F00AFB00E000204C
:103C500007B0BDE8F08F0000243301082DE9F047DC
:103C6000FFF73CFE8246FFF758FE070000F0A0FC7D
:103C7000461C504601F032FC804689466C4800687C
:103C800001F02CFC04000D00F6B26848FFB2385C6D
:103C900000FB06F05FF48021484301F015FC0200B0
:103CA0000B002000290001F027FC42464B4601F0A2
:103CB00063FF02F05FF802F047F8BDE8F08700000C
:103CC000A4FA3541000050C00100003F81C3C90182
:103CD00040787D012DE9FE4305000E00170000200D
:103CE0008DF808000F245FF00009642D03D3DFF87E
:103CF0000006854207D3DFF8FC254FF47F71DFF81B
:103D0000EC0301F097F900F09BFC81469DF8080058
:103D1000002813D164B2002C10D4DFF8E00500684D
:103D2000D4F1140119EB01010200CA40954203D3FA
:103D300001208DF80800E9E7641EE7E764B2002C73
:103D400002D5002464B200E064B23C700120D4F1DA
:103D50001701884000FB05F0DFF8A015096819F18C
:103D600005020B00D340B0FBF3F080460020C0B248
:103D7000032829DA5FFA88F8C0B210EB0801491E5F
:103D8000002919D05FFA88F8C0B210EB0801FF31A2
:103D9000DFF86825126819F1050394463CFA03FC24
:103DA0000CFB01F1D4F117020B00D340E91A00AA71
:103DB000C0B222F8101005E047F6FF7100AAC0B2A9
:103DC00022F81010401CD2E74FF6FF700021C9B254
:103DD000032928DA00AAC9B232F91120012A04DB2A
:103DE00000AAC9B232F9112004E000AAC9B232F91E
:103DF0001120524280B2824213DA00AAC9B232F9CB
:103E00001120012A04DB00A8C9B230F8110004E037
:103E100000A8C9B230F91100404211EB0802521E4D
:103E20003270491CD3E7BDE8F78300007C510108DC
:103E3000342400202DE9F04383B005000E00170064
:103E40005FF0010900F0FCFB002802D0022081464F
:103E500001E001208146DFF8A40400685FFA89F9D7
:103E6000B0FBF9F0DFF89814B0FBF1F040F24C41F0
:103E700048431A21B0FBF1F0854212D3DFF87C04ED
:103E800000685FFA89F9B0FBF9F0DFF87414B0FB51
:103E9000F1F0DFF8E41448431A21B0FBF1F0A84236
:103EA00007D2DFF8D82440F24641DFF8400201F0A3
:103EB000C1F8DFF8480400685FFA89F9B0FBF9F04F
:103EC0006421B0FBF1F000210C0064B25A2C0CDA32
:103ED0003F4964B231F81410414340F62822B1FB47
:103EE000F2F18D4201D2641CEFE764B2002C60D085
:103EF000A0460021C9B203292CDA4FFA88F8C9B2CA
:103F000011EB0802521E002A07D54FFA88F8C9B2F1
:103F100011EB0802521E5A2A14DA2D4A4FFA88F879
:103F2000C9B211EB080312EB430232F8022C4243F0
:103F300040F62823B2FBF3F2AA1A00ABC9B223F869
:103F4000112005E047F6FF7200ABC9B223F811203B
:103F5000491CCFE74FF6FF710022D2B2032A28DABC
:103F600000ABD2B233F91230012B04DB00ABD2B27A
:103F700033F9123004E000ABD2B233F912305B42B5
:103F800089B28B4213DA00ABD2B233F91230012B73
:103F900004DB00A9D2B231F8121004E000A9D2B2B9
:103FA00031F91210494212EB08035B1E1C00521C2F
:103FB000D3E764B2092194FBF1F1397064B20921AD
:103FC00094FBF1F201FB12413170BDE8F783000070
:103FD000DC330108805001082DE9F04F83B0040064
:103FE0008B4692460025DFF81403006800F0F6FEC9
:103FF0005FF0914100F07EFF0600DFF800030068EB
:10400000B4EB104F07D3DFF8F40200680F214843E8
:10401000800AA04207D2DFF8682340F27B41DFF834
:10402000CC0001F007F800200700FFB20A2F17DAD2
:104030000120B84001F048FA0022DFF8483301F0CF
:104040009BFD01F081FE00F0C9FE310000F0E6FEAC
:1040500001F03AFC01900198844201D37F1CE4E70F
:104060008AF8007000200700FFB2082F28DA0095B8
:10407000FFB2380001F032FA0022DFF8BC3301F061
:1040800067FB00225FF0804301F036FA80468946E4
:1040900001209AF90010884001F016FA42464B467A
:1040A00001F06AFD01F050FE00F098FE310000F0D2
:1040B000B5FE01F009FC0500AC4201D37F1CD3E73B
:1040C0008BF800700098201A291B884204D29BF8B4
:1040D0000000401E8BF80000BDE8F78FCC4F0108B0
:1040E0003C2400205C4E01088051010890400108EA
:1040F00080565F2EE12F0C3980E40117616A141C91
:10410000C060D211E1D7CE14408FE10861D06F0AB0
:10411000EC4E0108E2F49C09C4E93913068DA2199A
:104120002DE9FC4D04000D000027DFF880038442D8
:104130000CD3DFF87C03844208D200200600DFF8AD
:104140007403844222D2012006001FE0DFF86803D6
:10415000844206D3DFF86403844202D202200600C0
:1041600014E0DFF85C03844206D3DFF8580384428E
:1041700002D20320060009E0DFF84C03844205D395
:10418000DFF84803844201D2042006000120070022
:104190002800002101F01EFC38D2280001F00CFE9E
:1041A00002000B00CDE90023DFF82403F6B218214A
:1041B00001FB0600806801F0FFFD02000B000020FB
:1041C000DFF8101301F098F982468B46DFF8000300
:1041D000F6B2182101FB0600C068DFF8F412F6B24F
:1041E000182202FB0611896800F084FE01F0E4FD4C
:1041F00002000B005046594601F006FEDDE900239F
:1042000001F0C2FE02D2002007003CE0280000219D
:1042100001F0D2FE37D8DFF8B802F6B2182101FB60
:104220000600806801F0C8FD02000B000020DFF8E6
:10423000A81201F061F982468B46DFF89402F6B2CB
:10424000182101FB0600C068DFF88412F6B21822BC
:1042500002FB0611896800F04DFE01F0ADFD020081
:104260000B005046594601F0CFFD02000B0092466C
:104270009B46280001F0A0FD52465B4601F084FEFB
:1042800001D202200700DFF84802F6B2182101FB34
:104290000600FFB250F83700290000F0BFFDDFF83C
:1042A0003012F6B2182202FB0611FFB27A0011EBAF
:1042B0008201496801F092FE804640465FF07E51DF
:1042C00001F07AFE03D25FF07E50804608E040465F
:1042D000DFF8081201F07EFB02D8DFF80402804606
:1042E000404600F085FEC0B2BDE8F68D0B1A45339E
:1042F00031C80700E44F010896070020342400204D
:1043000040420F007CB504000D00E4B2082C07DB2E
:10431000DFF8DC214FF4CC61DFF88C0100F08AFE7D
:104320002800DFF8C41101F055FB05D82800DFF89C
:10433000BC1101F041FE07D3DFF8B82140F2616102
:10434000DFF8640100F076FEFFF788FC2900FFF734
:10435000E7FE8DF80000D4F11700060000AA012145
:104360003000C0B200F092FA0190DFF83401BDF8DD
:104370000410018073BD000064350C00844A0108FC
:10438000A84D010800001E401CB50400E4B2002C3A
:1043900010D0E4B2402C0DD0E4B2802C0AD0E4B2AC
:1043A000C02C07D0DFF83C2140F21171DFF8F80093
:1043B00000F040FE00AA0121182000F0FCFA9DF850
:1043C000000010F03F008DF800009DF80000204331
:1043D0008DF8000000AA0121182000F057FA019082
:1043E0002F48BDF80410018013BD1CB50400E4B2D1
:1043F000082C06DBDFF8F82040F241712A4800F073
:1044000019FE00AA0121182000F0D5FA9DF800003D
:1044100010F0F8008DF800009DF8000020438DF8A2
:10442000000000AA0121182000F030FA01901C4879
:10443000BDF80410018013BD000020401CB504002D
:1044400000208DF80000E4B2002C08D0E4B2012C6A
:1044500005D0144A40F2E971134800F0EBFD00AAC0
:1044600001211E2000F0A7FAE4B2012C06D19DF82C
:10447000000050F080008DF8000005E09DF800007D
:1044800010F07F008DF8000000AA01211E2000F02E
:10449000FDF901900248BDF80410018013BD000031
:1044A0003C240020304D01089040010880565F2ECA
:1044B000E12F0C3900E9A43580E40117616A141C6E
:1044C000C060D211E1D7CE14408FE10861D06F0AED
:1044D0008842010800002A40000044400100B44224
:1044E0000000B442FC4F01080000F8C10100404147
:1044F00014500108084F01081CB50400E4B2002C58
:1045000008D0E4B2012C05D05E4A40F679314B4820
:1045100000F090FD00AA0121272000F04CFAE4B23F
:10452000012C06D19DF8000050F010008DF800001D
:1045300005E09DF8000010F0EF008DF8000000AAE3
:104540000121272000F0A2F901904C48BDF8041089
:10455000018013BD1CB50400E4B2002C08D0E4B205
:10456000012C05D0474A40F6B631344800F062FDD0
:1045700000AA01219E2000F01EFAE4B2012C06D10F
:104580009DF8000050F080008DF8000005E09DF8D7
:10459000000010F07F008DF8000000AA01219E208D
:1045A00000F074F901903548BDF80410018013BD86
:1045B00000B583B000AA01219E2000F0FCF9019013
:1045C0002E48BDF8041001809DF80000C0B2C0095B
:1045D000C0B2002801D0012000E000200EBD000084
:1045E0001CB50400E4B2002C08D0E4B2012C05D0C4
:1045F000244A40F6EA31114800F01CFD00AA0121CE
:10460000B42000F0D8F9E4B2012C06D19DF80000E6
:1046100010F0F7008DF8000005E09DF8000050F064
:1046200008008DF8000000AA0121B42000F02EF946
:1046300001901248BDF80410018013BD904001089C
:1046400000B583B000AA0121B42000F0B4F90190B4
:104650000A48BDF8041001809DF80000C0F3C000B6
:10466000C0B2002801D0002000E001200EBD0448A7
:104670000068704702490860704700003C24002031
:1046800034240020304D010800B587B001F061FDF1
:10469000DFF81417C0B251F82000DFF810170860D7
:1046A00001F057FDDFF8081711EB4000DFF80417A1
:1046B000086001F04EFDDFF8001711EB8000DFF815
:1046C000FC16086001F045FD002853D101214FF48C
:1046D000805001F0AFFE0121102001F07DFE052287
:1046E0000F21DFF8DC0602F069F905220E21DFF860
:1046F000D00602F063F905220D21DFF8C40602F0AE
:104700005DF902208DF8040000208DF806000220DB
:104710008DF8070003208DF805004FF4005000903D
:1047200000A9DFF89C0601F0B3FF4FF48040009031
:1047300000A9DFF88C0601F0ABFF4FF400400090B9
:1047400000A9DFF87C0601F0A3FF4FF48050009031
:1047500001208DF8040000208DF8060001208DF85E
:10476000070003208DF8050000A9DFF8540601F0CA
:104770008FFF52E00121022001F02EFE05220E21C2
:10478000DFF8400602F01AF905220F21DFF834069F
:1047900002F014F905220D21DFF8280602F00EF9C7
:1047A00002208DF8040000208DF8060002208DF80C
:1047B000070003208DF805004FF40050009000A979
:1047C000DFF8000601F064FF4FF40040009000A9FC
:1047D000DFF8F00501F05CFF4FF48040009000A985
:1047E000DFF8E00501F054FF4FF480500090012005
:1047F0008DF8040000208DF8060001208DF80700D8
:1048000003208DF8050000A9DFF8B80501F040FF8E
:1048100001214FF4804001F03BFEDFF89005006875
:1048200002F0A0F94FF48270ADF80A000020ADF854
:1048300008000020ADF80C000020ADF80E000020AC
:10484000ADF810004FF40070ADF812000820ADF87C
:1048500014000020ADF816000720ADF8180002A9DA
:10486000DFF84805006802F0AAF90121DFF83C05ED
:10487000006802F04BFADFF83C0500680088DFF8BA
:104880003C1509680968088307B000BD2DE9F041AF
:1048900084B004000D0016000020ADF802000DF1F8
:1048A000020700208DF804008DF8054072B6DFF88D
:1048B000040500680088DFF8041509680968488362
:1048C0000020ADF80000BDF80000002805D1BDF8BB
:1048D0000000401CADF80000F5E75FF00008B8F1FB
:1048E000020F2BDA0221DFF8C404006802F05CFA40
:1048F0000028F7D001A818F8001089B2DFF8AC043E
:10490000006802F03EFA0121DFF8A004006802F01E
:104910004BFA0028F7D0DFF89404006802F01FFA81
:10492000BDF8021080B2D8F10102D2B2D20090409C
:104930004018ADF8020018F10108D0E75FF0000858
:10494000EDB2A8451FDA0221DFF86004006802F02A
:104950002BFA0028F7D018F8061089B2DFF84C04BB
:10496000006802F00EFA0121DFF84004006802F04E
:104970001BFA0028F7D0DFF83404006802F0EFF9E2
:1049800018F10108DCE70221DFF82004006802F0DA
:104990000BFA0028F7D0DFF81C0400680088DFF865
:1049A0001C1409680968088362B638880290029866
:1049B00004B0BDE8F0812DE9FE4304000D001600AF
:1049C0000020ADF802000DF102074FF0FF080120B2
:1049D0008DF804008DF8054072B6DFF8D803006842
:1049E0000088DFF8D8130968096848830020ADF80B
:1049F0000000BDF80000002805D1BDF80000401CF3
:104A0000ADF80000F5E75FF00009B9F1020F2BDA0D
:104A10000221DFF89803006802F0C6F90028F7D0F9
:104A200001A819F8001089B2DFF88003006802F0CD
:104A3000A8F90121DFF87403006802F0B5F9002835
:104A4000F7D0DFF86803006802F089F9BDF80210BA
:104A500080B2D9F10102D2B2D20090404018ADF834
:104A6000020019F10109D0E75FF00009EDB2A94594
:104A70001EDA0221CD48006802F096F90028F8D02D
:104A80005FFA88F8414689B2C848006802F079F9AF
:104A90000121C648006802F087F90028F8D0C34811
:104AA000006802F05CF93070761C19F10109DDE74D
:104AB0000221BE48006802F077F90028F8D0BD480E
:104AC00000680088BD4909680968088362B63888AB
:104AD00002900298BDE8FE8370B584B00400002007
:104AE000ADF802000DF1020580208DF804008DF86C
:104AF000054072B6AF4800680088B0490968096887
:104B000048830020ADF80000BDF80000002805D162
:104B1000BDF80000401CADF80000F5E70026022EAD
:104B200025DA0221A148006802F03EF90028F8D0F9
:104B300001A8315C89B29D48006802F022F9012188
:104B40009A48006802F030F90028F8D097480068C9
:104B500002F005F9BDF8021080B2D6F10102D2B21E
:104B6000D20090404018ADF80200761CD7E7022131
:104B70008E48006802F018F90028F8D08D480068C7
:104B800000888E4909680968088362B628880290FF
:104B9000029804B070BDFEB504000D000020ADF811
:104BA00002000DF1020600208DF80400FF208DF8B0
:104BB000050072B67F480068008880490968096866
:104BC00048830020ADF80000BDF80000002805D1A2
:104BD000BDF80000401CADF80000F5E70027022FEB
:104BE00025DA02217148006802F0DEF80028F8D0CA
:104BF00001A8395C89B26D48006802F0C2F8012151
:104C00006A48006802F0D0F80028F8D067480068C9
:104C100002F0A5F8BDF8021080B2D7F10102D2B2BD
:104C2000D20090404018ADF802007F1CD7E7002763
:104C3000E4B2A74219DA02215C48006802F0B4F835
:104C40000028F8D0795D89B25848006802F099F8D8
:104C500001215648006802F0A7F80028F8D0534810
:104C6000006802F07CF87F1CE2E702214F480068F0
:104C700002F09AF80028F8D04E48006800884F49A2
:104C800009680968088362B6308802900298FEBD00
:104C90002DE9F04184B004000D000020ADF80200C1
:104CA0000DF10206FF2701208DF80400FF208DF88A
:104CB000050072B63F4800680088404909680968E5
:104CC00048830020ADF80000BDF80000002805D1A1
:104CD000BDF80000401CADF80000F5E75FF00008EB
:104CE000B8F1020F27DA02213048006802F05CF8C0
:104CF0000028F8D001A818F8001089B22B480068E5
:104D000002F03FF801212948006802F04DF8002820
:104D1000F8D02648006802F022F8BDF8021080B2F0
:104D2000D8F10102D2B2D20090404018ADF8020092
:104D300018F10108D4E75FF00008E4B2A0451DDADD
:104D400002211A48006802F02FF80028F8D0FFB2BC
:104D5000390089B21548006802F013F801211348A0
:104D6000006802F021F80028F8D01048006801F02F
:104D7000F6FF28706D1C18F10108DEE702210B48D0
:104D8000006802F011F80028F8D00A48006800888E
:104D90000A4909680968088362B630880290029857
:104DA00004B0BDE8F08100001407002008240020B2
:104DB0004051010810240020200700200C2400206E
:104DC0000010024000040240002840F10980F4462F
:104DD000404200F005F850F000406047002800BF56
:104DE0000AD0B0FA80F18840D1F19D01C9050206D0
:104DF00072F1004241EB1020704750F8041B61B182
:104E000050F8042BD30744BFA9F101039A180023DB
:104E1000091F42F8043BFAD1EFE77047FF2212EA7C
:104E2000D05C1DBF12EAD153944593422BE09C44C1
:104E3000D30780EA01021A4043EA002043EA012135
:104E4000A1FB0030410038BF40007CF17F010BDB4B
:104E5000FE294ADA5B0842EAC15153EA006373F162
:104E6000004C51EB10207047D1F1080CDCF120010F
:104E70002FDB5B0810FA01F10B4373F1004120FABC
:104E80000CF05041704794451CBF02EAD153934245
:104E900080EA010202F000421DD0400019D0490012
:104EA00017D05BB9634514D00902B1FA81F3994078
:104EB000BCEB030CC00140F00040C1E70002B0FAB7
:104EC00080FC10FA0CF0B3EB0C0CC90141F000416E
:104ED000B6E71000704740000AD0490008D010F132
:104EE000807F94BF11F1807F02E042F0FF40704765
:104EF000D043704710B5FF2313EAD0541DBF13EA07
:104F0000D1529C429A4239E0A41ADA0780EA01039E
:104F1000134042EA012142EA0020421A3CBF641ECB
:104F200001EB4202090AB2FBF1FE01FB1E22120252
:104F3000B2FBF1F001FB10226EF30F201202B2FB64
:104F4000F1FE4EEA00207F3406DDFE2C24DA53EA1F
:104F5000500050EBC45010BDD4F1020401FB1E22DE
:104F600040F08071192C1DDC21FA04F0C4F12004FA
:104F7000A140114371F10042584110BD9C421ABF3B
:104F800003EAD1529A420FE080EA010E0EF000438C
:104F9000400004D0490016D143F0FF4010BD490045
:104FA00008BFD343180010BD9C4205D1D21AF7D0D8
:104FB00001F00041484010BD4A0212BF0846484077
:104FC00000F0004010BD4AB90902B1FA81F29140E7
:104FD00044B1A418C00140F000409EE7C90141F06F
:104FE000004152420002B0FA80F4A040141B94E742
:104FF0004100090E7F3915D4D1F11F0114D44000AE
:1050000007D2C00140F00040C84048BF6FF00040E8
:105010007047C00140F00040C8404CBF4FF0004016
:10502000404270470020704700424FF0004058BF98
:10503000C043704770B504000D0016000A4801F027
:10504000EBFE2A002100094801F0E6FE3100084885
:1050500001F0E2FEFEE780B500AA0121C020FFF7C3
:10506000AAFC0449086001BDF0490108E8500108A4
:10507000CC4D01083C2400202DE9F04F87B00400FE
:10508000DFF8EC03844203D3DFF8E80384421ED345
:10509000DFF8E403844203D3DFF8E003844216D34D
:1050A000DFF8DC03844203D3DFF8D80384420ED355
:1050B000DFF8D403844203D3DFF8D003844206D35D
:1050C000DFF8CC235021DFF8CC03FFF7B3FFDFF884
:1050D000A003844206D3DFF89C03844202D200205E
:1050E00081461FE0DFF89003844206D3DFF88C038B
:1050F000844202D20120814614E0DFF88403844216
:1051000006D3DFF88003844202D20220814609E000
:10511000DFF87403844205D3DFF87003844201D2C0
:1051200003208146FEF764FC8046FEF72BFC050059
:10513000FEF719FC060018EB0400F6B206FB0500AA
:105140008346FFF735FA471C5FFA89F9B9F1000F7A
:1051500027D0B9F1020F0ED018D3B9F1030F2AD11D
:10516000CD48834503D2002000F0CDFC02E00120B1
:1051700000F0C9FC1FE0C948834503D2002000F0BD
:10518000C2FC02E0012000F0BEFC14E0C4488345EC
:1051900003D2002000F0B7FC02E0012000F0B3FCD5
:1051A00009E0C048834503D2002000F0ACFC02E0D7
:1051B000012000F0A8FC5846FEF703FB8DF8100014
:1051C000FFF755FA8246200000F088F9CDE9020188
:1051D000FFB2B5485FFA89F919F8000000FB07F043
:1051E0005FF48021484300F06FF9CDE9000150469B
:1051F00000F074F902000B00DDE9000100F07CF919
:10520000DDE9022300F0B8FC00F09EFD0690069850
:10521000400D10F01F009DF81010490108438DF853
:1052200014000698400B8DF81500069840098DF87B
:10523000160006989D495FFA89F919F8011051EA9C
:10524000C0008DF8170005AA04210820FFF71EFBF7
:1052500000909748BDF80010018007B0BDE8F08FBE
:105260002DE9F84300275FF00008FFF700FA8146B8
:10527000904881450ED3FFF79BF900280AD1012001
:105280000700FEF7EBFC06000120FFF763F9300092
:10529000FFF7F2FEFEF7E2FC060019208DF8000091
:1052A00000AA0121A120FFF7F1FA012000F0A4FBE0
:1052B000FFF7D1FE7E480078C0B24008C0B2402857
:1052C00016D101208046622001F0B8FDFFF7C3FE31
:1052D00077480078C0B24008C0B2132801D101203D
:1052E0007CE073480078C0B24008C0B20328EDD11A
:1052F000662001F0A3FDFFF7AEFE6D480078C0B256
:105300004008C0B2132801D1012067E06848007846
:10531000C0B24008C0B20F28EDD100F09FFB0500DD
:10532000622001F08BFDFFF796FE61480078C0B265
:105330004008C0B20328F6D1652001F07FFDFFF7D9
:105340008AFE5B480078C0B24008C0B2132801D181
:10535000012043E056480078C0B24008C0B20F2890
:10536000EDD100F07BFB0400622001F067FDFFF748
:1053700072FE4F480078C0B24008C0B2132801D175
:1053800001202BE04A480078C0B24008C0B2032890
:10539000EDD15FFA88F8B8F1010F02D1632001F076
:1053A0004DFD002000F028FBFFB2002F05D00020AB
:1053B000FFF7D0F83000FFF75FFE11208DF80000F6
:1053C00000AA0121A120FFF761FA2800C0B200F075
:1053D00056FB2000C0B200F074FB0020BDE8F28351
:1053E00010B582B034480078002826D0FFF73FF986
:1053F0000400324800683249884208D32F480068C8
:105400003049884203D2C020FEF7BEFF02E00020F0
:10541000FEF7BAFF11208DF8000000AA0121A92093
:10542000FFF734FA20208DF8000000AA0121A52002
:10543000FFF72CFA00202049087013BD80B51E48E4
:10544000007801280DD098208DF8000000AA0121D5
:10545000A520FFF71BFA0020FEF796FF0120164952
:10546000087001BD0221144A117014490860704788
:1054700080565F2EE12F0C3980E40117616A141CFD
:10548000C060D211E1D7CE14408FE10861D06F0A1D
:10549000B44E0108843D0108E2F49C09C4E93913C3
:1054A000068DA2190B1A4533785101087451010871
:1054B0003C24002081C3C90195070020302400202E
:1054C00080D1F00881A1031C010040F10980F4465D
:1054D000404200F005F851F000416047010000BF74
:1054E00009D0B0FA80F18840C91CC1F58461090572
:1054F00001EBD021400570472DE9F04140F2FF75E6
:1055000081EA030C0CF0004C15EA11541DBF15EA9A
:105510001357AC42AF42E9E0BC41C1F31301C3F3FE
:105520001303801A994143F4801304D2641E40008F
:10553000494180185941C90241EA5051B1FBF3F683
:1055400003FB1611A2FB0675D7EBC020A94102D2BE
:10555000761E80185941C90241EA5051B1FBF3FE51
:1055600003FB1E11A2FB0E75D7EBC020A94103D28D
:10557000AEF1010E80185941890241EA9051760539
:1055800046EA8E2EB1FBF3F603FB1611A2FB06755D
:10559000D7EB8020A94102D2761E80185941C9025A
:1055A00041EA50514EEA060EB1FBF3F603FB161129
:1055B000A2FB0675D7EBC020A94102D2761E801847
:1055C0005941C90241EA5051B1FBF3F703FB1711EE
:1055D000A2FB0735D3EBC020A94167F100070CBF40
:1055E000004247F0010766F3D5274FEA1E31B8089D
:1055F00014F5806414DDBD0775F1004250EB0E50C8
:1056000051EB045111F5801F5CBF41EA0C01BDE86C
:10561000F0814CF07F6141F0E0410020BDE8F08175
:10562000BD076D0840EA0E5041F48011D4F1010429
:10563000B4F120060ADAC4F120060200E04001FAC3
:1056400006F3E1401843B24015430EE0342C14DC5D
:10565000C6F1200445EA40056D0820FA06F215431C
:1056600021FA06F0A1400D43002175F1004250F1EE
:10567000000051EB0C01BDE8F08100205FEA0C0155
:10568000BDE8F081CFB992185B41B3FA83F704BF4C
:10569000B2FA82F6BF190B3FB7F120062FBF02FA0C
:1056A00006F3BB40C7F1200622FA06F638BF3343A3
:1056B000BA401CB1E419641E2FE77F4231F000416B
:1056C000B1FA81F404BFB0FA80F6A4190B3CB4F12E
:1056D00020062FBF00FA06F1A140C4F1200620FAEF
:1056E00006F638BF3143A0403C1B16E7AC421ABF58
:1056F00005EA1357AF4214E050EA41061CBF52EAD4
:105700004306BFE750EA4107304661461CBF41EA05
:105710000551BDE8F08152EA430C08BFC143BDE822
:10572000F08100204FF4001616EB410F98BF16EBE6
:10573000430F08BF16EB410F24BFC14305E016EB32
:10574000430F0CBF61464CEA0551BDE8F08105FFEF
:10575000F0B44FF0004591EA030C44BF6B4000F0F9
:105760005DBB00BF841A71EB030603D2001BB1417D
:10577000121973414FF4001C1CEB410F34BF7CEB3A
:10578000430443E00C0DA4EB1356352E50DC45EAE0
:10579000C323DB0A45EAC121C912B6F120050DDD9C
:1057A00063FA05F6EB4086EA0305124218BF45F09E
:1057B0000105C01851F100010CD213E062FA06F5A0
:1057C000F2405540F3415A40B340F3405A408018EC
:1057D000594107D349085FEA30005FEA350528BF21
:1057E00045F0010501F58011420875F1004250F1C4
:1057F000000041EB0451F0BC4FF4001C1CEB410FC6
:1058000038BF70470020090D090570471CEB410F98
:1058100010D252EA43060BD0BCEB410F05D80C0D59
:10582000AB43661E342EB5DD02E0AB438018594110
:10583000F0BC7047F0BC70474FEAF17CBCF1E04C23
:105840002CBFBCF5001F11E05FEA4C0C34BFBCF16B
:105850007F5F2EE05FEA9C0C4FEA0C1C4FEA3C0C89
:10586000C10071F100414CEB50707047C90241EA30
:105870005051C00218BF41F0010141F000414FEA10
:105880006C50C0F10900212810D240EACC7CCCF148
:10589000200C11FA0CF070F10040CCF1200C21FA30
:1058A0000CF00CF0004C40EB0C0070474FEACC7051
:1058B0007047490011F5001F04D84FEACC10FF30A3
:1058C000C0057047C817704740000DD2010E7F39E0
:1058D0000AD4D1F11F0104D4C00140F00040C840F7
:1058E00070477FF0000070470020704790EA010F7A
:1058F00044BF81F0004100F079BB00BF431A4FF074
:1059000000423EBF5340C01AC91800BFD3095FEA26
:10591000D05C13EB400F34BFB3EB410F40E07CEBA6
:10592000D1530CD342EA012122D8D1EB402009D334
:10593000400A28BF5FEA500140EBCC507047401A44
:1059400015D04002B0FA80F2521C9040400A4FEA53
:105950003C23B3EB026384BF00EB730007E040F429
:1059600000001A16DB07C2F10102D040184370474D
:10597000182BFCDC31FA03F202FA03F3591A38BF90
:1059800042F00102D2EB40203CBF4000ACF1010CE0
:105990005FEACC5CC20572F100414CEB50207047CD
:1059A00013EB400F0FD24B0009D0ACEBD153022BBD
:1059B00003DB4902172BDDDD70479143401A43009A
:1059C000D5D10020704713EB410FD0D36FF000000A
:1059D000704701804FF0807C1CEB400F94BF1CEBA4
:1059E000410F05E040EA010C5FEA4C0C01D2814214
:1059F000704718BF884270471CB50400E4B2002C01
:105A000007D0E4B2012C04D0574A8F215748FFF742
:105A100011FB00AA01215020FEF7CDFF0190544850
:105A2000BDF804100180E4B2012C06D19DF80000FD
:105A300050F002008DF8000005E09DF8000010F025
:105A4000FD008DF8000000AA01215020FEF71EFF86
:105A500001904748BDF80410018013BD00B583B024
:105A600000AA0121E520FEF7A6FF01904048BDF8FD
:105A7000041001809DF8000010F07F000EBD1CB5E1
:105A8000040000AA01216E20FEF795FF019038481E
:105A9000BDF8041001809DF8000010F080008DF822
:105AA00000009DF8000020438DF8000000AA0121AD
:105AB0006E20FEF7EBFE01902D48BDF8041001802A
:105AC00013BD1CB5040000AA01216F20FEF773FF6F
:105AD00001902748BDF8041001809DF8000010F0E7
:105AE00080008DF800009DF8000020438DF8000034
:105AF00000AA01216F20FEF7C9FE01901C48BDF8E5
:105B00000410018013BD10B582B00400E4B2002C73
:105B100008D0E4B2012C05D0164A4FF4CF711348D7
:105B2000FFF788FA00AA01219E20FEF744FF9DF8A6
:105B3000000010F0F9008DF80000E4B2012C06D14D
:105B40009DF8000050F002008DF8000005E09DF87F
:105B5000000050F004008DF8000000AA01219E20F2
:105B6000FEF794FE13BD0000684C0108743B010869
:105B70003C24002058500108B0B581EA030C0CF019
:105B8000004C40F2FF7515EA11541DBF15EA13577A
:105B9000AC42AF4239E0E41923EA455343F48013A1
:105BA000C90241F0004141EA505EC7021100A7FB63
:105BB000020200284FF00000EEFB01204FF0000130
:105BC000E3FB072118BF42F00102401800214941C0
:105BD000E3FB0E01A4F580640F0302D252004041A2
:105BE000494154F101046CDD470872F1004250F163
:105BF000000051EB0451A1F580115CBF41EA0C019A
:105C0000B0BD4CEA05510020B0BD05EA1357AC42C7
:105C100014BFAF4241E050EA410E1CBF52EA430EAE
:105C200002E061460020B0BD24423C441BD15FEA43
:105C3000070EF6D0090302BF01460020AEF1140E94
:105C4000B1FA81F7AEEB070401FA07FE0C37C7F192
:105C5000200100FA07F7C8404EEA000E23EA455338
:105C600043F48013A2E733F00043B3FA83F704BF91
:105C7000B2FA82FE77440B3FE41BB7F1200E2FBF30
:105C800002FA0EF3BB40C7F1200E22FA0EFE38BF17
:105C900043EA0E03BA40641C82E750EA410E14BF87
:105CA00052EA430E6FF000014FF4001717EB430F59
:105CB0008ABF194617EB410FB5E74CEA05510020A2
:105CC000B0BDD4F10104B4F120070FDAC4F120070C
:105CD000520828BF42F0010210FA07F501FA07F74F
:105CE000E1BF2A43E0403843E1400FE0352C98DC27
:105CF000C7F1200452EA400220FA07F218BF42F02E
:105D0000010231FA07F0A1400A43002172F100427A
:105D100050F1000051EB0C01B0BD0180F446400D84
:105D200040EAC120490006D200F014F8004248BF02
:105D30006FF00040604700F00DF84FF000418842DE
:105D40008CBF084640426047400D40EAC1204900F0
:105D500080F00D8040F00040490DA1F58061491CA4
:105D600005D4D1F11F0154BFC840C01770474FF090
:105D70000000704783B5012100A801F0ABF8401E78
:105D8000012811D9002100A801F0A4F860B1019800
:105D9000DDE90023002847BF002005490020054910
:105DA000FFF7D6FCCDE90001DDE9000103B000BD3D
:105DB0000000F0BF0000F03F5FF0FF0C1CEAD05184
:105DC00014BF614506E0C110400721F0E04101F138
:105DD0006051704779B900F0004100020AD0B0FA72
:105DE00080FC00FA0CF001F16051A1EB0C5101EBC9
:105DF000D0214005704741020CBF40F4E0016FF034
:105E00000001002070475A58F0B44FF0004591EA65
:105E1000030F44BF6B40FFF7A5BC00BF841A71EBB2
:105E2000030604D26E40001BB141121973414FF4B6
:105E3000001C1CEB410F34BF7CEB430684E00C0DCF
:105E4000A4EB1356362E7DDC012E43DC45EAC3233A
:105E500043EA525312BFD20292025B08240545EA7C
:105E6000C12141EA5051D2EBC020994125D407D13C
:105E7000B0FA80F610FA06F164D00020203608E06F
:105E8000B1FA81F6B140C6F1200220FA02F21143C4
:105E9000B0404FEAF474B4EB465434F001064FEAD4
:105EA00074040AD8D6F50016760D04F00044F040CC
:105EB00061FA06F25040F1404840C00A40EA4150C1
:105EC00021F0004128BF5FEA500550F1000044EB8B
:105ED000D12137E045EAC323DB0A45EAC121C90ADB
:105EE000B6F120050EDD42EA0242120CC5F1200691
:105EF00003FA06F6EB4042EA06056D42984161F16D
:105F000000010DE062FA06F5F240554063FA06FC26
:105F100082EA0C02F3405A406D42904161EB03016A
:105F200011F4801F05D1641E620502D06D0040414E
:105F3000494121F48011430875F1004350F10000FC
:105F400041EB0451F0BC70471CEB410F15D223F01C
:105F5000004352EA43060BD04FEA4C0CBCEB410F16
:105F600004D80C0D661E342EB7DDEBE7801A99417C
:105F700050EA410608BF0021E4E708BF1CEB430FCD
:105F800028BF6FF00001DDE74FF4001C1CEB410F50
:105F900094BF1CEB430F09E041EA030C50EA4C0CA0
:105FA00052EA0C0C03D2994208BF9042704714BFCA
:105FB0008B428242704700004FF0807C1CEB400F08
:105FC00094BF1CEB410F05E040EA010C5FEA4C0C6A
:105FD00001D28842704718BF8142704790EA010F92
:105FE00044BF81F00041FFF789BC00BF421A3CBFAB
:105FF000801A89184FF0004CC0F3C752FF2A24D0F2
:10600000C1F3C75313B3D21AD2F1190327DD4CEAF7
:1060100001214CFA03F321EA0303D140C20D4CEAFB
:106020000020401834BF20EA0C004CEA5000D20592
:1060300053EA006373EB0C0C52EB1020420012F198
:10604000807F38BF7047C00DC0057047490212BF3E
:106050009A4200EB5120F8E7D2F11703D9D57047E7
:10606000E0B50121102000F0B7F901208DF80800FB
:1060700000208DF80B0003208DF8090000208DF81A
:106080000A000220019001A9334800F001FB3348C7
:10609000008850F002003149088000208DF800008F
:1060A0009DF80000002805D19DF80000401C8DF8E7
:1060B0000000F5E72A480088800703D50020294919
:1060C000087035E00121082000F086F904200190D5
:1060D00001A9254800F0DCFA2448008850F00400AB
:1060E0002249088000208DF800009DF8000000285B
:1060F00005D19DF80000401C8DF80000F5E71C4814
:106100000088400703D501201649087002E00220EC
:106110001449087000208DF8080001A9124800F009
:10612000B7FA124800884FF6FB7108400F49088003
:106130000220019000208DF8080001A9064800F017
:10614000A7FA064800884FF6FD7108400349088009
:1061500007BD044800787047001002401410024048
:106160001010024094070020000C0240140C024062
:10617000100C024010B50400E4B2002C08D0E4B2C8
:10618000012C05D04FF4D271DFF8AC0401F067F8B0
:10619000E4B2DFF8AC04046010BD10B50400E4B252
:1061A000002C0BD0E4B2012C08D0E4B2052C05D0B1
:1061B00040F2BD11DFF8800401F051F80020DFF853
:1061C00084140870DFF87C04047010BDF0B4002162
:1061D00000220023002400250026DFF858743F68C1
:1061E00017F00C0739000F00002F06D0042F15D030
:1061F000082F17D00C2F19D042E0DFF840743F6809
:10620000C7F342373E00012716F1010C17FA0CF7CD
:106210004FF4004C0CFB07F7076041E0DFF82874EF
:1062200007603DE0DFF82474076039E0DFF80474AC
:106230003F6817F470173A00DFF8F8733F6817F4F7
:1062400040073B00DFF80874920CD25D9B0D5B1C8D
:10625000DFF8E0733F6817F480373C00002C07D16B
:10626000DFF8E47307FB02F7B7FBF3F7076006E01C
:10627000DFF8D87307FB02F7B7FBF3F707600FE00F
:10628000DFF8B8733F68C7F342373E00012716F1C5
:10629000010C17FA0CF74FF4004C0CFB07F70760E2
:1062A000DFF890733F6817F0F00739000909DFF84D
:1062B000A473CF5D3D000768BC463CFA05FCC0F8FE
:1062C00004C0DFF870733F6817F4E0673900090A0B
:1062D000DFF88073CF5D3D004768BC463CFA05FCA3
:1062E000C0F808C0DFF84C733F6817F460573900F6
:1062F000C90ADFF86073CF5D3D004768BC463CFAD1
:1063000005FCC0F80CC0F0BC704738B5040000258F
:10631000B4F5803F17D0B4F5003F14D0B4F5403F3A
:1063200011D0DFF8340384420DD0DFF8300384420B
:1063300009D0DFF82C03844205D040F2E131DFF8C8
:10634000F80200F08CFF14F44030B0F5403F0BD160
:10635000DFF8DC020068050035F0C04514F0C040ED
:106360000543DFF8CC020560DFF8F802006830F47E
:106370004030DFF8F0120860DFF8E802006814F43B
:1063800040310843DFF8DC12086031BD10B504006D
:10639000E4B2002C08D0E4B2012C05D040F2034155
:1063A000DFF8940200F05BFFE4B2DFF8BC020460A7
:1063B00010BD10B50400E4B2002C08D0E4B2012CEA
:1063C00005D040F21341DFF8700200F048FFE4B25C
:1063D000DFF89802046010BD38B504000D00DFF846
:1063E0009002044201D1002C05D140F22F41DFF888
:1063F000480200F034FFEDB2002D08D0EDB2012DBF
:1064000005D04FF48661DFF8300200F028FFEDB2CE
:10641000002D07D0DFF85C0200682043DFF854123B
:10642000086006E0DFF84C020068A043DFF8441281
:10643000086031BD38B504000D00DFF83C020442AD
:1064400001D1002C05D140F25141DFF8EC0100F000
:1064500006FFEDB2002D08D0EDB2012D05D040F2BF
:106460005241DFF8D40100F0FAFEEDB2002D07D062
:10647000DFF8080200682043DFF80012086006E039
:10648000DFF8F8010068A043DFF8F011086031BDC3
:1064900038B504000D00DFF8E801044201D1002CFA
:1064A00005D140F27C41DFF8900100F0D8FEEDB25A
:1064B000002D08D0EDB2012D05D040F27D41DFF86E
:1064C000780100F0CCFEEDB2002D07D0DFF8B4016A
:1064D00000682043DFF8AC11086006E0DFF8A40193
:1064E0000068A043DFF89C11086031BD38B5040096
:1064F0000D00DFF88401044201D1002C04D140F2E8
:10650000BC414D4800F0ABFEEDB2002D07D0EDB21E
:10651000012D04D040F2BD41474800F0A0FEEDB28D
:10652000002D07D0DFF8600100682043DFF8581124
:10653000086006E0DFF850010068A043DFF848116A
:10654000086031BD38B504000D004D48044201D14A
:10655000002C04D140F2E441374800F080FEEDB257
:10656000002D07D0EDB2012D04D040F2E5413248B4
:1065700000F075FEEDB2002D05D0444800682043C0
:106580004249086004E041480068A0433F49086070
:1065900031BDF8B50400002500260027E4B2212C07
:1065A00028D0E4B2312C25D0E4B2292C22D0E4B298
:1065B000392C1FD0E4B2492C1CD0E4B2412C19D0A4
:1065C000E4B25A2C16D0E4B25B2C13D0E4B25C2CAB
:1065D00010D0E4B25D2C0DD0E4B25E2C0AD0E4B24F
:1065E0005F2C07D0E4B25E2C04D040F2B6511248C2
:1065F00000F035FEE4B26009C0B20500012D03D100
:106600000B480068060002E0164800680600E4B285
:1066100014F01F0005003000E840C00702D501203B
:10662000070001E0002007003800C0B2F2BD000002
:106630000038024008380240083801080438024097
:1066400000004742353802400024F40000127A006E
:106650002C070020EC06002000000320000003406F
:106660000000036034380240D8064742DC06474247
:10667000C06FFFFE1C380240E2ADFFFF2038024031
:10668000C8B5194F24380240143802401838024067
:106690002DE9F04104000D00002600275FF00008FE
:1066A000DFF8A404844218D0DFF8A004844214D098
:1066B000DFF89C04844210D0DFF8980484420CD0A8
:1066C000DFF89404844208D0DFF89004844204D0B8
:1066D000C121DFF88C0400F0C2FD2868002804D135
:1066E000C221DFF87C0400F0BAFD287900280DD023
:1066F000287901280AD02879022807D02879032888
:1067000004D0C321DFF8580400F0A9FDE87900287F
:106710000AD0E879012807D0E879022804D0C421FA
:10672000DFF83C0400F09BFD00200600102E65D22F
:106730000120B0400700286838408046B8455BD14A
:10674000206803213200D2B2520091408843206079
:10675000206829793200D2B252009140084320606B
:106760002879012802D02879022835D168790028B3
:106770000DD0687901280AD06879022807D0687995
:10678000032804D0D821DFF8D80300F068FDA06802
:1067900003213200D2B2520091408843A060A06829
:1067A00069793200D2B2520091400843A060A879C2
:1067B000002807D0A879012804D0DF21DFF8A00342
:1067C00000F04DFDA0880121B1408843A080A08841
:1067D000A979B1400843A080E06803213200D2B219
:1067E000520091408843E060E068E9793200D2B21B
:1067F000520091400843E060761C97E7BDE8F081C5
:1068000070B504000D000026DFF83C03844219D067
:10681000DFF83803844215D0DFF83403844211D006
:10682000DFF8300384420DD0DFF82C03844209D016
:10683000DFF82803844205D040F23911DFF8200345
:1068400000F00DFDADB2012D3AD0ADB2022D37D022
:10685000ADB2042D34D0ADB2082D31D0ADB2102D73
:106860002ED0ADB2202D2BD0ADB2402D28D0ADB260
:10687000802D25D0ADB2B5F5807F21D0ADB2B5F574
:10688000007F1DD0ADB2B5F5806F19D0ADB2B5F5B2
:10689000006F15D0ADB2B5F5805F11D0ADB2B5F5D2
:1068A000005F0DD0ADB2B5F5804F09D0ADB2B5F5F2
:1068B000004F05D04FF49D71DFF8A40200F0CFFC2B
:1068C000208AADB2284202D00120060001E000205B
:1068D00006003000C0B270BD10B50400DFF86802D9
:1068E000844219D0DFF86402844215D0DFF86002D8
:1068F000844211D0DFF85C0284420DD0DFF85802E8
:10690000844209D0DFF85402844205D040F24F118E
:10691000DFF84C0200F0A3FC208A10BD38B504005B
:106920000D00DFF82402844219D0DFF820028442EF
:1069300015D0DFF81C02844211D0DFF8180284421F
:106940000DD0DFF81402844209D0DFF8100284422F
:1069500005D04FF4C471DFF8080200F080FCADB23E
:10696000002D05D140F28911DFF8F40100F077FC29
:10697000258331BD38B504000D007348844213D01F
:106980007248844210D0724884420DD071488442CB
:106990000AD07148844207D07048844204D040F243
:1069A0009B116F4800F05BFCADB2002D04D14FF499
:1069B000CE716B4800F053FC658331BD2DE9F04189
:1069C00004000D00160000275FF000085E488442B6
:1069D00013D05E48844210D05D4884420DD05D489B
:1069E00084420AD05C48844207D05C48844204D088
:1069F00040F209215A4800F032FCADB2002D31D0EE
:106A0000ADB2012D2ED0ADB2022D2BD0ADB2032DE3
:106A100028D0ADB2042D25D0ADB2052D22D0ADB217
:106A2000062D1FD0ADB2072D1CD0ADB2082D19D048
:106A3000ADB2092D16D0ADB20A2D13D0ADB20B2DCB
:106A400010D0ADB20C2D0DD0ADB20D2D0AD0ADB21F
:106A50000E2D07D0ADB20F2D04D040F20A214048D0
:106A600000F0FDFBF6B2002E46D0F6B2002E43D069
:106A7000F6B2002E40D0F6B2002E3DD0F6B2002E77
:106A80003AD0F6B2002E37D0F6B2012E34D0F6B29C
:106A9000022E31D0F6B2022E2ED0F6B2032E2BD01B
:106AA000F6B2032E28D0F6B2032E25D0F6B2042E6D
:106AB00022D0F6B2042E1FD0F6B2052E1CD0F6B2AC
:106AC000052E19D0F6B2072E16D0F6B2072E13D027
:106AD000F6B2072E10D0F6B20A2E0DD0F6B20B2E5B
:106AE0000AD0F6B20E2E07D0F6B20F2E04D040F226
:106AF0000B211B4800F0B3FBF6B215F00700C0B243
:106B0000800016FA00F00700ADB2E81014EB800028
:106B1000ADB2E91014EB8101096A0F2215F00703E9
:106B2000DBB29B009A4091430162ADB2E81014EBD6
:106B30008000006A38438046ADB2E81014EB800054
:106B4000C0F82080BDE8F08100000240000402404F
:106B500000080240000C02400010024000140240F5
:106B60004C36010810B50400DFF8A002844208D0BA
:106B7000DFF89C02844204D08D21DFF8980200F0F7
:106B80006EFBDFF8880284420AD101214FF4805065
:106B9000FFF7ACFC00214FF48050FFF7A7FC0DE09D
:106BA000DFF86C02844209D101214FF48040FFF7E5
:106BB000C9FC00214FF48040FFF7C4FC10BD70B544
:106BC00004000D000026DFF84402844208D0DFF8FC
:106BD0004002844204D0AF21DFF8380200F03FFBCE
:106BE0002888002810D02888B0F5806F0CD028881D
:106BF000B0F5004F08D02888B0F5404F04D0B2213E
:106C0000DFF8100200F02BFB6888B0F5827F07D018
:106C10006888002804D0B321DFF8F80100F01FFBDA
:106C2000A888B0F5006F07D0A888002804D0B42148
:106C3000DFF8E00100F013FBE888002807D0E888BF
:106C4000022804D0B521DFF8CC0100F008FB288928
:106C5000002807D02889012804D0B621DFF8B40124
:106C600000F0FDFA6889B0F5007F07D06889002838
:106C700004D0B721DFF89C0100F0F1FAA8890028C0
:106C800019D0A889082816D0A889102813D0A88957
:106C9000182810D0A88920280DD0A88928280AD023
:106CA000A889302807D0A889382804D0B821DFF86F
:106CB000640100F0D4FAE889002807D0E889802828
:106CC00004D0B921DFF84C0100F0C9FA288A002865
:106CD00004D1BA21DFF83C0100F0C1FA2088060097
:106CE00016F44156288869880843A9880843E9882A
:106CF00008432989084369890843A9890843E98920
:106D0000084306432680288A208270BD38B50400D7
:106D10000D00DFF8F800844208D0DFF8F400844268
:106D200004D0FB21DFF8EC0000F099FAEDB2002D61
:106D300007D0EDB2012D04D0FC21DFF8D80000F01F
:106D40008EFAEDB2002D04D0208850F04000208053
:106D500004E020884FF6BF710840208031BD10B597
:106D60000400DFF8A800844209D0DFF8A4008442C0
:106D700005D04FF4C671DFF89C0000F070FAA089CE
:106D800010BD38B504000D00DFF88000844209D042
:106D9000DFF87C00844205D040F29B11DFF87400DC
:106DA00000F05DFAA58131BD70B504000D0000262C
:106DB0001648844207D01648844204D040F2EB21A2
:106DC000144800F04CFAADB2802D13D0ADB2402D76
:106DD00010D0ADB2202D0DD0ADB2102D0AD0ADB275
:106DE000022D07D0ADB2012D04D04FF43B710948FC
:106DF00000F035FA2089284202D00120060001E087
:106E0000002006003000C0B270BD0000003001401C
:106E100000380040303901080EB400B582B003A933
:106E20000091024600AB0121034878440A3000F08B
:106E30005DFA06BC5DF810FBF5E1000010B582B00C
:106E40000400E4B2602C34D0E4B2612C31D0E4B25E
:106E5000622C2ED0E4B2632C2BD0E4B2642C28D068
:106E6000E4B2652C25D0E4B2662C22D0E4B2672CC3
:106E70001FD0E4B2682C1CD0E4B2692C19D0E4B263
:106E80006A2C16D0E4B26B2C13D0E4B26C2C10D068
:106E9000E4B26D2C0DD0E4B2702C0AD0E4B2712CA7
:106EA00007D0E4B2722C04D0074A6B210748FEF7E2
:106EB000C1F82000C0B2FDF70FFE00900448BDF8F5
:106EC0000010018013BD00BF7C4E0108F83B010893
:106ED0003C2400204268C2F30A5240F2FF739A42F7
:106EE00009D14168090304BF0068002801D10120CD
:106EF00070470220704743685B0004BF0368002BA3
:106F000025D040F233439A1A521A012A1FDB352A40
:106F100006DB416801F0004141600021016013E09F
:106F2000012102F01F039940491E920607D54268CD
:106F300011404A40426002681143002202E00268A8
:106F400011404A40026011B14FF0FF3070470020FD
:106F500070470000E0B500200190C648000109D547
:106F6000C448C549884205D34FF440515FF00060E2
:106F700001F0FCF801211F20FFF72EFA02F004FBBC
:106F8000FFF76EF802F09AFBBC4800680528FBD1B9
:106F9000002002F02BFD002002F087FD012002F00E
:106FA00025FD022002F022FD032002F01FFD042037
:106FB00002F01CFD042001F0F3F802F013FE0221A0
:106FC000042002F03DFE03F04CF902F031FF03F023
:106FD00048F8AB490D2003F0B4F803F05FF903F073
:106FE00099F9FDF751FB02F0E7FE00AA0121C1204B
:106FF000FDF7E1FC9DF80000C0B240088DF80000EC
:107000009DF80000002803D09DF800007F28ECD1F7
:1070100002F0D9FE00AA0121C120FDF7CCFC9DF8A9
:107020000000C0B240088DF800009DF80000032861
:10703000F0D10121012003F049FC0121042003F0DB
:1070400045FCFFF786F8002804D10121002003F059
:107050003DFC03E00121062003F038FC0121032060
:1070600002F0EEFD00230F220F21032002F076FE36
:1070700003F0B1FE03F00CFC002811D002AA042199
:10708000212003F096FB0020C0B204280BDA02A9ED
:10709000C0B2091AC97801AAC0B28154401CF3E7F2
:1070A000012003F0ADFF02F087FE01230F220F2124
:1070B000032002F053FE0221912004F017FB01216E
:1070C000652004F013FB0721662004F00FFB00216C
:1070D000672004F00BFB4FF47A71992004F006FB53
:1070E0000321682004F002FB00219D2004F0FEFA39
:1070F0000198FDF77DFF01009E2004F0F7FA61483A
:1071000001F0E4FE01F02DFB01F0C1FF5E490870C3
:1071100001205E4908705C480078022848D15C482C
:107120000078012842D15B495B4804F04BFE5B4983
:1071300004F06AFE4EA15A4804F044FE594904F096
:1071400063FE5949594804F03DFE594904F05CFE7C
:107150005849594804F036FE584904F055FE0020BD
:107160004B4908705648FFF757FE4B495548FFF703
:1071700053FE4B495348FFF74FFE4C495148FFF728
:107180004BFE4D494F48FFF747FE444890F80D012C
:10719000002801D04C4900E04C494A48FFF73CFE2A
:1071A0004748FFF739FE012002F0C9FC01F02FF932
:1071B000354800780128AED145480068002815D030
:1071C000002043490860012002F06FFC062141487D
:1071D00001F016F84048D0E90023501C53F100019B
:1071E0003D4AC2E90001012002F0A9FC3B480068C9
:1071F000002804D000203949086001F067FD3848B4
:107200000068002887D000203549086035480068AC
:10721000401C344908607EE780B51C48007800288F
:1072200006D1022002F066FC01201849087009E02E
:1072300001F02DFF14490870022002F036FC0020F6
:107240001249087001BD01202449086070470120DF
:1072500023490860704701201D490860704738B510
:1072600004000D002A0021001F48FFF7D5FDFEE7AE
:10727000412D000000300008003000082C240020C0
:10728000333353405807002066240020970700201E
:10729000702400200051010860230020BC1E002043
:1072A00074230020C11E0020C45001088823002040
:1072B000CE1E0020085101089C230020D71E00206C
:1072C000AC45010810510108D05001089450010844
:1072D000D0230020D403002050070020C823002022
:1072E000CC23002078070020244A01082DE9F04F24
:1072F000A1B08046002017461D4602910B900DF16B
:10730000440A6FF000490AE017F8011B0298C047D1
:107310000028029000F0AB820B98401C0B9038784C
:1073200008B90B98A5E22528EED10020059006901B
:107330000790089009900A9001E040F0010017F8CA
:10734000011F2029F9D023290DD02B2904D02D2964
:1073500006D030290AD00CE040F0020080B2EEE7FF
:1073600040F00400FAE740F00800F7E740F01000B2
:10737000F4E72A290ED12968296051F8042B2960E5
:10738000002A0D9204D5514240F004000D9180B2C4
:107390007F1C11E000210D9109E00D99494505D0B0
:1073A00001EB810302EB430130390D917F1C3A78E8
:1073B000A2F130010A29F0D339782E2903D04FF0F9
:1073C000FF310C911DE017F8011F2A2907D1296808
:1073D00029607F1C51F8042B29600C9211E00021D8
:1073E0000C9109E00C99494505D001EB810302EBB2
:1073F000430130390C917F1C3A78A2F130010A29FF
:10740000F0D3ADF838000FF67840397804F00AFD73
:1074100008B117F8010B8DF83A009DF83A0068287A
:1074200002BF39786829622005D06C2804BF3878FB
:107430006C2803D171208DF83A007F1C11A80490AC
:1074400017F8014BB4F1250029D01C3800F0C28098
:10745000001F022840F2BE80133800F0E380093894
:1074600000F0B880801E00F04A81401E00F02381A9
:10747000401E022840F2AE80001F00F01C81401F19
:1074800079D0401E00F0CE80401E24D0C01E0BD00C
:10749000801E00F0C780C01E00F0C48039E12520A6
:1074A0008DF8440001203DE12868286050F8046B05
:1074B000286003960C9C002C04D5304604F0BEFCDA
:1074C000044606E022460021304604F0D3FC00B119
:1074D000841B069427E1296829603C2451F8040B99
:1074E00029600021CDE9000111A80390DDE9000128
:1074F000049E11B908B90C9AB2B10206120FA0EBA2
:1075000002123032D2B2631E3A2AA8BF27320009D3
:1075100040EA017009099A5508BF00281C4603D0AB
:10752000039AA3199A42E8D3A0190390C4F13C012D
:107530000C980691814209DA401A08904FF6EF71D3
:10754000BDF838000840ADF83800ECE0002840F104
:10755000EA809DF8380000F01400102840F0E38025
:107560000D98059A801A089A801A441A012CC0F2C4
:10757000DA800894D7E09DF83A0062281AD068288B
:1075800006D06A280CD06C281CD0712808D019E0CD
:107590002868286050F8041B28600B980880C2E017
:1075A0002868286050F8042B28600B98C117C2E99E
:1075B0000001B8E02868286050F8041B28600B9888
:1075C0000870B0E02868286050F8041B28600B9809
:1075D0000860A8E02868C01D20F007022A60D2E9F0
:1075E000000108322A60CDE90001002902D5059882
:1075F0002D210AE0BDF83800810702D505982B211E
:1076000003E0C00705D50598202100F80A10401CAA
:10761000059011A8059908180390214600A800F0CC
:10762000E5F980E09DF83A006C280DD0712818BF6C
:107630006A2809D12868C01D20F007022A60D2E913
:10764000000108322A6005E02968296051F8040B1E
:1076500029600021CDE900019DF83A00682803D196
:10766000DDE9000180B20BE0622803D1DDE9000111
:10767000C0B205E0742818BF7A2804D1DDE9000102
:107680000021CDE900019DF8380000072ED5DDE985
:107690000001002908BF002828D044F020007828E5
:1076A00024D10598302100F80A10401C411C059196
:1076B00000F80A401AE09DF83A00294600F0DCF88C
:1076C000CDE90001002902DA05982D210AE0BDF874
:1076D0003800810702D505982B2103E0C00705D5A6
:1076E0000598202100F80A10401C059011A8059962
:1076F00008180390214600A800F0F5F813E00120D7
:1077000005902868286050F8041B28608DF8441004
:1077100009E025208DF84400012005901CB18AF86D
:107720000140022005900D980599401A0899401AC9
:107730000699401A0999401A0799401A0A99441A59
:107740009DF83800400710D420208DF84000002616
:1077500009E0012310AA00A9404600F07AFC0028A5
:1077600040F08580761CA642F3DB059E0DF1440BAC
:107770000AE01BF8011B0298C0470028029076D04F
:107780000B98401C0B90761E002EF2D130208DF805
:1077900040004FF0000B089E09E0012310AA00A949
:1077A000404600F056FC002861D10BF1010BB345B7
:1077B000F3DB069EDDF80CB00AE01BF8011B029813
:1077C000C0470028029052D00B98401C0B90761EA8
:1077D000002EF2D130208DF840004FF0000B099EB2
:1077E00009E0012310AA00A9404600F032FC00285D
:1077F0003DD10BF1010BB345F3DB03980699079ECE
:1078000001EB000B09E01BF8011B0298C047029036
:1078100068B30B98401C0B90761E002EF3D13020DD
:107820008DF840004FF0000B0A9E08E0012310AADB
:1078300000A9404600F00DFCC8B90BF1010BB3459F
:10784000F4DB9DF8380040077FF569AD20208DF806
:107850004000002600E0761CA642BFF660AD012382
:1078600010AA00A9404600F0F4FB0028F3D04FF026
:10787000FF3021B0BDE8F08F622826D068281DD0E7
:107880006A2808D06C2827D0712804D0742823D007
:107890007A280CD020E00868C01D20F0070008609E
:1078A000D0E90023083008601946104670470A687E
:1078B0000A6052F8040B0A60002170470A680A60E7
:1078C00052F8040B0A6000B20BE00A680A6052F832
:1078D000040B0A6040B204E00A680A6052F8040B24
:1078E0000A60C11770472DE9FA4E05460A462F690E
:1078F0006F2A08BF082405D041F02000782814BF63
:107900000A2410243C26D5E90001642A18BF692AFC
:1079100081468A4605D1002903DAD9F100096AEBCC
:107920004A0ABAF1000F08BFB9F1000F0CD1286B59
:1079300050B9082C36D195F83800000732D53020E0
:107940003B2687F83B002DE0E31748465146224688
:1079500004F0BCFAA4FB0023A9EB02023032D2B23D
:10796000A6F1010B3A2A5E4603DB9DF80030513B3D
:107970009A1881465FEA010A0BF8072008BFB9F19F
:10798000000F03D0E868F1198842DDD3082C09D133
:1079900095F83800000705D5F05D302802D0761E36
:1079A0003020F055C6F13C00A861F119E960296B5F
:1079B000884208DA081A28624FF6EF71288F0840CB
:1079C0002887BDE8F38E00290ED595F8381001F010
:1079D0001401102908D1696B6A69891A2A6A891AFF
:1079E0000E1A012EA8BF2E62BDE8F38E2DE9F24FCC
:1079F00004468EB0D4E90001CDE9020104AF9DF840
:107A0000380040F0200BBBF1610F0AD0206B00283A
:107A100048BF062004D408BFBBF1670F01D1012085
:107A200020636168C1F30A5040F2FF7290421CD19A
:107A3000080304BF2068002809D10320A0619DF835
:107A4000380061381A2836D30FF2486108E0032065
:107A5000A0619DF8380061381A2829D30FF22C61F3
:107A6000E068032204F0AAFABEE1012816DA2046F3
:107A700004F0DFFA012811DB00250020BBF1610FC3
:107A800020D1E168302201F8012B4A1CE2609DF808
:107A90003820612A0CBF782258220FE0626840F239
:107AA000FE3161F31E52451A62604FF0FF30E5E788
:107AB0000FF2D451D4E70FF2D851D1E70A706169BF
:107AC000891C616110B90026002584E1BBF1610FBA
:107AD00040F09780206BD4E900AB00284CBF2126F2
:107AE000461CDDE9020100220023FEF74DFA36B202
:107AF0003ABF8BF00040CDE902A0CDE902AB06F120
:107B000001082D1F8DF810200DF1110700E0C71D91
:107B1000B8F1010F33DBDDE902010022002304F09C
:107B2000A9FA2CD21C2102A804F0BCFADDE902015A
:107B3000FEF7F4F8A8F10708B8F1010F814609DB58
:107B4000FDF7C2FC02460B46DDE90201FEF75CF9D7
:107B5000CDE90201F81D072105E009F00F0200F848
:107B6000012D4FEA2919B9F1010F01DB491EF4D5A6
:107B7000491E5CBF002200F8012DF9D5C7E70DF1C1
:107B80001100391AB142B8BF0E4636B230000DF1BD
:107B900011072FD4884206DA04A941184978082928
:107BA000A8BF0F2100DA002104AA821800E0761E87
:107BB00012F80139401E8B42F9D00F2904D104A9D3
:107BC00041184A78521C4A70002802D504AF761C2E
:107BD0002D1D36B2701E0DD4C1190A783032D2B2C2
:107BE0003A2A03DB9DF838303A3B9A18401E01F8D8
:107BF0000129F2D5206B002840F1ED80701E206332
:107C0000E9E0DDE9020100220023FEF7BDF93CBFF7
:107C100081F00041CDE902012DB247F2975068434F
:107C20004B49DFF8309190FBF1F52DB2C5F1070A11
:107C3000BAF1010F90461CDBDDE902675FEACA700A
:107C400007D542464B4630463946FDF795FF064676
:107C50000F464046494642464B464FEA6A0AFDF700
:107C60008BFFBAF1000F80468946E7D1CDE9026764
:107C700024E0CAF1000A0026374F14E05FEACA7018
:107C800007D542464B4630463946FDF775FF064656
:107C90000F464046494642464B46FDF76DFF4FEAC8
:107CA0006A0A80468946BAF1000FE7D1DDE9020190
:107CB00032463B46FDF720FCCDE90201BBF1660FE1
:107CC000216BDFF898900CBF05F10A0006204618DA
:107CD000142EA8BF132630208DF810000DF11107C7
:107CE000012E3DDBDDE90201FEF72EF807F1080168
:107CF00004220A23B0FBF3F303EB8307A0EB470056
:107D0000303001F8010C0A20B3FBF0F000EB8007E3
:107D1000A3EB47033033521E01F8023DE9D1083E80
:107D2000012E01F10807DBDBDDE90201FEF70CF8AB
:107D3000FDF7D4FB02460B46DDE90201FEF764F8CD
:107D400000224B46FDF718FFCDE90201CAE700BF4C
:107D5000A0860100000024400000F03F84D7974136
:107D60000DF11100381A0DF1110702E0401E6D1ED1
:107D70007F1C39783029F9D0BBF1660F02D12DB2C2
:107D8000691C04E0BBF1650F0CBF01210021226BCF
:107D90008E1836B2B042B8BF064636B231001AD499
:107DA000814204DAC85D3528A8BF392000DA3020C6
:107DB000CA19521E00E0761E12F80139491E83428C
:107DC000F9D0392802D1C85D401CC855002902D518
:107DD0007F1E761C6D1C2DB29DF83810009533B2B5
:107DE0003A46204600F003F80FB0BDE8F08F2DE9C9
:107DF000F04305461E46D5F83080012E85B08946F1
:107E0000174602DA01260FF2902749F02000BDF94B
:107E10003040662808BF641C17D0672840F0828075
:107E200014F1040FC0F28480444580F2818095F8FB
:107E30003800641C000702D44645B8BFB04624B2DF
:107E4000B8EB040848BF4FF0000824B2E868A969FD
:107E5000012C25DA4A1C30230B54B8F1010F03DA48
:107E600095F83810090702D52E211154521C18EB31
:107E7000040FB8BFC8F1000424B2A0446142B04569
:107E8000AA616962B8BF4646AB6936B2EE61324656
:107E90003946181804F092F8A8EB0600A862C1E071
:107EA0000818A64218DA3246394604F087F8A9695C
:107EB0007118A01BB8F1010FA961686203DA95F887
:107EC0003800000705D5EA682E208854E869401C70
:107ED000E861C5F82880A5E02246394604F06EF82E
:107EE000A8692018361BB8F1010F03DA95F838108D
:107EF000090703D5EA682E218154401CA86136B2D7
:107F0000B045B8BF4646E868AB6936B23246E119BB
:107F1000181804F053F8A8693018A861A8EB0600F7
:107F200068627FE0B9F1610F16D14FF0700918E077
:107F3000464504DA95F83810090758BFB046B8F13D
:107F4000010848BF4FF00008B9F1670F14BF4FF0A8
:107F500045094FF0650904E0B9F1410F08BF4FF042
:107F60005009A969E86817F8013B0B544A1CB8F19D
:107F7000010F05DA95F83810090758BFAA6117D51F
:107F80002E211154531CB8F1010FAB6110DB761E8A
:107F900036B2B045B8BF464636B2324639461818F2
:107FA00004F00CF8A8693018A861A8EB0600686214
:107FB000E868A9690918200081F8009003D42B20F3
:107FC00048708F1C03E02D224A708F1C64420026EB
:107FD0000DF1080808E00A2200A804F0EBF8019867
:107FE00008F8010B761C009C21B20129F3DA022E5D
:107FF00006DA49F02000652804BF302007F8010B9D
:108000004EB9302007F8010B07E0761E02A8305C5D
:10801000303007F8010B012EF7DAE868A969081873
:10802000381AE86195F8380000F0140010280DD1D6
:108030006869A9690818696A0818E9690818A96AC5
:108040000818696B8842BCBF081A286205B0BDE8F1
:10805000F083F8B504460D4616461F46002004E09E
:10806000E86A401CE8627F1E002047B116F8011B39
:10807000A868A0470028A860F2D14FF0FF30F2BDF9
:10808000686A6C747A4C00006E616E004E414E005E
:10809000696E6600494E46003000000010B50400CD
:1080A000B4F5E06F0FD0B4F5C06F0CD0B4F5A06F8D
:1080B00009D0B4F5806F06D0B4F5407F03D07821A5
:1080C0004548FFF7CCF8454820434549086010BDB6
:1080D000F8B50400002500260F27E078002806D018
:1080E000E078012803D08C213B48FFF7B8F860788E
:1080F000102803DB8D213848FFF7B1F8A07810284D
:1081000003DB8E213448FFF7AAF8E078002822D05C
:108110003348006810F4E060D0F5E060000A050024
:10812000D5F10400060038000700EF406078B04049
:108130000500A078384005432D012A4821780D54C8
:108140000120217811F01F0188402749227852111F
:1081500041F8220009E00120217811F01F01884038
:1081600022492278521141F82200F1BD38B50400AD
:108170000D00B4F1005F06D0B4F1006F03D0B5215B
:108180001548FFF76CF81A48854203D3B621124808
:10819000FFF765F81748284020431749086031BDAC
:1081A00010B50400042C06D014F1050F03D0E12112
:1081B0000948FFF754F8042C06D11048006850F025
:1081C00004000E49086005E00C48006830F0040027
:1081D0000A49086010BD0000EC3A01080000FA05E9
:1081E0000CED00E000E400E000E100E080E100E0F0
:1081F000FFFF010080FFFF1F08ED00E010E000E03E
:1082000070B59EB004000D0000A9662003F064FC68
:10821000002840F0EA8000A80078002815D0012846
:1082200013D002283DD003280FD0042839D00528C8
:1082300037D0062800F0D580072806D0082830D08F
:108240000B2802D00C282CD0CCE0DFF83C2BD2E954
:1082500000018DF8140000208DF815004FF4A8706F
:10826000ADF816000794FF208DF819008DF818500E
:1082700044208DF808007A208DF8110001208DF837
:1082800004000020DFF8041B0870DFF8041B01A8BD
:1082900003F098FF0600DFF8F40A00780028FAD00F
:1082A000A0E011A8079005208DF8190000208DF896
:1082B00018004FF4FA601390DFF8D80A1B90FF20E3
:1082C0008DF8690000208DF8680001208DF8040009
:1082D00048208DF808008A208DF811000020DFF872
:1082E000B81A08700020DFF8B41A0870DFF8A01A76
:1082F00001A803F067FF002872D1DFF8A00A007818
:108300000028FAD0DFF8981A13A803F0B5FF06008A
:10831000DFF8840A0078002804D1DFF8880A0078A2
:108320000028F5D0DFF87C0A0078012803D100206E
:10833000DFF8701A0870DFF8600A007801284FD162
:108340000020DFF8601A08700020DFF84C1A08706F
:108350000020DFF8541A0870DFF8441A13A803F05D
:108360008BFF0600DFF8400A0078002804D1DFF810
:10837000340A00780028F5D0DFF82C0A00780128AC
:108380002ED10020DFF8141B08710220DFF80C1B2F
:108390004871DFF8F429D2E900018DF8340000209B
:1083A0008DF835004FF4A870ADF836000F94042016
:1083B0008DF839008DF8385001208DF82400082000
:1083C0008DF828007A208DF831000A2001F013FC86
:1083D000DFF8BC2909A9DFF8C40A03F074FF06001E
:1083E00000E0FFE73000C0B200E041201EB070BDE9
:1083F00010B582B004F040FA0400DFF8A40A006867
:10840000009000A804F070FA2000C0B216BD10B5AC
:10841000ADF5487D5CA9992003F05EFB0A205C90D5
:10842000DFF870096490FF208DF88D0100208DF831
:108430008C010020DFF86C1A08700020DFF8641946
:1084400008700020DFF8601A087004F03AFA00287B
:1084500040F08281DFF848195CA803F00DFF0400AA
:10846000DFF8400A0078002804D1DFF838090078E6
:108470000028F5D0DFF8300A00780C2840F09B8007
:10848000DFF8280A0078002840F0958001208DF858
:108490003001BBA8529032208DF8450108208DF89C
:1084A00044010020DFF8081A087000208DF834011C
:1084B00000208DF83D01DFF8E409407B52990870F7
:1084C000DFF8D809807B52994870DFF8D009C07B6B
:1084D00052998870DFF8C409007C5299C870DFF89F
:1084E000BC09407C52990871DFF8B009807C529930
:1084F0004871DFF8A809C07C52998871DFF89C099F
:10850000007D5299C871042001F075FB0020DFF84E
:10851000A4190870DFF878284CA9DFF8800903F067
:10852000D2FEDFF8900900780028FAD0BBA85A9054
:1085300032208DF8650100208DF864014B208DF804
:10854000540101208DF850017A208DF85D0104203E
:1085500001F051FBDFF8381854A803F033FE040093
:10856000E4B2002CF6D1DFF8400900780F28FAD1E8
:108570000020DFF8301908700020DFF82818087094
:108580000A205C90DFF818185CA803F075FE040060
:10859000DFF810090078002804D1DFF80808007817
:1085A0000028F5D0DFF8FC080078012803D100206E
:1085B000DFF8F0180870DFF8F0080078842840F041
:1085C000CB80DFF8E8080078012840F0C580012062
:1085D0008DF81001AEA84A9032208DF825010820B0
:1085E0008DF824010020DFF8C818087006208DF8E7
:1085F00014018A208DF81D01DFF8A008407B4A99FC
:108600000870DFF89808807B4A994870DFF88C087A
:10861000C07B4A998870DFF88408007C4A99C8704A
:10862000DFF87808407C4A990871DFF87008807C90
:108630004A994871DFF86408C07C4A998871DFF86C
:108640005C08007D4A99C871042001F0D4FADFF873
:10865000402744A9DFF8440803F035FEDFF850084E
:1086600000780128FAD1DFF83408807B0021CDE9B9
:10867000AA01DDE9AA231B0243EA12631202DFF812
:108680001C08407B002110431943CDE9AA01DDE914
:10869000AA231B0243EA12631202DFF80008807C5F
:1086A000002110431943CDE9AA01DDE9AA231B02E9
:1086B00043EA12631202DFF8E407407C0021104312
:1086C0001943CDE9AA01DDE9AA231B0243EA12639B
:1086D0001202DFF8C807007C002110431943CDE9DE
:1086E000AA01DDE9AA231B0243EA12631202DFF8A2
:1086F000AC07C07B002110431943CDE9AA01DDE995
:10870000AA231B0243EA12631202DFF89007C07C1F
:10871000002110431943CDE9AA01DDE9AA231B0278
:1087200043EA12631202DFF87407007D0021104350
:108730001943CDE9AA01BDF898014FF681710840AF
:10874000ADF8980166A984B068464FF4907203F0C2
:1087500045FC0FBC00F02AFB2000C0B20DF5487D9F
:1087600010BD2DE9F047FDF7F4FC002811D100F011
:10877000B7FEDFF8440704F06FFA012809D1DFF8EB
:108780003C17012004F040FCDFF83417012004F00E
:1087900028FBFFF72DFE00F07AFC022840F0F58060
:1087A0004FF4947005F0FEFBDFF818170860002006
:1087B000DFF810170968C1F82001DFF80C0700780E
:1087C0000021DFF800271268C2E94401DFF8F4064F
:1087D0000068D0E944231B0243EA12631202DFF867
:1087E000E8064078002110431943DFF8D8261268C4
:1087F000C2E94401DFF8CC060068D0E944231B023B
:1088000043EA12631202DFF8C006807800211043A9
:108810001943DFF8B0261268C2E94401DFF8A40664
:108820000068D0E944231B0243EA12631202DFF816
:108830009806C078002110431943DFF88826126893
:10884000C2E94401DFF87C060068D0E944231B023A
:1088500043EA12631202DFF8700600790021104328
:108860001943DFF860261268C2E94401DFF85406B4
:108870000068D0E944231B0243EA12631202DFF8C6
:1088800048064079002110431943DFF83826126862
:10889000C2E94401DFF82C060068D0E944231B023A
:1088A00043EA12631202DFF82006807900211043A8
:1088B0001943DFF810261268C2E94401DFF8040604
:1088C0000068D0E944231B0243EA12631202DFF876
:1088D000F805C079002110431943DFF8E825126834
:1088E000C2E94401DFF8DC050068007810F07F0081
:1088F000DFF8D01509680880DFF8C805006800882F
:1089000050F00100DFF8BC1509680880DFF8B405F5
:10891000006800884FF681710840DFF8A8150968E3
:1089200008800020DFF89C1509688870062400255F
:10893000DFF890050068461D2A002100300005F090
:1089400093FCF1260027DFF87C05006810F10B0886
:108950003A003100404605F087FC5FF010085FF0F8
:108960000009DFF86005006810F1FC0A4A4641463C
:10897000504605F079FC0020DFF848150968C870FA
:108980000020DFF8401509680871BDE8F08738B5A8
:108990000400DFF818050078002840F09681002CCC
:1089A00000F09381200000F0DDFA200000F0DAFAF8
:1089B000050000A9652003F08FF800A800780228C0
:1089C00040F07F81DFF8980580F80D51A17808000C
:1089D00000026178084380B2202190FBF1F202FB93
:1089E000110212F14001DFF878259170010089B27F
:1089F000202291FBF2F303FB1213C01A80B2202154
:108A000090FBF1F080B2202190FBF1F202FB110209
:108A100012F14001DFF84825517080B2202190FB0F
:108A2000F1F14031DFF8382511700021DFF83025F1
:108A3000D170E17811F00F013031DFF82425917108
:108A4000E178C9B209093031DFF814255171217973
:108A500011F00F013031DFF8082511722179C9B208
:108A600009093031DFF8F824D171617911F00F0173
:108A70003031DFF8EC2491726179C9B209093031E3
:108A8000DFF8DC245172A17911F00F013031DFF8E9
:108A9000D0241173A179C9B209093031DFF8C0249B
:108AA000D172E17911F00F013031DFF8B424917304
:108AB000E179C9B209093031DFF8A4245173217A70
:108AC00011F00F013031DFF898241174217AC9B206
:108AD00009093031DFF88824D1730021DFF88024C0
